:100000000C9446000C9465000C9465000C946500FB
:100010000C9465000C9465000C9465000C946500CC
:100020000C9465000C9465000C9465000C946500BC
:100030000C9465000C9465000C9465000C946500AC
:100040000C9465000C9465000C9465000C9496006B
:100050000C9465000C9465000C9465000C9465008C
:100060000C9465000C9465000C9465000C9465007C
:100070000C9465000C9465000C9465000C9465006C
:100080000C9465000C9465000C94650011241FBE4F
:10009000CFEFD0E4DEBFCDBF11E0A0E0B1E0E4E7F8
:1000A000F1E000E00BBF02C007900D92AE30B10747
:1000B000D9F721E0AEE0B1E001C01D92AF30B20748
:1000C000E1F70E94AB000C94B8000C940000CF93B1
:1000D000C82F8A3019F48DE00E9467008091C0001B
:1000E00085FFFCCFC093C60080E090E0CF910895DB
:1000F00080EB84B981E58CBD8FE485B98FB78068CA
:100100008FBF08958EBD85B185B90DB407FEFDCFB3
:1001100085B1806185B9089580E484B98FEB85B994
:1001200080EC8CBD8FB780688FBF08951F920F92AF
:100130000FB60F9211248F938EB580930E018F917D
:100140000F900FBE0F901F901895EAE7F0E08081A6
:10015000806E808308958FEF87B918B80E94A5003C
:100160000E948C0080917800909179008EBDFACF2A
:04017000F894FFCF31
:0E017400000000020000000067000000000014
:00000001FF
