:100000000C9446000C9465000C9465000C946500FB
:100010000C9465000C9465000C9465000C946500CC
:100020000C9465000C9465000C9465000C946500BC
:100030000C9465000C9450180C9465000C946500A9
:100040000C9465000C9465000C9465000C9465009C
:100050000C9465000C9465000C9465000C9465008C
:100060000C9465000C9465000C9465000C9465007C
:100070000C9465000C9465000C9465000C9465006C
:100080000C9465000C9465000C94650011241FBE4F
:10009000CFEFD0E4DEBFCDBF11E0A0E0B1E0ECEBEC
:1000A000F0E300E00BBF02C007900D92AC32B10745
:1000B000D9F727E0ACE2B1E001C01D92AB3AB2073C
:1000C000E1F70E943C010C945C180C940000109223
:1000D000A6071092A50708958091A5079091A607FD
:1000E000009719F0019729F007C08BB18F7E8BB96B
:1000F00003C08BB180618BB98091A5079091A60751
:10010000009719F0019741F0089581E090E09093F5
:10011000A6078093A50708951092A6071092A50739
:1001200008950E9467000E946C0084EC99E00E9490
:100130000513F9CF1092AA071092A907089580918C
:10014000A9079091AA07009719F0019729F007C015
:100150008BB18B7F8BB903C08BB184608BB98091DD
:10016000A9079091AA07009719F0019741F0089507
:1001700081E090E09093AA078093A90708951092D8
:10018000AA071092A90708950E949A000E949F0052
:1001900084EF91E00E940513F9CF1092A807109206
:1001A000A70708958091A7079091A807009719F0D5
:1001B000019729F007C08BB18E7F8BB903C08BB13B
:1001C00081608BB98091A7079091A807009719F0DB
:1001D000019741F0089581E090E09093A807809303
:1001E000A70708951092A8071092A70708950E94E4
:1001F000CD000E94D20088EE93E00E940513F9CF53
:10020000EF92FF920F93E12CF12C082F20E030E0C9
:1002100045E550E060E071E081E990E00E94A310C4
:100220000F91FF90EF900895EF92FF920F93E12CC2
:10023000F12C082F20E030E045E550E06FE071E060
:1002400084EC90E00E94A3100F91FF90EF9008952E
:10025000EF92FF920F93E12CF12C082F20E030E079
:1002600045E550E06BE171E087EF90E00E94A3105C
:100270000F91FF90EF90089511B88FEF82B98AB96E
:1002800081E00E94280181E00E94140181E00E9427
:1002900000010E94481180E090E00895FC01448133
:1002A000558122813381240F351F80819181B901CD
:1002B000681B790BCB016417750710F0841B950B35
:1002C00008950F93FC018FE0DF011D928A95E9F7F5
:1002D00075876487558344833783268306870F9108
:1002E0000895AF92BF92CF92DF92EF92FF920F9359
:1002F0001F93CF93DF936C015B017A01FC01C281F4
:10030000D381048115810C1B1D0B4017510708F484
:100310008A01F60184859585A801B5018C0F9D1F82
:100320000E9453180E151F0558F4A701401B510BCE
:10033000B501600F711FF601848595850E945318E1
:10034000CE018E0D9F1DF601248135818217930702
:1003500010F0821B930BF60193838283C701DF9118
:10036000CF911F910F91FF90EF90DF90CF90BF90B2
:10037000AF900895CF92DF92EF92FF920F931F9369
:10038000CF93DF9300D0CDB7DEB77C016B015A83EA
:10039000498321153105D1F0FC01868580FD09C016
:1003A000CA012417350708F4C9019A83898381E0BB
:1003B00010C02017310760F042E050E0BE016F5FCF
:1003C0007F4FC7010E94710181E003C080E001C03E
:1003D00080E0882339F049815A81B601C7010E9423
:1003E000710102C080E090E00F900F90DF91CF91FB
:1003F0001F910F91FF90EF90DF90CF900895AF92F3
:10040000BF92CF92DF92EF92FF920F931F93CF9301
:10041000DF93C42FD52F2C173D0708F4E90120974F
:1004200091F1FC01E080F180248135812E193F0992
:100430005E012C173D0708F459016B018C01FC018A
:10044000648575856E0D7F1DA501C6010E94531838
:10045000AC16BD0658F4AE014A195B09F801648573
:100460007585C6018A0D9B1D0E945318EC0EFD1E5A
:10047000F80184819581E816F90610F0E81AF90A66
:10048000F801F182E082CE01DF91CF911F910F91AF
:10049000FF90EF90DF90CF90BF90AF9008956F9254
:1004A0007F928F929F92AF92BF92CF92DF92EF9204
:1004B000FF920F931F93CF93DF9300D0CDB7DEB79A
:1004C0006C014B015A01790101151105B9F0FC01CC
:1004D00060807180A801BE016F5F7F4F0E94FF01A5
:1004E00089819A81E01AF10AA816B90630F4F6015A
:1004F00071826082A12CB12C01C05C019701A50121
:10050000B401C6010E94FF010F900F90DF91CF91BF
:100510001F910F91FF90EF90DF90CF90BF90AF9021
:100520009F908F907F906F900895CF92DF92EF927F
:10053000FF920F93CF93DF937B01413011F401E0E1
:1005400001C000E0E114F10419F4EE24E394F12C6D
:100550006C012FEFC21AD20A40960E94270DEC01BF
:10056000009739F09701A601BC01615F7F4F0E949F
:100570006101CE01DF91CF910F91FF90EF90DF905D
:10058000CF900895FC01268521FD03C00E945C0DDB
:1005900008952FE0FC0111922A95E9F708950F9331
:1005A0000FB6F8940F92FC0120853185232B79F446
:1005B00022853385232B69F4268137814481558137
:1005C0006485758506850E94610181E003C080E035
:1005D00001C080E00F900FBE0F9108956115710565
:1005E00011F461E070E0FC012481358126173707A2
:1005F00020F07783668381E0089580E00895FC0110
:100600002481358180819181820F931F42815381A2
:10061000841B950B01978217930710F0821B930B95
:1006200008950E944E0108954F925F926F927F92BB
:100630008F929F92AF92BF92CF92DF92EF92FF92F2
:100640000F931F93CF93DF9300D000D01F92CDB7AD
:10065000DEB76C012B013A013D832C83FC018685BA
:1006600080FF05C04A01F2E08F0E911C01C04A01D3
:100670008C819D81892BA9F1CE0101960E941A14CB
:100680000FB6F8940F92C6010E94FF025C01881514
:10069000990520F580E090E00E94DD160E94681424
:1006A000F601938782870F900FBEEC80FD8000E0FB
:1006B00010E020E030E0A90160E070E0CB010E9492
:1006C000DB14F60113861286BE016C5F7F4FCE01EC
:1006D00001960E943514882399F205C00F900FBE31
:1006E00002C0A12CB12CA114B10421F4C6010E94B6
:1006F000FF025C0184019501A301B201C6010E94C1
:10070000BA017C01892B01F1C6010E944E01F6015C
:100710002681378182179307B8F00E947811F6017D
:1007200080859185892B71F08085918500E010E0AE
:1007300020E030E040E050E0BA010E945F15F60191
:10074000118610860E945212C7010F900F900F90D1
:100750000F900F90DF91CF911F910F91FF90EF902D
:10076000DF90CF90BF90AF909F908F907F906F90D1
:100770005F904F900895AF92BF92CF92DF92EF9229
:10078000FF920F931F93CF93DF93EC015B016A01FC
:1007900079018E8580FF04C08A010E5F1F4F01C062
:1007A0008A01CE010E94FF029C01A601B501CE0183
:1007B0000E94BA016C01892BC9F0CE010E944E0142
:1007C0002E813F818217930788F088859985892B30
:1007D00069F08885998500E010E020E030E040E095
:1007E00050E0BA010E94E81519861886C601DF910B
:1007F000CF911F910F91FF90EF90DF90CF90BF901E
:10080000AF9008958F929F92AF92BF92CF92DF9256
:10081000EF92FF920F931F93CF93DF93EC015B0155
:100820004A0189018E8580FF05C06894CC24C1F8F7
:10083000D12C02C0C12CD12C0115110549F10FB6E4
:10084000F8940F92CE010E944E017C01C816D90681
:1008500040F080E090E00E94DD160E9468149987C5
:1008600088870F900FBECE14DF04B0F0780100E04F
:1008700010E020E030E0A90160E070E0CB010E94D0
:10088000DB1419861886CE010E944E017C0104C03B
:10089000CE010E944E017C01CE14DF0400F58601DA
:1008A0009701A401B501CE010E944F027C01892B62
:1008B000C1F00E9478118A859B85892B69F08A8511
:1008C0009B8500E010E020E030E040E050E0BA011D
:1008D0000E945F151B861A860E94521202C0E12CEC
:1008E000F12CC701DF91CF911F910F91FF90EF90F5
:1008F000DF90CF90BF90AF909F908F900895EF9230
:10090000FF920F931F93CF93DF9300D0CDB7DEB745
:10091000FC01268520FF18C08C010E944E01833007
:100920009105A8F0F801E080F1809C0142E050E0E0
:10093000BE016F5F7F4FC8010E94FF0189819A81CC
:10094000F801F182E08205C080E090E002C080E022
:1009500090E00F900F90DF91CF911F910F91FF903A
:10096000EF900895AF92BF92CF92DF92EF92FF92F5
:100970000F931F93CF93DF93EC016B015A01790121
:100980008E8580FF03C002E010E002C000E010E0AE
:10099000CE010E944E0108171907D8F49C01A50149
:1009A000B601CE010E944F026C01892BA1F08A850D
:1009B0009B85892B81F08A859B8500E010E020E0F3
:1009C00030E040E050E0BA010E94E8151B861A862C
:1009D00002C0C12CD12CC601DF91CF911F910F9184
:1009E000FF90EF90DF90CF90BF90AF900895FC0103
:1009F00020813181828193812817390711F481E0A8
:100A0000089580E00895CF93DF93FC01268520FFB1
:100A100003C0C2E0D0E002C0C0E0D0E00E94FF020C
:100A2000C817D90710F081E001C080E0DF91CF91B5
:100A30000895EF92FF920F931F93CF93DF93FC01E2
:100A400020853185232B89F07B01EC018085918500
:100A500000E010E020E030E040E050E0BA010E9409
:100A6000E8151986188681E001C080E0DF91CF91FA
:100A70001F910F91FF90EF900895EF92FF920F93C7
:100A80001F93CF93DF93FC0122853385232B89F0BD
:100A90007B01EC018285938500E010E020E030E0EE
:100AA00040E050E0BA010E94E8151B861A8681E0FA
:100AB00001C080E0DF91CF911F910F91FF90EF90E7
:100AC00008950FB6F8940F92FC01828D811102C037
:100AD00081E001C080E00F900FBE08950FB6F8943A
:100AE0000F92FC01228D838D281302C081E001C08A
:100AF00080E00F900FBE08950F931F93CF93DF9365
:100B0000EC01042F1A8D4C8D4423B9F1011116C04C
:100B100050E08A819B810E9453182C8D8A819B8191
:100B2000820F911D9B838A832C813D8182179307BD
:100B300020F1888199819B838A831FC050E08E8138
:100B40009F810E9453188C8D90E091958195910919
:100B50002E813F81280F391F3F832E834881598181
:100B60002417350730F42C813D81820F931F9F831A
:100B70008E83023011F4111111501F5F1A8F80E023
:100B8000DF91CF911F910F910895FC01448D442373
:100B9000A9F050E026813781240F351F3783268343
:100BA000848195812817390720F08081918197836E
:100BB0008683CB01668177810E94531808951F9325
:100BC000CF93DF93EC010FB6F8940F921E8D0BC0FC
:100BD0008989882351F0CE0141960E949A13811190
:100BE0000E946414115011169CF38FEF8E8F0F909A
:100BF0000FBE0FB6F8940F921D8D0BC08885882309
:100C000051F0CE0108960E949A1381110E9464143B
:100C1000115011169CF38FEF8D8F0F900FBEDF9147
:100C2000CF911F910895CF93DF93EC010FB6F89405
:100C30000F92E881F9818B8D2C8D90E030E0829FBE
:100C4000A001839F500D929F500D11244E0F5F1FE6
:100C50005D834C831A8EFB83EA830197289FA00152
:100C6000299F500D389F500D1124CF01840F951FDF
:100C70009F838E838FEF8D8F8E8F61110CC088853F
:100C8000882389F0CE0108960E949A13882359F090
:100C90000E949B1708C0CE0108960E949C0CCE01B2
:100CA00041960E949C0C0F900FBE81E0DF91CF9186
:100CB00008950F931F93F801611103C011830083FE
:100CC00002C051834083838F648F61E0CF010E9413
:100CD00013061F910F910895DF92EF92FF920F93E9
:100CE0001F93CF93DF93E82EF62ED42E662321F0A8
:100CF000869FC001112402C080E090E04F960E94C0
:100D0000270DEC01009749F08C012D2DAC01415EBF
:100D10005F4F6F2D8E2D0E945906CE01DF91CF912E
:100D20001F910F91FF90EF90DF900895CF92DF9287
:100D3000EF92FF920F931F93CF93DF9300D000D0D9
:100D40001F92CDB7DEB78C017B015D834C83C22E31
:100D5000D12C0FB6F8940F92F801928D838D9817CD
:100D600018F0F2E0CF1219C04C2DB701C8010E9453
:100D70007C05F8019189992349F0C80141960E94A8
:100D80009A13882331F00E949B1703C081110E949F
:100D90009B170F900FBE81E04DC08C819D81892BE8
:100DA00021F40F900FBE80E045C0D11006C0CE01E7
:100DB00001960E942A14DD24D3940F900FBE0E9446
:100DC00078110FB6F8940F92F801858D8F3F09F4D2
:100DD000158EF801868D8F3F09F4168E0F900FBE89
:100DE000BE016C5F7F4FCE0101960E9435148111C8
:100DF0001BC0C8010E946E05882381F06C817D8133
:100E0000C80108960E946F13C8010E94DF050E9466
:100E1000521281119ECF0E949B179BCFC8010E9446
:100E2000DF050E94521295CFC8010E94DF050E9483
:100E3000521280E00F900F900F900F900F90DF9163
:100E4000CF911F910F91FF90EF90DF90CF90089579
:100E5000EF92FF920F931F93CF93DF938A01FC01D0
:100E6000528D338D531710F02230F1F4422F780158
:100E7000EC011E8D0E947C051F3F81F48989882327
:100E8000A9F0CE0141960E949A13882389F0E114BB
:100E9000F10481F081E0F70180830DC0FF24F39419
:100EA000F10EFE8E81E007C080E005C081E003C046
:100EB00081E001C081E0DF91CF911F910F91FF9000
:100EC000EF900895CF93DF93FC01828D938D891766
:100ED000C0F4968D8F5F828F9F3F79F4818988233C
:100EE00091F0EB01CF0141960E949A13882369F09B
:100EF000209769F081E088830BC09F5F968F81E027
:100F000007C080E005C081E003C081E001C081E04E
:100F1000DF91CF910895CF92DF92EF92FF920F93DE
:100F20001F93CF93DF9300D000D01F92CDB7DEB7D1
:100F30008C016B015D834C83E12C0FB6F8940F920A
:100F4000F801F28CFF20A9F0B601C8010E94C50586
:100F5000FA94F801F28E8085882339F0C80108964A
:100F60000E949A1381110E949B170F900FBE81E07F
:100F700053C08C819D81892B21F40F900FBE80E09E
:100F80004BC0E11006C0CE0101960E942A14EE2447
:100F9000E3940F900FBE0E9478110FB6F8940F9251
:100FA000F801858D8F3F09F4158EF801868D8F3FEE
:100FB00009F4168E0F900FBEBE016C5F7F4FCE01FD
:100FC00001960E94351481111BC0C8010E94610561
:100FD000882381F06C817D81C80141960E946F1346
:100FE000C8010E94DF050E9452128111A6CF0E9403
:100FF0009B17A3CFC8010E94DF050E9452129DCF0C
:10100000C8010E94DF050E945212C8010E946105BA
:10101000882309F492CF80E00F900F900F900F90EB
:101020000F90DF91CF911F910F91FF90EF90DF9084
:10103000CF900895FF920F931F93CF93DF9300D02B
:1010400000D01F92CDB7DEB78C017D836C83F12C6D
:101050000FB6F8940F92F801828D882381F08150A9
:10106000828F8085882339F0C80108960E949A13E0
:1010700081110E949B170F900FBE81E053C08C819D
:101080009D81892B21F40F900FBE80E04BC0F110A1
:1010900006C0CE0101960E942A14FF24F3940F90FB
:1010A0000FBE0E9478110FB6F8940F92F801858D4B
:1010B0008F3F09F4158EF801868D8F3F09F4168E47
:1010C0000F900FBEBE016C5F7F4FCE0101960E9454
:1010D000351481111BC0C8010E946105882381F06D
:1010E0006C817D81C80141960E946F13C8010E94E6
:1010F000DF050E9452128111ABCF0E949B17A8CF2F
:10110000C8010E94DF050E945212A2CFC8010E94AE
:10111000DF050E945212C8010E946105882309F46C
:1011200097CF80E00F900F900F900F900F90DF916E
:10113000CF911F910F91FF900895CF92DF92EF9280
:10114000FF920F931F93CF93DF9300D000D01F9295
:10115000CDB7DEB78C017B015D834C83D12C0FB6FC
:10116000F8940F92F801828D8823B9F0C680D78059
:10117000B701C8010E94C505F801D782C6828189DE
:10118000882339F0C80141960E949A1381110E9468
:101190009B170F900FBE81E053C08C819D81892BDE
:1011A00021F40F900FBE80E04BC0D11006C0CE01DD
:1011B00001960E942A14DD24D3940F900FBE0E9442
:1011C00078110FB6F8940F92F801858D8F3F09F4CE
:1011D000158EF801868D8F3F09F4168E0F900FBE85
:1011E000BE016C5F7F4FCE0101960E9435148111C4
:1011F0001BC0C8010E946105882381F06C817D813C
:10120000C80141960E946F13C8010E94DF050E9429
:1012100052128111A4CF0E949B17A1CFC8010E9436
:10122000DF050E9452129BCFC8010E94DF050E9479
:101230005212C8010E946105882309F490CF80E012
:101240000F900F900F900F900F90DF91CF911F9103
:101250000F91FF90EF90DF90CF900895EF92FF9263
:101260000F931F93CF93DF93FC01C28DCC23F9F032
:101270007A018C01D58D0E94C505C150F801C28F3D
:10128000DF3F81F480858823A1F0C80108960E9481
:101290009A13882381F0E114F10479F081E0F701D9
:1012A00080830CC0DF5FF801D58F81E007C080E04C
:1012B00005C081E003C081E001C081E0DF91CF91F2
:1012C0001F910F91FF90EF9008950F931F93CF936D
:1012D000DF93FC01228D222349F0EC010681178166
:1012E0000E94C5051F830E8381E001C080E0DF916D
:1012F000CF911F910F9108950FB6F8940F92FC01B2
:10130000828D0F900FBE0895FC010FB6F8940F92D6
:10131000938D828D981B892F0F900FBE0895FC012D
:10132000828D08950E945C0D0895FC01828D8111CB
:1013300002C081E0089580E00895FC01228D838D34
:10134000281302C081E0089580E00895EF92FF9293
:101350000F931F93CF93DF93EC017B018A01F894E5
:101360000E946E05882379F00115110549F0BE0130
:10137000685F7F4FC8010E94DB0B78948CEF1FC021
:10138000789480E01CC07894F8949A8D8B8D98178F
:1013900080F440E0B701CE010E947C058989882352
:1013A00051F0CE0141960E94760C811106C081E079
:1013B00005C080E003C081E001C08BEF7894DF912D
:1013C000CF911F910F91FF90EF900895CF93DF93EE
:1013D000EC019B01F8949A8D91110FC041155105B4
:1013E00049F0BE016F5E7F4FCA010E94DB0B78940B
:1013F0008CEF32C0789480E02FC07894F8948A8D76
:10140000882321F14C8D50E08E819F81840F951FA0
:101410009F838E836C817D818617970720F088815A
:1014200099819F838E838A8D81508A8F6E817F817F
:10143000C9010E9453188885882351F0CE0108966F
:101440000E94760C811106C081E005C080E003C0D7
:1014500081E001C08BEF7894DF91CF9108950F93D5
:101460001F93CF93FC01328D238D321798F4C42F34
:101470008C0140E00E947C05C1110EC0F8018189F9
:10148000882361F0C80141960E94760C882341F0C0
:1014900081E007C0842F05C08C2F03C08C2F01C0B2
:1014A0008C2FCF911F910F9108950F931F93CF937E
:1014B000DF93FC01828D882369F1248D30E0A681C1
:1014C000B781A20FB31FB783A68384819581A81724
:1014D000B90720F080819181978386838A01CB01AF
:1014E000EF01428D4150428F66817781A9010E94B0
:1014F0005318F801808181110FC08885882371F00D
:10150000CE0108960E94760C882351F081E0F80104
:10151000808307C080E005C081E003C081E001C096
:1015200081E0DF91CF911F910F910895CF93C0E09B
:1015300010C08C2F90E09C01220F331F220F331F0D
:10154000220F331F820F931F8C5A9E4F0E949C0CB8
:10155000CF5FC23070F38BE491E00E949C0C82E478
:1015600091E00E949C0C85E391E00E949C0C8BE42E
:1015700091E0909341018093400182E491E0909347
:101580003F0180933E01CF9108950F931F93CF9316
:10159000DF9328C0F894E0913A01F0913B01C681B5
:1015A000D781CE010C960E94000D78948E010E5FBB
:1015B0001F4FC8010E94000D8E8990913401981729
:1015C00010F48093340190E09C01220F331F220F0E
:1015D000331F220F331F820F931FB8018C5A9E4F67
:1015E0000E94AE0C809135018111D4CFDF91CF9153
:1015F0001F910F9108950F931F93CF93DF930E9434
:101600007E112091300130913101821B930B909318
:101610002F0180932E015EC0209132013091330161
:101620002F5F3F4F30933301209332010197909306
:101630002F0180932E01232B09F045C0809140019A
:101640009091410120913E0130913F013093410141
:101650002093400190933F0180933E0134C0058068
:10166000F681E02DC681D7812A813B8180913201AC
:10167000909133018217930768F1F8948E010E5F01
:101680001F4FC8010E94000D8C899D89892B21F074
:10169000CE010C960E94000D78948E8990913401B1
:1016A000981710F48093340190E09C01220F331FAF
:1016B000220F331F220F331F820F931FB8018C5A42
:1016C0009E4F0E94AE0CE0914001F091410180815B
:1016D0008111C5CF80912E0190912F01009709F0C3
:1016E0009BCF80913201909133019093310180938F
:1016F0003001DF91CF911F910F910895CF92DF922A
:10170000FF920F931F93CF93DF936C01F62E142F4C
:101710008AE190E00E94270DEC01892B09F442C078
:1017200080912C0190912D01892B31F4D0932D01C2
:10173000C0932C010E94960A81E08F1510F4FF24BB
:10174000F394198E188EFE8A1F8BFE01C192D192DE
:101750008F01CF010E94AA0CCE010C960E94AA0C08
:10176000D987C887DB8BCA8B82E090E08F199109FB
:101770009D878C878E8990913401981710F48093FF
:10178000340190E09C01220F331F220F331F220FE0
:10179000331F820F931FB8018C5A9E4F0E94AE0CCC
:1017A00081E001C08FEFDF91CF911F910F91FF90EA
:1017B000DF90CF9008950F931F93CF93DF938B010A
:1017C000C0913201D0913301C80FD91F80912C01F3
:1017D00090912D0102960E94000DE0912C01F09154
:1017E0002D01D383C2838091320190913301C817B8
:1017F000D90750F4BF016E5F7F4F80913E019091F9
:101800003F010E94CF0C09C0BF016E5F7F4F8091E6
:101810004001909141010E94CF0C0115110549F042
:1018200060912C0170912D01645F7F4FC8010E946F
:10183000CF0CDF91CF911F910F9108950E94C50A9F
:101840000E94FB0A06C0882309F44FC08150809390
:10185000340180913401282F30E0F901EE0FFF1F91
:10186000EE0FFF1FEE0FFF1FE20FF31FEC5AFE4FAC
:101870009081992341F3C901880F991F880F991FFF
:10188000880F991F820F931FDF010180F281E02DE5
:101890000280F381E02D1296FC93EE931197895A02
:1018A0009E4FE817F90729F482819381FD01928305
:1018B0008183F901EE0FFF1FEE0FFF1FEE0FFF1FD9
:1018C0002E0F3F1FF901EC5AFE4F0180F281E02DEF
:1018D0008681978190932D0180932C01DC01ED91FD
:1018E000FC91119757966C91099508950F931F934A
:1018F000CF93DF93DC011596ED91FC911697C6818D
:10190000D7818E01045F1F4FC8010E94000DB801EE
:1019100085E391E00E94AE0C9E89E0912C01F0914C
:101920002D018689981710F081E001C080E0DF91D9
:10193000CF911F910F910895FC01039692838183AB
:101940002FEF3FEF348323839683858390878783AC
:1019500010820895FC01118610860895CF93DF93BD
:101960009C01FB01DC011196CD91DC911297D38390
:10197000C2838C819D81958384838C819D81DC01D0
:1019800013967C936E9312977D836C8331872087A7
:10199000F90180818F5F8083DF91CF910895CF938C
:1019A000DF93EB01488159814F3F2FEF520721F41C
:1019B000FC01A781B0850DC0DC01139601C0DF01D9
:1019C0001296ED91FC9113972081318142175307B4
:1019D000B0F71296ED91FC911397FB83EA83D583C0
:1019E000C483BD83AC831396DC93CE9312979987FF
:1019F0008887FC0120812F5F2083DF91CF9108959C
:101A0000CF93DF93FC01A085B185C281D38184810E
:101A100095819D838C83C481D581828193819B83B1
:101A20008A8311968D919C911297E817F90731F4EA
:101A30008481958112969C938E93119711861086BE
:101A40008C9181508C938C91DF91CF910895CF939D
:101A5000DF93EC010E9478118091660190916701FB
:101A6000892B31F48BE691E09093670180936601B6
:101A70002091680130916901C9018C0F9D1F8B3D38
:101A800045E0940770F42817390770F4C091660197
:101A9000D0916701C20FD31F9093690180936801B1
:101AA00005C0C0E0D0E002C0C0E0D0E00E94521209
:101AB000CE01DF91CF91089508951092690110929F
:101AC0006801089520916801309169018BED95E0DE
:101AD000821B930B0895411106C068237923672B5D
:101AE00049F480E00895862397236817790721F049
:101AF00080E0089581E0089581E00895CF93DF9319
:101B00008BE090E00E94270DEC01009731F0FC0182
:101B100011921192CF010E949C0CCE01DF91CF91C6
:101B20000895AF92BF92CF92DF92EF92FF920F9300
:101B30001F93CF93DF937C015B01C42ED22E0E94B2
:101B40007811F701C081D1814D2DB501CE010E94E0
:101B50006B0D882369F0CC2009F1C5018095909523
:101B60008C239D23F7019183808300E010E018C04F
:101B700001151105A9F0C11003C060E070E002C0BA
:101B800060E071E0D11074606A297B29A801C70167
:101B900002960E948113C0E0D0E002C000E010E095
:101BA0000E945212012B19F1811102C00E949B1751
:101BB0000E946D14EC0191FD19C00FB6F8940F92BC
:101BC000F701C081D1814D2DB501CE010E946B0D71
:101BD000882351F0CC2041F0B501609570956C23BD
:101BE0007D23F701718360830F900FBEDD27CE0147
:101BF000DF91CF911F910F91FF90EF90DF90CF90E9
:101C0000BF90AF900895FC010FB6F8940F928081B9
:101C100091816095709568237923718360830F901B
:101C20000FBE0895FC01808191810895CF92DF92CB
:101C3000EF92FF920F931F93CF93DF937C018B0161
:101C4000EC0125960E947811D7011796ED91FC9131
:101C500018978D919C911197082B192B0D931C931C
:101C600000E010E02DC0C280D380808191819C0172
:101C7000332792FD09C0D7014D915C914223532334
:101C8000452B61F440E00DC0D7014D915C9142239A
:101C900053232417350721F040E003C041E001C081
:101CA00041E0442359F090FF02C0022B132BD701CF
:101CB0006D917C917260CF010E94E213EC2DFD2D9D
:101CC000EC17FD0781F600951095F7018081918151
:101CD00008231923118300830E945212D7018D918A
:101CE0009C91DF91CF911F910F91FF90EF90DF902A
:101CF000CF900895AF92BF92CF92DF92EF92FF9272
:101D00000F931F93CF93DF938C01EB017A0169014D
:101D10000E947811F801A080B180BE01C8010E9424
:101D2000160ECA29DB29CE018E219F21E816F9065D
:101D300069F4F80120813181C70180959095822353
:101D4000932391838083C12CD12C10C0C114D10462
:101D500051F0A601B7017560C80102960E94811377
:101D6000C0E0D0E003C0F801C081D1810E945212CE
:101D7000CD28F9F0811102C00E949B170E946D14BA
:101D800091FD15C00FB6F8940F92F80180819181F2
:101D9000970128233923E216F30639F4A701409569
:101DA000509548235923518340830F900FBEEC0177
:101DB000DD27CE01DF91CF911F910F91FF90EF9022
:101DC000DF90CF90BF90AF900895CF93DF93EC0159
:101DD0000E94781106C060E072E08F8198850E94B1
:101DE000E2138A818111F7CFCE010E945C0D0E941F
:101DF0005212DF91CF910895BA010E94160E0895F4
:101E0000BA010E94030E0895E0916B07F0916C07F0
:101E10008081811107C08FEF9FEF90934C078093D3
:101E20004B070895E0916B07F0916C070580F681F0
:101E3000E02D0680F781E02D8281938190934C07FD
:101E400080934B070895CF93DF93EC018F89988D92
:101E50000E945C0DCE010E945C0DDF91CF91089530
:101E60006F927F928F929F92AF92BF92CF92DF92AA
:101E7000EF920F931F93CF93DF93CDB7DEB74C0153
:101E8000F5018789908D215031093C01620E731E46
:101E90006115710589F416C0822F90E0FB01E80FEF
:101EA000F91F3081D501A80FB91F59963C93808145
:101EB000882329F02F5F01C020E0283068F3F50166
:101EC00010A202C0F501118EF3E0FE1520F40F2ED2
:101ED000F3E0EF2EF02DF501E68AC50102960E948F
:101EE000AA0CC5010C960E94AA0CF501B186A08629
:101EF00084E090E08E19910995878487B38AA28A3D
:101F000011A212A213A214A215A2A801B401C30126
:101F10000E94FF16F50191838083C114D10419F04A
:101F2000F601B182A082DF91CF911F910F91EF90C6
:101F3000DF90CF90BF90AF909F908F907F906F90E9
:101F40000895CF93C0E010C08C2F90E09C01220F29
:101F5000331F220F331F220F331F820F931F81580D
:101F6000984F0E949C0CCF5FC43070F386E797E0D7
:101F70000E949C0C8DE697E00E949C0C80E697E006
:101F80000E949C0C87E597E00E949C0C86E797E0F6
:101F900090936C0780936B078DE697E090936A07A8
:101FA00080936907CF910895CF93DF93EC010FB62B
:101FB000F8940F92809155078F5F80935507809119
:101FC000460790914707892B59F4D0934707C09350
:101FD000460780915507813099F40E94A10F10C0E7
:101FE0008091510781110CC0E0914607F09147079D
:101FF00096898E89891720F0D0934707C0934607AA
:1020000080914D078F5F80934D078E899091520785
:10201000981710F48093520790E09C01220F331F11
:10202000220F331F220F331F820F931FBE016E5FDB
:102030007F4F8158984F0E94AE0C0F900FBE809139
:102040005107882351F0E0914607F09147079689A0
:102050008E89981710F40E949B17DF91CF910895F5
:10206000CF93DF931CC00FB6F8940F92E0915C07FA
:10207000F0915D07C681D781CE0102960E94000DC6
:102080008091550781508093550780915607815064
:10209000809356070F900FBECE010E94230F8091B0
:1020A00056078111E0CFDF91CF9108950E94301043
:1020B00080917F078230D0F30E949B17F7CF0F9358
:1020C0001F93CF93DF93EC010091530710915407B6
:1020D000809146079091470702960E94000DC00F1D
:1020E000D11FE0914607F0914707D383C283C01701
:1020F000D10768F46091460770914707809169079E
:1021000090916A076E5F7F4F0E94CF0C17C060915D
:1021100046077091470780916B0790916C076E5F3F
:102120007F4F0E94CF0C80914B0790914C07C817AE
:10213000D90720F4D0934C07C0934B07DF91CF9180
:102140001F910F9108952F923F924F925F926F923D
:102150007F928F929F92AF92BF92CF92DF92EF9237
:10216000FF920F931F93CF93DF933C011B015A0102
:102170002901CA010E94270D6C01892B71F086E2AA
:1021800090E00E94270DEC01892B19F0D88ECF8AA0
:1021900006C0C6010E945C0D02C0C0E0D0E02097DE
:1021A00091F0950140E050E0812C912C5E01670197
:1021B000E02E8201B101C3010E94300FCE010E94C6
:1021C000D40F81E001C08FEFDF91CF911F910F916C
:1021D000FF90EF90DF90CF90BF90AF909F908F9047
:1021E0007F906F905F904F903F902F9008950F9346
:1021F0001F93CF93DF93EC010FB6F8940F92892BC6
:1022000021F4C0914607D09147078E010E5F1F4F02
:10221000C8010E94000D8C899D89892B21F0CE0177
:102220000C960E94000D80914D078F5F80934D07A3
:102230008091460790914707C817D90759F4B8010C
:1022400087E597E00E94AE0C809156078F5F8093E0
:1022500056070AC080915507815080935507CE01DB
:102260000E94230F0E94040F0F900FBE8091510710
:10227000882349F08091460790914707C817D907EE
:1022800011F40E949B17DF91CF911F910F91089538
:10229000EF92FF920F930F2EF9E4EF2EF7E0FF2E4F
:1022A000F02D00E020E030E045E550E066E271E02E
:1022B00086E590E10E94A310813081F4F8948FEFBD
:1022C0009FEF90934C0780934B0781E080935107D9
:1022D00010925407109253070E946B170F91FF90B2
:1022E000EF900895F894109251070E949A1708955C
:1022F000809148078F5F8093480708950FB6F89440
:102300000F9280915307909154070F900FBE08953C
:10231000809153079091540708958091550708952F
:10232000009721F4809146079091470749960895B8
:10233000DF92EF92FF920F931F93CF93DF938091E1
:102340004807811197C0E0905307F09054078FEF32
:10235000E81AF80AF0925407E0925307E114F104E6
:10236000B9F480916B0790916C07209169073091C7
:102370006A0730936C0720936B0790936A078093EA
:10238000690780914E078F5F80934E070E94040F6C
:1023900080914B0790914C07E816F90628F4D12C50
:1023A00053C0DD24D39401C0D12CE0916B07F09190
:1023B0006C078081811107C08FEF9FEF90934C07CE
:1023C00080934B0741C0E0916B07F0916C0705804B
:1023D000F681E02DC681D7818A819B81E816F906B6
:1023E00028F490934C0780934B072EC08E010E5F0C
:1023F0001F4FC8010E94000D8C899D89892B21F0F7
:10240000CE010C960E94000D8E899091520798176C
:1024100010F48093520790E09C01220F331F220F8B
:10242000331F220F331F820F931FB8018158984F1B
:102430000E94AE0C9E89E0914607F091470786897D
:10244000981708F0AECFB1CFE0914607F09147075B
:10245000868990E0FC01EE0FFF1FEE0FFF1FEE0FCD
:10246000FF1F8E0F9F1FFC01E158F84F80818230C3
:1024700040F409C0809150078F5F80935007D12CA2
:1024800002C0DD24D39480914F07882311F0DD240E
:10249000D3948D2DDF91CF911F910F91FF90EF90ED
:1024A000DF9008950F931F93CF93DF930FB6F894A7
:1024B0000F92809148078150809348078091480788
:1024C000811158C080915507811133C056C0E091E9
:1024D0006507F0916607C681D781CE010C960E94F0
:1024E000000D8E010E5F1F4FC8010E94000D8E89E6
:1024F00090915207981710F48093520790E09C0136
:10250000220F331F220F331F220F331F820F931FFF
:10251000B8018158984F0E94AE0C9E89E091460701
:10252000F09147078689981730F081E080934F0734
:1025300002C0C0E0D0E0809160078111C8CFCD2BF0
:1025400011F00E94040FC0915007CC2359F00E9453
:102550009811882319F081E080934F07C150B9F793
:102560001092500780914F07882331F00E949B17EB
:1025700081E003C080E001C080E00F900FBEDF91DA
:10258000CF911F910F9108950F931F93CF93DF93D6
:102590008C01EB010E947811409153075091540730
:1025A000F80120813181C9018C0F9D1F421753070B
:1025B00040F48217930768F44817590760F020E049
:1025C0000FC08217930748F04817590740F020E0E2
:1025D00007C020E005C021E003C021E001C021E0E8
:1025E000F80191838083222329F060E0841B950BFE
:1025F0000E945F100E945212811102C00E949B171C
:10260000DF91CF911F910F910895CF93DF93EC014C
:10261000892B49F00E94781160E0CE010E945F1082
:102620000E94521201C080E0811102C00E949B17DB
:10263000DF91CF91089580914807882321F081E0B0
:1026400080934F07089510924F072091520701C0C1
:102650002150822F90E0FC01EE0FFF1FEE0FFF1FB5
:10266000EE0FFF1FE80FF91FE158F84F30813323B9
:1026700079F3AC01440F551F440F551F440F551FEC
:10268000480F591FDF010180F281E02D0280F381A4
:10269000E02D1296FC93EE9311974E57584FE41786
:1026A000F50729F442815381FD0152834183FC01E6
:1026B000EE0FFF1FEE0FFF1FEE0FFF1F8E0F9F1F6E
:1026C000FC01E158F84F0180F281E02D868197816D
:1026D0009093470780934607209352070895CF931E
:1026E000DF93EB016091460770914707645F7F4F6E
:1026F0000E94CF0C61E0CE010E945F10DF91CF916C
:102700000895CF93DF93EA01E0914607F0914707E0
:102710007068758764876091460770914707645FAA
:102720007F4F0E94AE0C61E0CE010E945F10DF91EE
:10273000CF9108950F931F93CF93DF93DC011596EC
:10274000ED91FC911697C681D7818E01045F1F4FD2
:10275000C8010E94000D8091480781111CC00A50D9
:102760001109C8010E94000D8E8990915207981797
:1027700010F48093520790E09C01220F331F220F28
:10278000331F220F331F820F931FB8018158984FB8
:102790000E94AE0C05C0B80180E697E00E94AE0C26
:1027A0009E89E0914607F09147078689891720F4B2
:1027B00081E080934F0701C080E0DF91CF911F91AE
:1027C0000F9108950F931F93CF93DF937068FC01CF
:1027D00071836083C681D7810E94000D8E010E5FD8
:1027E0001F4FC8010E94000D8E89909152079817C3
:1027F00010F48093520790E09C01220F331F220FA8
:10280000331F220F331F820F931FB8018158984F37
:102810000E94AE0C9E89E0914607F0914707868999
:10282000891718F481E080934F07DF91CF911F91B2
:102830000F9108950FB6F8940F9220914E07FC0166
:1028400020832091530730915407328321830F90C6
:102850000FBE089520914E07FC012083209153075D
:1028600030915407328321830895CF93DF930FB6BD
:10287000F8940F924091530750915407EC0129812D
:102880003A81DA01A21BB30BF881E0914E07FE17E3
:1028900019F04217530790F4FB0120813181A217F0
:1028A000B30740F42A1B3B0B318320830E942A1478
:1028B00080E005C01182108281E001C081E00F90AC
:1028C0000FBEDF91CF91089581E080934F07089567
:1028D00080914607909147070895E0914607F0914F
:1028E000470784859585E0914607F0914707A091B9
:1028F0004607B091470756964C9124E030E0241BE0
:1029000031093587248708950F931F93CF93C82FDC
:10291000CB010FB6F8940F92E0914607F09147076C
:1029200041A152A163A174A1452B462B472B69F409
:10293000E0914607F091470721E025A3009729F091
:1029400061E00E945F100E949B170F900FBE0FB6B0
:10295000F8940F92E0914607F091470761A172A1A8
:1029600083A194A16115710581059105C9F0CC235E
:1029700049F0E0914607F091470711A212A213A275
:1029800014A20EC0E0914607F09147078B019C010D
:10299000015011092109310901A312A323A334A372
:1029A000E0914607F091470715A20F900FBECF9117
:1029B0001F910F9108954F925F926F927F928F9225
:1029C0009F92AF92BF92EF92FF920F931F93490194
:1029D0005A010FB6F8940F92E0914607F09147071D
:1029E00025A1223029F1E0914607F091470741A047
:1029F00052A063A074A0DC01CB0180959095A095B6
:102A0000B09584219521A621B72181A392A3A3A3E8
:102A1000B4A3E0914607F091470781E085A3E11454
:102A2000F10431F061E0C7010E945F100E949B1722
:102A30000F900FBE0FB6F8940F920115110569F0B3
:102A4000E0914607F091470781A192A1A3A1B4A10B
:102A5000F80180839183A283B383E0914607F091CC
:102A6000470785A18230B1F4E0914607F09147070E
:102A700081A192A1A3A1B4A180949094A094B094B8
:102A800088229922AA22BB2281A292A2A3A2B4A246
:102A900081E001C080E0E0914607F091470715A270
:102AA0000F900FBE1F910F91FF90EF90BF90AF90CE
:102AB0009F908F907F906F905F904F900895EF92CE
:102AC000FF920F931F93CF93DF93FC010FB6F894FF
:102AD0000F920115110549F081A192A1A3A1B4A102
:102AE000E80188839983AA83BB8385A192E095A39B
:102AF00022303105D1F020F42130310541F031C0D0
:102B00002330310501F12430310519F12AC001A12A
:102B100012A123A134A1402B512B622B732B41A373
:102B200052A363A374A311E01FC041A152A163A1EA
:102B300074A14F5F5F4F6F4F7F4F41A352A363A3B9
:102B400074A311E011C041A352A363A374A311E0C5
:102B50000BC0823041F041A352A363A374A311E0E0
:102B600003C011E001C010E0813041F5EF017F01A9
:102B700082E0E80EF11CC7010E94000D8E89909141
:102B80005207981710F48093520790E09C01220F8F
:102B9000331F220F331F220F331F820F931FB701E2
:102BA0008158984F0E94AE0C9E89E0914607F091A3
:102BB00047078689891710F40E949B170F900FBE54
:102BC000812FDF91CF911F910F91FF90EF9008958A
:102BD000CF92DF92EF92FF920F931F93CF93DF93E9
:102BE000FC010115110549F081A192A1A3A1B4A195
:102BF000E80188839983AA83BB8385A192E095A38A
:102C000022303105D1F020F42130310541F031C0BE
:102C10002330310501F12430310519F12AC001A119
:102C200012A123A134A1402B512B622B732B41A362
:102C300052A363A374A311E01FC041A152A163A1D9
:102C400074A14F5F5F4F6F4F7F4F41A352A363A3A8
:102C500074A311E011C041A352A363A374A311E0B4
:102C60000BC0823041F041A352A363A374A311E0CF
:102C700003C011E001C010E08130D9F5EF0180916F
:102C8000480781111EC06F01E2E0CE0ED11CC601C3
:102C90000E94000D8E8990915207981710F480932E
:102CA000520790E09C01220F331F220F331F220F87
:102CB000331F820F931FB6018158984F0E94AE0CAC
:102CC00007C0BF01645F7F4F80E697E00E94AE0CB3
:102CD0009E89E0914607F09147078689891748F455
:102CE000E114F10419F081E0E701888381E0809329
:102CF0004F07812FDF91CF911F910F91FF90EF90A0
:102D0000DF90CF900895EF92FF920F931F93CF9390
:102D1000DF93FC0125A182E085A381A192A1A3A15B
:102D2000B4A10196A11DB11D81A392A3A3A3B4A335
:102D30002130E1F58B01EF018091480781111EC020
:102D40007F0182E0E80EF11CC7010E94000D8E8910
:102D500090915207981710F48093520790E09C01CD
:102D6000220F331F220F331F220F331F820F931F97
:102D7000B7018158984F0E94AE0C07C0BF01645F35
:102D80007F4F80E697E00E94AE0C9E89E091460757
:102D9000F09147078689891748F40115110519F044
:102DA00081E0F801808381E080934F07DF91CF912C
:102DB0001F910F91FF90EF900895009721F480915B
:102DC0004607909147070FB6F8940F92FC0125A192
:102DD000223019F415A281E001C080E00F900FBEEF
:102DE0000895109289008CE7809388008BE080938F
:102DF0008100EFE6F0E0808182608083089531E118
:102E0000FC013083319722E220833197A3E3A08332
:102E1000319760833197708331971082319760E8E2
:102E2000608331971082319762E06083319763E06D
:102E30006083319764E06083319765E06083319708
:102E400066E06083319767E06083319768E0608374
:102E5000319769E06083319760E160833197308317
:102E6000319732E13083319733E13083319734E168
:102E70003083319735E13083319736E130833197B4
:102E800037E13083319738E13083319739E130834E
:102E9000319730E23083319731E2308331972083AC
:102EA000319723E2208331974083319750833197C4
:102EB00026E22083319727E22083319728E220837E
:102EC000319729E22083319720E32083319721E352
:102ED0002083869708950E94F116A0914607B0912D
:102EE0004707CD91CDBFDD91DEBFFF91EF91DF911F
:102EF000CF91BF91AF919F918F917F916F915F9192
:102F00004F913F912F911F910F91FF90EF90DF9084
:102F1000CF90BF90AF909F908F907F906F905F9079
:102F20004F903F902F901F900F900FBE0F900895DD
:102F300081E0089508950F920FB6F8940F921F92B2
:102F400011242F923F924F925F926F927F928F92B5
:102F50009F92AF92BF92CF92DF92EF92FF920F9328
:102F60001F932F933F934F935F936F937F938F9311
:102F70009F93AF93BF93CF93DF93EF93FF93A09172
:102F80004607B09147070DB60D920EB60D920E94FE
:102F90001B13A0914607B0914707CD91CDBFDD919E
:102FA000DEBFFF91EF91DF91CF91BF91AF919F91E4
:102FB0008F917F916F915F914F913F912F911F91D1
:102FC0000F91FF90EF90DF90CF90BF90AF909F90C8
:102FD0008F907F906F905F904F903F902F901F90B9
:102FE0000F900FBE0F9008950F920FB6F8940F92A6
:102FF0001F9211242F923F924F925F926F927F9275
:103000008F929F92AF92BF92CF92DF92EF92FF92F8
:103010000F931F932F933F934F935F936F937F93E0
:103020008F939F93AF93BF93CF93DF93EF93FF93D0
:10303000A0914607B09147070DB60D920EB60D92BE
:103040000E94981181110E941B13A0914607B09114
:103050004707CD91CDBFDD91DEBFFF91EF91DF91AD
:10306000CF91BF91AF919F918F917F916F915F9120
:103070004F913F912F911F910F91FF90EF90DF9013
:10308000CF90BF90AF909F908F907F906F905F9008
:103090004F903F902F901F900F900FBE0F9008956C
:1030A0000E94F4171895FB01DC0102C001900D92FB
:0C30B00041505040D8F70895F894FFCF2D
:1030BC004C6564517561727465725461736B004C2C
:1030CC00656448616C665461736B004C6564536550
:0C30DC00635461736B0049444C450000D4
:00000001FF
