:100000000C9446000C9465000C9465000C946500FB
:100010000C9465000C9465000C9465000C946500CC
:100020000C9465000C9465000C9465000C946500BC
:100030000C9465000C9465000C9465000C946500AC
:100040000C9465000C9465000C9465000C9496006B
:100050000C9465000C9465000C9465000C9465008C
:100060000C9465000C9465000C9465000C9465007C
:100070000C9465000C9465000C9465000C9465006C
:100080000C9465000C9465000C94650011241FBE4F
:10009000CFEFD0E4DEBFCDBF11E0A0E0B1E0E8E6F5
:1000A000F3E000E00BBF02C007900D92A031B10752
:1000B000D9F721E0A0E1B1E001C01D92A331B20760
:1000C000E1F70E9429010C94B2010C940000CF9337
:1000D000C82F8A3019F48DE00E9467008091C0001B
:1000E00085FFFCCFC093C60080E090E0CF910895DB
:1000F00080EB84B981E58CBD8FE485B98FB78068CA
:100100008FBF08958EBD85B185B90DB407FEFDCFB3
:1001100085B1806185B9089580E484B98FEB85B994
:1001200080EC8CBD8FB780688FBF08951F920F92AF
:100130000FB60F9211248F939F938EB58093120167
:10014000803419F49FEF90930001803211F41092E3
:1001500000019F918F910F900FBE0F901F901895E7
:1001600040E050E00CC000002F5F3F4F02C020E095
:1001700030E0273063E03607B4F34F5F5F4F481736
:100180005907ACF308959BB19F7B9BB988B98BB19C
:1001900080688BB900008BB18F778BB982E090E0DB
:1001A0000E94B000089581E00E94C300089581314B
:1001B00020F481580E94C300089581550E94C30015
:1001C000089584E690E00E94B00088E30E94C30096
:1001D00086E00E94C3008FE00E94C30081E00E947D
:1001E000C3008AE090E00E94B00008959BB1906443
:1001F0009BB988B98BB180688BB900008BB18F77C0
:100200008BB981E090E00E94B0000895EF92FF92D8
:100210000F931F93CF93DF93182FEB010E94D3000E
:100220000EC001E0010F812F0E94D7007E018FEFE9
:10023000E81AF80A88810E94F600102FE7018881E9
:100240008111EFCFDF91CF911F910F91FF90EF9030
:1002500008958FEF8AB91BB887B918B80E948C002F
:100260000E94E1000E94D30080910001882329F0C0
:10027000809112018093100104C08091120180933B
:1002800011012091100119E2219F012D11240295E5
:100290000F70CDEC2C9F912D1124969596959695E7
:1002A0009C9FD12D1124D695D695D695DD0F8D2FF7
:1002B000880F880FD80F892F8D1BD82F990F892F62
:1002C000880F880F980FF22EF91A81E00E94D7004C
:1002D00080E3800F0E94F60082E00E94D70080E356
:1002E0008D0F0E94F60083E00E94D70080E38F0DFF
:1002F0000E94F60020911101219F112D11241295C9
:100300001F702C9F812D11248695869586958C9F34
:10031000C12D1124C695C695C695CC0F9C2F990F5B
:10032000990FC90F982F9C1BC92F880F982F990FD1
:10033000990F890FD22FD81B81E10E94D70080E34B
:10034000810F0E94F60082E10E94D70080E38C0FAB
:100350000E94F60083E10E94D70080E38D0F0E9487
:08036000F60082CFF894FFCFF4
:10036800FF0000000200000000670000000000001D
:00000001FF
