:100000000C9446000C9465000C9465000C946500FB
:100010000C9465000C9465000C9465000C946500CC
:100020000C9465000C9465000C9465000C946500BC
:100030000C9465000C94C0170C9465000C9465003A
:100040000C9465000C9465000C9465000C9465009C
:100050000C9465000C9465000C9465000C9465008C
:100060000C9465000C9465000C9465000C9465007C
:100070000C9465000C9465000C9465000C9465006C
:100080000C9465000C9465000C94650011241FBE4F
:10009000CFEFD0E4DEBFCDBF11E0A0E0B1E0ECE9EE
:1000A000FFE200E00BBF02C007900D92A231B10742
:1000B000D9F727E0A2E1B1E001C01D92AB38B20749
:1000C000E1F70E94B2000C94CC170C94000010923F
:1000D0008A071092890708958091890790918A076D
:1000E000009719F0019791F00895809100018BB964
:1000F000809100018695809300018130A9F481E010
:1001000090E090938A078093890708958091000179
:100110008BB980910001880F80930001803821F411
:1001200010928A071092890708950E9467000E9422
:100130006C008AEF90E00E947512F9CFEF92FF9267
:100140000F93E12CF12C082F20E030E045E550E042
:1001500061E071E085E990E00E9413100F91FF903B
:10016000EF90089511B88FEF82B98AB981E00E94AB
:100170009E000E94B81080E090E00895FC01448148
:10018000558122813381240F351F80819181B901EE
:10019000681B790BCB016417750710F0841B950B56
:1001A00008950F93FC018FE0DF011D928A95E9F716
:1001B00075876487558344833783268306870F9129
:1001C0000895AF92BF92CF92DF92EF92FF920F937A
:1001D0001F93CF93DF936C015B017A01FC01C28115
:1001E000D381048115810C1B1D0B4017510708F4A6
:1001F0008A01F60184859585A801B5018C0F9D1FA4
:100200000E94C3170E151F0558F4A701401B510B80
:10021000B501600F711FF601848595850E94C31793
:10022000CE018E0D9F1DF601248135818217930723
:1002300010F0821B930BF60193838283C701DF9139
:10024000CF911F910F91FF90EF90DF90CF90BF90D3
:10025000AF900895CF92DF92EF92FF920F931F938A
:10026000CF93DF9300D0CDB7DEB77C016B015A830B
:10027000498321153105D1F0FC01868580FD09C037
:10028000CA012417350708F4C9019A83898381E0DC
:1002900010C02017310760F042E050E0BE016F5FF0
:1002A0007F4FC7010E94E10081E003C080E001C0F0
:1002B00080E0882339F049815A81B601C7010E9444
:1002C000E10002C080E090E00F900F90DF91CF91AD
:1002D0001F910F91FF90EF90DF90CF900895AF9214
:1002E000BF92CF92DF92EF92FF920F931F93CF9323
:1002F000DF93C42FD52F2C173D0708F4E901209771
:1003000091F1FC01E080F180248135812E193F09B3
:100310005E012C173D0708F459016B018C01FC01AB
:10032000648575856E0D7F1DA501C6010E94C317EA
:10033000AC16BD0658F4AE014A195B09F801648594
:100340007585C6018A0D9B1D0E94C317EC0EFD1E0C
:10035000F80184819581E816F90610F0E81AF90A87
:10036000F801F182E082CE01DF91CF911F910F91D0
:10037000FF90EF90DF90CF90BF90AF9008956F9275
:100380007F928F929F92AF92BF92CF92DF92EF9225
:10039000FF920F931F93CF93DF9300D0CDB7DEB7BB
:1003A0006C014B015A01790101151105B9F0FC01ED
:1003B00060807180A801BE016F5F7F4F0E946F0156
:1003C00089819A81E01AF10AA816B90630F4F6017B
:1003D00071826082A12CB12C01C05C019701A50142
:1003E000B401C6010E946F010F900F90DF91CF9171
:1003F0001F910F91FF90EF90DF90CF90BF90AF9043
:100400009F908F907F906F900895CF92DF92EF92A0
:10041000FF920F93CF93DF937B01413011F401E002
:1004200001C000E0E114F10419F4EE24E394F12C8E
:100430006C012FEFC21AD20A40960E94970CEC0171
:10044000009739F09701A601BC01615F7F4F0E94C0
:10045000D100CE01DF91CF910F91FF90EF90DF900F
:10046000CF900895FC01268521FD03C00E94CC0C8D
:1004700008952FE0FC0111922A95E9F708950F9352
:100480000FB6F8940F92FC0120853185232B79F467
:1004900022853385232B69F4268137814481558158
:1004A0006485758506850E94D10081E003C080E0E7
:1004B00001C080E00F900FBE0F9108956115710586
:1004C00011F461E070E0FC012481358126173707C3
:1004D00020F07783668381E0089580E00895FC0131
:1004E0002481358180819181820F931F42815381C4
:1004F000841B950B01978217930710F0821B930BB7
:1005000008950E94BE0008954F925F926F927F926D
:100510008F929F92AF92BF92CF92DF92EF92FF9213
:100520000F931F93CF93DF9300D000D01F92CDB7CE
:10053000DEB76C012B013A013D832C83FC018685DB
:1005400080FF05C04A01F2E08F0E911C01C04A01F4
:100550008C819D81892BA9F1CE0101960E948A137D
:100560000FB6F8940F92C6010E946F025C018815C5
:10057000990520F580E090E00E944D160E94D81366
:10058000F601938782870F900FBEEC80FD8000E01C
:1005900010E020E030E0A90160E070E0CB010E94B3
:1005A0004B14F60113861286BE016C5F7F4FCE019D
:1005B00001960E94A513882399F205C00F900FBEE3
:1005C00002C0A12CB12CA114B10421F4C6010E94D7
:1005D0006F025C0184019501A301B201C6010E9472
:1005E0002A017C01892B01F1C6010E94BE00F6019F
:1005F0002681378182179307B8F00E94E810F60130
:1006000080859185892B71F08085918500E010E0CF
:1006100020E030E040E050E0BA010E94CF14F60143
:10062000118610860E94C211C7010F900F900F9083
:100630000F900F90DF91CF911F910F91FF90EF904E
:10064000DF90CF90BF90AF909F908F907F906F90F2
:100650005F904F900895AF92BF92CF92DF92EF924A
:10066000FF920F931F93CF93DF93EC015B016A011D
:1006700079018E8580FF04C08A010E5F1F4F01C083
:100680008A01CE010E946F029C01A601B501CE0134
:100690000E942A016C01892BC9F0CE010E94BE0084
:1006A0002E813F818217930788F088859985892B51
:1006B00069F08885998500E010E020E030E040E0B6
:1006C00050E0BA010E94581519861886C601DF91BC
:1006D000CF911F910F91FF90EF90DF90CF90BF903F
:1006E000AF9008958F929F92AF92BF92CF92DF9278
:1006F000EF92FF920F931F93CF93DF93EC015B0177
:100700004A0189018E8580FF05C06894CC24C1F818
:10071000D12C02C0C12CD12C0115110549F10FB605
:10072000F8940F92CE010E94BE007C01C816D90633
:1007300040F080E090E00E944D160E94D813998707
:1007400088870F900FBECE14DF04B0F0780100E070
:1007500010E020E030E0A90160E070E0CB010E94F1
:100760004B1419861886CE010E94BE007C0104C07D
:10077000CE010E94BE007C01CE14DF0400F586018C
:100780009701A401B501CE010E94BF017C01892B14
:10079000C1F00E94E8108A859B85892B69F08A85C3
:1007A0009B8500E010E020E030E040E050E0BA013E
:1007B0000E94CF141B861A860E94C21102C0E12C2F
:1007C000F12CC701DF91CF911F910F91FF90EF9016
:1007D000DF90CF90BF90AF909F908F900895EF9251
:1007E000FF920F931F93CF93DF9300D0CDB7DEB767
:1007F000FC01268520FF18C08C010E94BE008330BA
:100800009105A8F0F801E080F1809C0142E050E001
:10081000BE016F5F7F4FC8010E946F0189819A817D
:10082000F801F182E08205C080E090E002C080E043
:1008300090E00F900F90DF91CF911F910F91FF905B
:10084000EF900895AF92BF92CF92DF92EF92FF9216
:100850000F931F93CF93DF93EC016B015A01790142
:100860008E8580FF03C002E010E002C000E010E0CF
:10087000CE010E94BE0008171907D8F49C01A501FB
:10088000B601CE010E94BF016C01892BA1F08A85BF
:100890009B85892B81F08A859B8500E010E020E014
:1008A00030E040E050E0BA010E9458151B861A86DD
:1008B00002C0C12CD12CC601DF91CF911F910F91A5
:1008C000FF90EF90DF90CF90BF90AF900895FC0124
:1008D00020813181828193812817390711F481E0C9
:1008E000089580E00895CF93DF93FC01268520FFD3
:1008F00003C0C2E0D0E002C0C0E0D0E00E946F02BE
:10090000C817D90710F081E001C080E0DF91CF91D6
:100910000895EF92FF920F931F93CF93DF93FC0103
:1009200020853185232B89F07B01EC018085918521
:1009300000E010E020E030E040E050E0BA010E942A
:1009400058151986188681E001C080E0DF91CF91AB
:100950001F910F91FF90EF900895EF92FF920F93E8
:100960001F93CF93DF93FC0122853385232B89F0DE
:100970007B01EC018285938500E010E020E030E00F
:1009800040E050E0BA010E9458151B861A8681E0AB
:1009900001C080E0DF91CF911F910F91FF90EF9008
:1009A00008950FB6F8940F92FC01828D811102C058
:1009B00081E001C080E00F900FBE08950FB6F8945B
:1009C0000F92FC01228D838D281302C081E001C0AB
:1009D00080E00F900FBE08950F931F93CF93DF9386
:1009E000EC01042F1A8D4C8D4423B9F1011116C06E
:1009F00050E08A819B810E94C3172C8D8A819B8144
:100A0000820F911D9B838A832C813D8182179307DE
:100A100020F1888199819B838A831FC050E08E8159
:100A20009F810E94C3178C8D90E0919581959109CB
:100A30002E813F81280F391F3F832E8348815981A2
:100A40002417350730F42C813D81820F931F9F833B
:100A50008E83023011F4111111501F5F1A8F80E044
:100A6000DF91CF911F910F910895FC01448D442394
:100A7000A9F050E026813781240F351F3783268364
:100A8000848195812817390720F08081918197838F
:100A90008683CB01668177810E94C31708951F93D7
:100AA000CF93DF93EC010FB6F8940F921E8D0BC01D
:100AB0008989882351F0CE0141960E940A13811141
:100AC0000E94D413115011169CF38FEF8E8F0F904C
:100AD0000FBE0FB6F8940F921D8D0BC0888588232A
:100AE00051F0CE0108960E940A1381110E94D4137E
:100AF000115011169CF38FEF8D8F0F900FBEDF9169
:100B0000CF911F910895CF93DF93EC010FB6F89426
:100B10000F92E881F9818B8D2C8D90E030E0829FDF
:100B2000A001839F500D929F500D11244E0F5F1F07
:100B30005D834C831A8EFB83EA830197289FA00173
:100B4000299F500D389F500D1124CF01840F951F00
:100B50009F838E838FEF8D8F8E8F61110CC0888560
:100B6000882389F0CE0108960E940A13882359F041
:100B70000E940B1708C0CE0108960E940C0CCE01F3
:100B800041960E940C0C0F900FBE81E0DF91CF9137
:100B900008950F931F93F801611103C0118300831F
:100BA00002C051834083838F648F61E0CF010E9434
:100BB00083051F910F910895DF92EF92FF920F939B
:100BC0001F93CF93DF93E82EF62ED42E662321F0C9
:100BD000869FC001112402C080E090E04F960E94E1
:100BE000970CEC01009749F08C012D2DAC01415E72
:100BF0005F4F6F2D8E2D0E94C905CE01DF91CF91E1
:100C00001F910F91FF90EF90DF900895CF92DF92A8
:100C1000EF92FF920F931F93CF93DF9300D000D0FA
:100C20001F92CDB7DEB78C017B015D834C83C22E52
:100C3000D12C0FB6F8940F92F801928D838D9817EE
:100C400018F0F2E0CF1219C04C2DB701C8010E9474
:100C5000EC04F8019189992349F0C80141960E945A
:100C60000A13882331F00E940B1703C081110E94E0
:100C70000B170F900FBE81E04DC08C819D81892B99
:100C800021F40F900FBE80E045C0D11006C0CE0108
:100C900001960E949A13DD24D3940F900FBE0E94F8
:100CA000E8100FB6F8940F92F801858D8F3F09F484
:100CB000158EF801868D8F3F09F4168E0F900FBEAA
:100CC000BE016C5F7F4FCE0101960E94A51381117A
:100CD0001BC0C8010E94DE04882381F06C817D81E5
:100CE000C80108960E94DF12C8010E944F050E94A9
:100CF000C21181119ECF0E940B179BCFC8010E9489
:100D00004F050E94C21195CFC8010E944F050E9455
:100D1000C21180E00F900F900F900F900F90DF9115
:100D2000CF911F910F91FF90EF90DF90CF9008959A
:100D3000EF92FF920F931F93CF93DF938A01FC01F1
:100D4000528D338D531710F02230F1F4422F780179
:100D5000EC011E8D0E94EC041F3F81F489898823D9
:100D6000A9F0CE0141960E940A13882389F0E1146C
:100D7000F10481F081E0F70180830DC0FF24F3943A
:100D8000F10EFE8E81E007C080E005C081E003C067
:100D900081E001C081E0DF91CF911F910F91FF9021
:100DA000EF900895CF93DF93FC01828D938D891787
:100DB000C0F4968D8F5F828F9F3F79F4818988235D
:100DC00091F0EB01CF0141960E940A13882369F04C
:100DD000209769F081E088830BC09F5F968F81E048
:100DE00007C080E005C081E003C081E001C081E070
:100DF000DF91CF910895CF92DF92EF92FF920F9300
:100E00001F93CF93DF9300D000D01F92CDB7DEB7F2
:100E10008C016B015D834C83E12C0FB6F8940F922B
:100E2000F801F28CFF20A9F0B601C8010E94350537
:100E3000FA94F801F28E8085882339F0C80108966B
:100E40000E940A1381110E940B170F900FBE81E0C0
:100E500053C08C819D81892B21F40F900FBE80E0BF
:100E60004BC0E11006C0CE0101960E949A13EE24F9
:100E7000E3940F900FBE0E94E8100FB6F8940F9203
:100E8000F801858D8F3F09F4158EF801868D8F3F0F
:100E900009F4168E0F900FBEBE016C5F7F4FCE011E
:100EA00001960E94A51381111BC0C8010E94D104A4
:100EB000882381F06C817D81C80141960E94DF12F8
:100EC000C8010E944F050E94C2118111A6CF0E9445
:100ED0000B17A3CFC8010E944F050E94C2119DCFDE
:100EE000C8010E944F050E94C211C8010E94D1048E
:100EF000882309F492CF80E00F900F900F900F900D
:100F00000F90DF91CF911F910F91FF90EF90DF90A5
:100F1000CF900895FF920F931F93CF93DF9300D04C
:100F200000D01F92CDB7DEB78C017D836C83F12C8E
:100F30000FB6F8940F92F801828D882381F08150CA
:100F4000828F8085882339F0C80108960E940A1391
:100F500081110E940B170F900FBE81E053C08C814E
:100F60009D81892B21F40F900FBE80E04BC0F110C2
:100F700006C0CE0101960E949A13FF24F3940F90AD
:100F80000FBE0E94E8100FB6F8940F92F801858DFD
:100F90008F3F09F4158EF801868D8F3F09F4168E68
:100FA0000F900FBEBE016C5F7F4FCE0101960E9475
:100FB000A51381111BC0C8010E94D104882381F0B0
:100FC0006C817D81C80141960E94DF12C8010E9498
:100FD0004F050E94C2118111ABCF0E940B17A8CF01
:100FE000C8010E944F050E94C211A2CFC8010E94F1
:100FF0004F050E94C211C8010E94D104882309F440
:1010000097CF80E00F900F900F900F900F90DF918F
:10101000CF911F910F91FF900895CF92DF92EF92A1
:10102000FF920F931F93CF93DF9300D000D01F92B6
:10103000CDB7DEB78C017B015D834C83D12C0FB61D
:10104000F8940F92F801828D8823B9F0C680D7807A
:10105000B701C8010E943505F801D782C68281898F
:10106000882339F0C80141960E940A1381110E9419
:101070000B170F900FBE81E053C08C819D81892B8F
:1010800021F40F900FBE80E04BC0D11006C0CE01FE
:1010900001960E949A13DD24D3940F900FBE0E94F4
:1010A000E8100FB6F8940F92F801858D8F3F09F480
:1010B000158EF801868D8F3F09F4168E0F900FBEA6
:1010C000BE016C5F7F4FCE0101960E94A513811176
:1010D0001BC0C8010E94D104882381F06C817D81EE
:1010E000C80141960E94DF12C8010E944F050E946C
:1010F000C2118111A4CF0E940B17A1CFC8010E9479
:101100004F050E94C2119BCFC8010E944F050E944B
:10111000C211C8010E94D104882309F490CF80E055
:101120000F900F900F900F900F90DF91CF911F9124
:101130000F91FF90EF90DF90CF900895EF92FF9284
:101140000F931F93CF93DF93FC01C28DCC23F9F053
:101150007A018C01D58D0E943505C150F801C28FEE
:10116000DF3F81F480858823A1F0C80108960E94A2
:101170000A13882381F0E114F10479F081E0F7018A
:1011800080830CC0DF5FF801D58F81E007C080E06D
:1011900005C081E003C081E001C081E0DF91CF9113
:1011A0001F910F91FF90EF9008950F931F93CF938E
:1011B000DF93FC01228D222349F0EC010681178187
:1011C0000E9435051F830E8381E001C080E0DF911E
:1011D000CF911F910F9108950FB6F8940F92FC01D3
:1011E000828D0F900FBE0895FC010FB6F8940F92F8
:1011F000938D828D981B892F0F900FBE0895FC014F
:10120000828D08950E94CC0C0895FC01828D81117D
:1012100002C081E0089580E00895FC01228D838D55
:10122000281302C081E0089580E00895EF92FF92B4
:101230000F931F93CF93DF93EC017B018A01F89406
:101240000E94DE04882379F00115110549F0BE01E2
:10125000685F7F4FC8010E944B0B78948CEF1FC0D2
:10126000789480E01CC07894F8949A8D8B8D9817B0
:1012700080F440E0B701CE010E94EC048989882304
:1012800051F0CE0141960E94E60B811106C081E02B
:1012900005C080E003C081E001C08BEF7894DF914E
:1012A000CF911F910F91FF90EF900895CF93DF930F
:1012B000EC019B01F8949A8D91110FC041155105D5
:1012C00049F0BE016F5E7F4FCA010E944B0B7894BC
:1012D0008CEF32C0789480E02FC07894F8948A8D97
:1012E000882321F14C8D50E08E819F81840F951FC2
:1012F0009F838E836C817D818617970720F088817C
:1013000099819F838E838A8D81508A8F6E817F81A0
:10131000C9010E94C3178885882351F0CE01089621
:101320000E94E60B811106C081E005C080E003C089
:1013300081E001C08BEF7894DF91CF9108950F93F6
:101340001F93CF93FC01328D238D321798F4C42F55
:101350008C0140E00E94EC04C1110EC0F8018189AB
:10136000882361F0C80141960E94E60B882341F072
:1013700081E007C0842F05C08C2F03C08C2F01C0D3
:101380008C2FCF911F910F9108950F931F93CF939F
:10139000DF93FC01828D882369F1248D30E0A681E2
:1013A000B781A20FB31FB783A68384819581A81745
:1013B000B90720F080819181978386838A01CB01D0
:1013C000EF01428D4150428F66817781A9010E94D1
:1013D000C317F801808181110FC08885882371F0BF
:1013E000CE0108960E94E60B882351F081E0F801B7
:1013F000808307C080E005C081E003C081E001C0B8
:1014000081E0DF91CF911F910F910895CF93C0E0BC
:1014100010C08C2F90E09C01220F331F220F331F2E
:10142000220F331F820F931F865C9E4F0E940C0C6D
:10143000CF5FC23070F381E391E00E940C0C88E230
:1014400091E00E940C0C8BE191E00E940C0C81E376
:1014500091E0909327018093260188E291E0909398
:10146000250180932401CF9108950F931F93CF936B
:10147000DF9328C0F894E0912001F0912101C6810A
:10148000D781CE010C960E94700C78948E010E5F6D
:101490001F4FC8010E94700C8E8990911A019817F5
:1014A00010F480931A0190E09C01220F331F220F49
:1014B000331F220F331F820F931FB801865C9E4F8C
:1014C0000E941E0C80911B018111D4CFDF91CF911E
:1014D0001F910F9108950F931F93CF93DF930E9455
:1014E000EE102091160130911701821B930B9093FF
:1014F0001501809314015EC02091180130911901EB
:101500002F5F3F4F3093190120931801019790935B
:10151000150180931401232B09F045C08091260109
:1015200090912701209124013091250130932701CA
:1015300020932601909325018093240134C00580D7
:10154000F681E02DC681D7812A813B8180911801E7
:10155000909119018217930768F1F8948E010E5F3C
:101560001F4FC8010E94700C8C899D89892B21F026
:10157000CE010C960E94700C78948E8990911A017D
:10158000981710F480931A0190E09C01220F331FEA
:10159000220F331F220F331F820F931FB801865C67
:1015A0009E4F0E941E0CE0912601F0912701808140
:1015B0008111C5CF8091140190911501009709F018
:1015C0009BCF8091180190911901909317018093FE
:1015D0001601DF91CF911F910F910895CF92DF9265
:1015E000FF920F931F93CF93DF936C01F62E142F6E
:1015F0008AE190E00E94970CEC01892B09F442C02B
:101600008091120190911301892B31F4D093130131
:10161000C09312010E94060A81E08F1510F4FF2486
:10162000F394198E188EFE8A1F8BFE01C192D192FF
:101630008F01CF010E941A0CCE010C960E941A0C49
:10164000D987C887DB8BCA8B82E090E08F1991091C
:101650009D878C878E8990911A01981710F480933A
:101660001A0190E09C01220F331F220F331F220F1B
:10167000331F820F931FB801865C9E4F0E941E0C81
:1016800081E001C08FEFDF91CF911F910F91FF900B
:10169000DF90CF9008950F931F93CF93DF938B012B
:1016A000C0911801D0911901C80FD91F8091120162
:1016B0009091130102960E94700CE0911201F0913A
:1016C0001301D383C2838091180190911901C81727
:1016D000D90750F4BF016E5F7F4F80912401909134
:1016E00025010E943F0C09C0BF016E5F7F4F8091B2
:1016F0002601909127010E943F0C0115110549F028
:101700006091120170911301645F7F4FC8010E94C4
:101710003F0CDF91CF911F910F9108950E94350AE0
:101720000E946B0A06C0882309F44FC08150809341
:101730001A0180911A01282F30E0F901EE0FFF1FE6
:10174000EE0FFF1FEE0FFF1FE20FF31FE65CFE4FD1
:101750009081992341F3C901880F991F880F991F20
:10176000880F991F820F931FDF010180F281E02D06
:101770000280F381E02D1296FC93EE931197835C27
:101780009E4FE817F90729F482819381FD01928326
:101790008183F901EE0FFF1FEE0FFF1FEE0FFF1FFA
:1017A0002E0F3F1FF901E65CFE4F0180F281E02D14
:1017B000868197819093130180931201DC01ED9152
:1017C000FC91119757966C91099508950F931F936B
:1017D000CF93DF93DC011596ED91FC911697C681AE
:1017E000D7818E01045F1F4FC8010E94700CB801A1
:1017F0008BE191E00E941E0C9E89E0911201F09114
:1018000013018689981710F081E001C080E0DF9114
:10181000CF911F910F910895FC01039692838183CC
:101820002FEF3FEF348323839683858390878783CD
:1018300010820895FC01118610860895CF93DF93DE
:101840009C01FB01DC011196CD91DC911297D383B1
:10185000C2838C819D81958384838C819D81DC01F1
:1018600013967C936E9312977D836C8331872087C8
:10187000F90180818F5F8083DF91CF910895CF93AD
:10188000DF93EB01488159814F3F2FEF520721F43D
:10189000FC01A781B0850DC0DC01139601C0DF01FA
:1018A0001296ED91FC9113972081318142175307D5
:1018B000B0F71296ED91FC911397FB83EA83D583E1
:1018C000C483BD83AC831396DC93CE931297998720
:1018D0008887FC0120812F5F2083DF91CF910895BD
:1018E000CF93DF93FC01A085B185C281D381848130
:1018F00095819D838C83C481D581828193819B83D3
:101900008A8311968D919C911297E817F90731F40B
:101910008481958112969C938E93119711861086DF
:101920008C9181508C938C91DF91CF910895CF93BE
:10193000DF93EC010E94E81080914C0190914D01E1
:10194000892B31F481E591E090934D0180934C0116
:1019500020914E0130914F01C9018C0F9D1F8B3D8D
:1019600045E0940770F42817390770F4C0914C01D2
:10197000D0914D01C20FD31F90934F0180934E0120
:1019800005C0C0E0D0E002C0C0E0D0E00E94C211BB
:10199000CE01DF91CF910895089510924F011092DA
:1019A0004E01089520914E0130914F018BED95E04D
:1019B000821B930B0895411106C068237923672B7E
:1019C00049F480E00895862397236817790721F06A
:1019D00080E0089581E0089581E00895CF93DF933A
:1019E0008BE090E00E94970CEC01009731F0FC0135
:1019F00011921192CF010E940C0CCE01DF91CF9178
:101A00000895AF92BF92CF92DF92EF92FF920F9321
:101A10001F93CF93DF937C015B01C42ED22E0E94D3
:101A2000E810F701C081D1814D2DB501CE010E9492
:101A3000DB0C882369F0CC2009F1C50180959095D5
:101A40008C239D23F7019183808300E010E018C070
:101A500001151105A9F0C11003C060E070E002C0DB
:101A600060E071E0D11074606A297B29A801C70188
:101A700002960E94F112C0E0D0E002C000E010E047
:101A80000E94C211012B19F1811102C00E940B1793
:101A90000E94DD13EC0191FD19C00FB6F8940F926E
:101AA000F701C081D1814D2DB501CE010E94DB0C23
:101AB000882351F0CC2041F0B501609570956C23DE
:101AC0007D23F701718360830F900FBEDD27CE0168
:101AD000DF91CF911F910F91FF90EF90DF90CF900A
:101AE000BF90AF900895FC010FB6F8940F928081DB
:101AF00091816095709568237923718360830F903D
:101B00000FBE0895FC01808191810895CF92DF92EC
:101B1000EF92FF920F931F93CF93DF937C018B0182
:101B2000EC0125960E94E810D7011796ED91FC91E3
:101B300018978D919C911197082B192B0D931C933D
:101B400000E010E02DC0C280D380808191819C0193
:101B5000332792FD09C0D7014D915C914223532355
:101B6000452B61F440E00DC0D7014D915C914223BB
:101B700053232417350721F040E003C041E001C0A2
:101B800041E0442359F090FF02C0022B132BD701F0
:101B90006D917C917260CF010E945213EC2DFD2D4E
:101BA000EC17FD0781F600951095F7018081918172
:101BB00008231923118300830E94C211D7018D913C
:101BC0009C91DF91CF911F910F91FF90EF90DF904B
:101BD000CF900895AF92BF92CF92DF92EF92FF9293
:101BE0000F931F93CF93DF938C01EB017A0169016F
:101BF0000E94E810F801A080B180BE01C8010E94D7
:101C0000860DCA29DB29CE018E219F21E816F9060F
:101C100069F4F80120813181C70180959095822374
:101C2000932391838083C12CD12C10C0C114D10483
:101C300051F0A601B7017560C80102960E94F11229
:101C4000C0E0D0E003C0F801C081D1810E94C21180
:101C5000CD28F9F0811102C00E940B170E94DD13FC
:101C600091FD15C00FB6F8940F92F8018081918113
:101C7000970128233923E216F30639F4A70140958A
:101C8000509548235923518340830F900FBEEC0198
:101C9000DD27CE01DF91CF911F910F91FF90EF9043
:101CA000DF90CF90BF90AF900895CF93DF93EC017A
:101CB0000E94E81006C060E072E08F8198850E9463
:101CC00052138A818111F7CFCE010E94CC0C0E9461
:101CD000C211DF91CF910895BA010E94860D089537
:101CE000BA010E94730D0895E0915107F0915207D7
:101CF0008081811107C08FEF9FEF9093320780930F
:101D000031070895E0915107F09152070580F6815F
:101D1000E02D0680F781E02D828193819093320738
:101D2000809331070895CF93DF93EC018F89988DCD
:101D30000E94CC0CCE010E94CC0CDF91CF91089573
:101D40006F927F928F929F92AF92BF92CF92DF92CB
:101D5000EF920F931F93CF93DF93CDB7DEB74C0174
:101D6000F5018789908D215031093C01620E731E67
:101D70006115710589F416C0822F90E0FB01E80F10
:101D8000F91F3081D501A80FB91F59963C93808166
:101D9000882329F02F5F01C020E0283068F3F50187
:101DA00010A202C0F501118EF3E0FE1520F40F2EF3
:101DB000F3E0EF2EF02DF501E68AC50102960E94B0
:101DC0001A0CC5010C960E941A0CF501B186A0866A
:101DD00084E090E08E19910995878487B38AA28A5E
:101DE00011A212A213A214A215A2A801B401C30148
:101DF0000E946F16F50191838083C114D10419F0FC
:101E0000F601B182A082DF91CF911F910F91EF90E7
:101E1000DF90CF90BF90AF909F908F907F906F900A
:101E20000895CF93C0E010C08C2F90E09C01220F4A
:101E3000331F220F331F220F331F820F931F8B5923
:101E4000984F0E940C0CCF5FC43070F38CE597E084
:101E50000E940C0C83E597E00E940C0C86E497E04E
:101E60000E940C0C8DE397E00E940C0C8CE597E02F
:101E7000909352078093510783E597E09093500722
:101E800080934F07CF910895CF93DF93EC010FB666
:101E9000F8940F9280913B078F5F80933B0780916E
:101EA0002C0790912D07892B59F4D0932D07C093BF
:101EB0002C0780913B07813099F40E94110F10C0CC
:101EC0008091370781110CC0E0912C07F0912D070C
:101ED00096898E89891720F0D0932D07C0932C07FF
:101EE000809133078F5F809333078E8990913807F5
:101EF000981710F48093380790E09C01220F331F4D
:101F0000220F331F220F331F820F931FBE016E5FFC
:101F10007F4F8B59984F0E941E0C0F900FBE8091DF
:101F20003707882351F0E0912C07F0912D0796890F
:101F30008E89981710F40E940B17DF91CF910895A6
:101F4000CF93DF931CC00FB6F8940F92E091420735
:101F5000F0914307C681D781CE0102960E94700C92
:101F600080913B07815080933B0780913C078150D3
:101F700080933C070F900FBECE010E94930E80917C
:101F80003C078111E0CFDF91CF9108950E94A00F0F
:101F9000809165078230D0F30E940B17F7CF0F9323
:101FA0001F93CF93DF93EC010091390710913A070B
:101FB00080912C0790912D0702960E94700CC00F03
:101FC000D11FE0912C07F0912D07D383C283C01756
:101FD000D10768F460912C0770912D0780914F070D
:101FE000909150076E5F7F4F0E943F0C17C0609129
:101FF0002C0770912D0780915107909152076E5FC9
:102000007F4F0E943F0C8091310790913207C81793
:10201000D90720F4D0933207C0933107DF91CF91D5
:102020001F910F9108952F923F924F925F926F925E
:102030007F928F929F92AF92BF92CF92DF92EF9258
:10204000FF920F931F93CF93DF933C011B015A0123
:102050002901CA010E94970C6C01892B71F086E25C
:1020600090E00E94970CEC01892B19F0D88ECF8A52
:1020700006C0C6010E94CC0C02C0C0E0D0E0209790
:1020800091F0950140E050E0812C912C5E016701B8
:10209000E02E8201B101C3010E94A00ECE010E9478
:1020A000440F81E001C08FEFDF91CF911F910F911D
:1020B000FF90EF90DF90CF90BF90AF909F908F9068
:1020C0007F906F905F904F903F902F9008950F9367
:1020D0001F93CF93DF93EC010FB6F8940F92892BE7
:1020E00021F4C0912C07D0912D078E010E5F1F4F58
:1020F000C8010E94700C8C899D89892B21F0CE012A
:102100000C960E94700C809133078F5F8093330789
:1021100080912C0790912D07C817D90759F4B80161
:102120008DE397E00E941E0C80913C078F5F8093A7
:102130003C070AC080913B07815080933B07CE014A
:102140000E94930E0E94740E0F900FBE809137076D
:10215000882349F080912C0790912D07C817D90743
:1021600011F40E940B17DF91CF911F910F910895E9
:10217000EF92FF920F930F2EFFE2EF2EF7E0FF2E6C
:10218000F02D00E020E030E045E550E06CE071E04B
:1021900086EC9FE00E941310813081F4F8948FEF59
:1021A0009FEF909332078093310781E08093370748
:1021B00010923A07109239070E94DB160F91FF9098
:1021C000EF900895F894109237070E940A17089527
:1021D00080912E078F5F80932E0708950FB6F89495
:1021E0000F928091390790913A070F900FBE089592
:1021F0008091390790913A07089580913B0708959F
:10220000009721F480912C0790912D07499608950D
:10221000DF92EF92FF920F931F93CF93DF93809102
:102220002E07811197C0E0903907F0903A078FEFA1
:10223000E81AF80AF0923A07E0923907E114F1043B
:10224000B9F4809151079091520720914F07309136
:102250005007309352072093510790935007809373
:102260004F07809134078F5F809334070E94740E6C
:102270008091310790913207E816F90628F4D12CA5
:1022800053C0DD24D39401C0D12CE0915107F091CB
:1022900052078081811107C08FEF9FEF9093320723
:1022A0008093310741C0E0915107F09152070580BA
:1022B000F681E02DC681D7818A819B81E816F906D7
:1022C00028F490933207809331072EC08E010E5F61
:1022D0001F4FC8010E94700C8C899D89892B21F0A9
:1022E000CE010C960E94700C8E8990913807981739
:1022F00010F48093380790E09C01220F331F220FC7
:10230000331F220F331F820F931FB8018B59984F31
:102310000E941E0C9E89E0912C07F0912D07868962
:10232000981708F0AECFB1CFE0912C07F0912D07B0
:10233000868990E0FC01EE0FFF1FEE0FFF1FEE0FEE
:10234000FF1F8E0F9F1FFC01EB59F84F80818230D9
:1023500040F409C0809136078F5F80933607D12CF7
:1023600002C0DD24D39480913507882311F0DD2449
:10237000D3948D2DDF91CF911F910F91FF90EF900E
:10238000DF9008950F931F93CF93DF930FB6F894C8
:102390000F9280912E07815080932E0780912E07F7
:1023A000811158C080913B07811133C056C0E09124
:1023B0004B07F0914C07C681D781CE010C960E9445
:1023C000700C8E010E5F1F4FC8010E94700C8E8929
:1023D00090913807981710F48093380790E09C018B
:1023E000220F331F220F331F220F331F820F931F21
:1023F000B8018B59984F0E941E0C9E89E0912C07C2
:10240000F0912D078689981730F081E08093350789
:1024100002C0C0E0D0E0809146078111C8CFCD2B2B
:1024200011F00E94740EC0913607CC2359F00E941F
:102430000811882319F081E080933507C150B9F75E
:102440001092360780913507882331F00E940B17D0
:1024500081E003C080E001C080E00F900FBEDF91FB
:10246000CF911F910F9108950F931F93CF93DF93F7
:102470008C01EB010E94E8104091390750913A0716
:10248000F80120813181C9018C0F9D1F421753072C
:1024900040F48217930768F44817590760F020E06A
:1024A0000FC08217930748F04817590740F020E003
:1024B00007C020E005C021E003C021E001C021E009
:1024C000F80191838083222329F060E0841B950B1F
:1024D0000E94CF0F0E94C211811102C00E940B17EF
:1024E000DF91CF911F910F910895CF93DF93EC016E
:1024F000892B49F00E94E81060E0CE010E94CF0FC6
:102500000E94C21101C080E0811102C00E940B171D
:10251000DF91CF91089580912E07882321F081E0EB
:10252000809335070895109235072091380701C030
:102530002150822F90E0FC01EE0FFF1FEE0FFF1FD6
:10254000EE0FFF1FE80FF91FEB59F84F30813323CF
:1025500079F3AC01440F551F440F551F440F551F0D
:10256000480F591FDF010180F281E02D0280F381C5
:10257000E02D1296FC93EE9311974859584FE417AB
:10258000F50729F442815381FD0152834183FC0107
:10259000EE0FFF1FEE0FFF1FEE0FFF1F8E0F9F1F8F
:1025A000FC01EB59F84F0180F281E02D8681978183
:1025B00090932D0780932C07209338070895CF938D
:1025C000DF93EB0160912C0770912D07645F7F4FC3
:1025D0000E943F0C61E0CE010E94CF0FDF91CF91AE
:1025E0000895CF93DF93EA01E0912C07F0912D0736
:1025F00070687587648760912C0770912D07645F00
:102600007F4F0E941E0C61E0CE010E94CF0FDF9130
:10261000CF9108950F931F93CF93DF93DC0115960D
:10262000ED91FC911697C681D7818E01045F1F4FF3
:10263000C8010E94700C80912E0781111CC00A50A5
:102640001109C8010E94700C8E8990913807981763
:1026500010F48093380790E09C01220F331F220F63
:10266000331F220F331F820F931FB8018B59984FCE
:102670000E941E0C05C0B80186E497E00E941E0C63
:102680009E89E0912C07F0912D078689891720F407
:1026900081E08093350701C080E0DF91CF911F91E9
:1026A0000F9108950F931F93CF93DF937068FC01F0
:1026B00071836083C681D7810E94700C8E010E5F8A
:1026C0001F4FC8010E94700C8E899091380798178F
:1026D00010F48093380790E09C01220F331F220FE3
:1026E000331F220F331F820F931FB8018B59984F4E
:1026F0000E941E0C9E89E0912C07F0912D0786897F
:10270000891718F481E080933507DF91CF911F91ED
:102710000F9108950FB6F8940F9220913407FC01A1
:1027200020832091390730913A07328321830F901B
:102730000FBE089520913407FC01208320913907B2
:1027400030913A07328321830895CF93DF930FB6F8
:10275000F8940F924091390750913A07EC01298182
:102760003A81DA01A21BB30BF881E0913407FE171E
:1027700019F04217530790F4FB0120813181A21711
:10278000B30740F42A1B3B0B318320830E949A132A
:1027900080E005C01182108281E001C081E00F90CD
:1027A0000FBEDF91CF91089581E0809335070895A2
:1027B00080912C0790912D070895E0912C07F091BE
:1027C0002D0784859585E0912C07F0912D07A09128
:1027D0002C07B0912D0756964C9124E030E0241B35
:1027E00031093587248708950F931F93CF93C82FFE
:1027F000CB010FB6F8940F92E0912C07F0912D07C2
:1028000041A152A163A174A1452B462B472B69F42A
:10281000E0912C07F0912D0721E025A3009729F0E6
:1028200061E00E94CF0F0E940B170F900FBE0FB6F2
:10283000F8940F92E0912C07F0912D0761A172A1FD
:1028400083A194A16115710581059105C9F0CC237F
:1028500049F0E0912C07F0912D0711A212A213A2CA
:1028600014A20EC0E0912C07F0912D078B019C0162
:10287000015011092109310901A312A323A334A393
:10288000E0912C07F0912D0715A20F900FBECF916C
:102890001F910F9108954F925F926F927F928F9246
:1028A0009F92AF92BF92EF92FF920F931F934901B5
:1028B0005A010FB6F8940F92E0912C07F0912D0772
:1028C00025A1223029F1E0912C07F0912D0741A09C
:1028D00052A063A074A0DC01CB0180959095A095D7
:1028E000B09584219521A621B72181A392A3A3A30A
:1028F000B4A3E0912C07F0912D0781E085A3E114AA
:10290000F10431F061E0C7010E94CF0F0E940B1764
:102910000F900FBE0FB6F8940F920115110569F0D4
:10292000E0912C07F0912D0781A192A1A3A1B4A160
:10293000F80180839183A283B383E0912C07F09107
:102940002D0785A18230B1F4E0912C07F0912D077D
:1029500081A192A1A3A1B4A180949094A094B094D9
:1029600088229922AA22BB2281A292A2A3A2B4A267
:1029700081E001C080E0E0912C07F0912D0715A2C5
:102980000F900FBE1F910F91FF90EF90BF90AF90EF
:102990009F908F907F906F905F904F900895EF92EF
:1029A000FF920F931F93CF93DF93FC010FB6F89420
:1029B0000F920115110549F081A192A1A3A1B4A123
:1029C000E80188839983AA83BB8385A192E095A3BC
:1029D00022303105D1F020F42130310541F031C0F1
:1029E0002330310501F12430310519F12AC001A14C
:1029F00012A123A134A1402B512B622B732B41A395
:102A000052A363A374A311E01FC041A152A163A10B
:102A100074A14F5F5F4F6F4F7F4F41A352A363A3DA
:102A200074A311E011C041A352A363A374A311E0E6
:102A30000BC0823041F041A352A363A374A311E001
:102A400003C011E001C010E0813041F5EF017F01CA
:102A500082E0E80EF11CC7010E94700C8E899091F3
:102A60003807981710F48093380790E09C01220FE4
:102A7000331F220F331F220F331F820F931FB70103
:102A80008B59984F0E941E0C9E89E0912C07F09163
:102A90002D078689891710F40E940B170F900FBE1F
:102AA000812FDF91CF911F910F91FF90EF900895AB
:102AB000CF92DF92EF92FF920F931F93CF93DF930A
:102AC000FC010115110549F081A192A1A3A1B4A1B6
:102AD000E80188839983AA83BB8385A192E095A3AB
:102AE00022303105D1F020F42130310541F031C0E0
:102AF0002330310501F12430310519F12AC001A13B
:102B000012A123A134A1402B512B622B732B41A383
:102B100052A363A374A311E01FC041A152A163A1FA
:102B200074A14F5F5F4F6F4F7F4F41A352A363A3C9
:102B300074A311E011C041A352A363A374A311E0D5
:102B40000BC0823041F041A352A363A374A311E0F0
:102B500003C011E001C010E08130D9F5EF01809190
:102B60002E0781111EC06F01E2E0CE0ED11CC601FE
:102B70000E94700C8E8990913807981710F48093FA
:102B8000380790E09C01220F331F220F331F220FC2
:102B9000331F820F931FB6018B59984F0E941E0C52
:102BA00007C0BF01645F7F4F86E497E00E941E0C60
:102BB0009E89E0912C07F0912D078689891748F4AA
:102BC000E114F10419F081E0E701888381E080934A
:102BD0003507812FDF91CF911F910F91FF90EF90DB
:102BE000DF90CF900895EF92FF920F931F93CF93B2
:102BF000DF93FC0125A182E085A381A192A1A3A17D
:102C0000B4A10196A11DB11D81A392A3A3A3B4A356
:102C10002130E1F58B01EF0180912E0781111EC05B
:102C20007F0182E0E80EF11CC7010E94700C8E89C2
:102C300090913807981710F48093380790E09C0122
:102C4000220F331F220F331F220F331F820F931FB8
:102C5000B7018B59984F0E941E0C07C0BF01645FDB
:102C60007F4F86E497E00E941E0C9E89E0912C071E
:102C7000F0912D078689891748F40115110519F07F
:102C800081E0F801808381E080933507DF91CF9167
:102C90001F910F91FF90EF900895009721F480917C
:102CA0002C0790912D070FB6F8940F92FC0125A1E7
:102CB000223019F415A281E001C080E00F900FBE10
:102CC0000895109289008CE7809388008BE08093B0
:102CD0008100EFE6F0E0808182608083089531E139
:102CE000FC013083319722E220833197A3E3A08354
:102CF000319760833197708331971082319760E804
:102D0000608331971082319762E06083319763E08E
:102D10006083319764E06083319765E06083319729
:102D200066E06083319767E06083319768E0608395
:102D3000319769E06083319760E160833197308338
:102D4000319732E13083319733E13083319734E189
:102D50003083319735E13083319736E130833197D5
:102D600037E13083319738E13083319739E130836F
:102D7000319730E23083319731E2308331972083CD
:102D8000319723E2208331974083319750833197E5
:102D900026E22083319727E22083319728E220839F
:102DA000319729E22083319720E32083319721E373
:102DB0002083869708950E946116A0912C07B091F8
:102DC0002D07CD91CDBFDD91DEBFFF91EF91DF915A
:102DD000CF91BF91AF919F918F917F916F915F91B3
:102DE0004F913F912F911F910F91FF90EF90DF90A6
:102DF000CF90BF90AF909F908F907F906F905F909B
:102E00004F903F902F901F900F900FBE0F900895FE
:102E100081E0089508950F920FB6F8940F921F92D3
:102E200011242F923F924F925F926F927F928F92D6
:102E30009F92AF92BF92CF92DF92EF92FF920F9349
:102E40001F932F933F934F935F936F937F938F9332
:102E50009F93AF93BF93CF93DF93EF93FF93A09193
:102E60002C07B0912D070DB60D920EB60D920E9453
:102E70008B12A0912C07B0912D07CD91CDBFDD9184
:102E8000DEBFFF91EF91DF91CF91BF91AF919F9105
:102E90008F917F916F915F914F913F912F911F91F2
:102EA0000F91FF90EF90DF90CF90BF90AF909F90E9
:102EB0008F907F906F905F904F903F902F901F90DA
:102EC0000F900FBE0F9008950F920FB6F8940F92C7
:102ED0001F9211242F923F924F925F926F927F9296
:102EE0008F929F92AF92BF92CF92DF92EF92FF921A
:102EF0000F931F932F933F934F935F936F937F9302
:102F00008F939F93AF93BF93CF93DF93EF93FF93F1
:102F1000A0912C07B0912D070DB60D920EB60D9213
:102F20000E94081181110E948B12A0912C07B09170
:102F30002D07CD91CDBFDD91DEBFFF91EF91DF91E8
:102F4000CF91BF91AF919F918F917F916F915F9141
:102F50004F913F912F911F910F91FF90EF90DF9034
:102F6000CF90BF90AF909F908F907F906F905F9029
:102F70004F903F902F901F900F900FBE0F9008958D
:102F80000E9464171895FB01DC0102C001900D92AC
:0C2F900041505040D8F70895F894FFCF4E
:102F9C00804C65645365635461736B0049444C45C4
:022FAC00000023
:00000001FF
