:100000000C9446000C9465000C9465000C946500FB
:100010000C9465000C9465000C9465000C946500CC
:100020000C9465000C9465000C9465000C946500BC
:100030000C9465000C94D1030C9465000C9465003D
:100040000C9465000C9465000C9465000C944003BE
:100050000C9465000C9465000C9465000C9465008C
:100060000C9465000C9465000C9465000C9465007C
:100070000C9465000C9465000C9465000C9465006C
:100080000C9465000C9465000C94650011241FBE4F
:10009000CFEFD0E4DEBFCDBF11E0A0E0B1E0E2E6FB
:1000A000F9E000E00BBF02C007900D92AA32B10741
:1000B000D9F721E0AAE2B1E001C01D92A538B2074C
:1000C000E1F70E9420040C94AF040C940000CF933D
:1000D000C82F8A3019F48DE00E9467008091C0001B
:1000E00085FFFCCFC093C60080E090E0CF910895DB
:1000F000009721F420914E0120932A0108959C013C
:10010000892B09F049C090912A01892F82958F701F
:10011000809311019F70909312019330A1F028F405
:10012000913049F0923059F01DC09530A1F078F02F
:100130009630A9F017C098E29093120113C094E191
:10014000909312010FC09AE0909312010BC095E0BA
:100150009093120107C092E09093120103C091E0C6
:1001600090931201823069F018F4813031F014C09C
:10017000833059F0843069F00FC080914F0182B90B
:100180000BC08091840182B907C08091340182B98B
:1001900003C08091400182B9C9010895009721F000
:1001A0008130910561F015C0309133012091120129
:1001B000321778F01092330181E090E00AC030915C
:1001C000330120911201321720F01092330180E0A8
:1001D00090E0009721F08130910551F00895209131
:1001E00033012F5F2093330120EF20934F010895B7
:1001F000209133012F5F209333012FE020934F0193
:100200000895009721F08130910561F015C030917B
:10021000320120911201321778F01092320181E000
:1002200090E00AC03091320120911201321720F083
:100230001092320180E090E0009721F0813091052A
:1002400051F00895209132012F5F209332012AEA64
:10025000209384010895209132012F5F2093320171
:1002600025E520938401089581309105B9F082300D
:10027000910501F1009781F5309131012091120132
:10028000321750F180910401882319F081E090E049
:1002900002C082E090E0109231011EC08091030103
:1002A000869580930301813091F41092040180E0DF
:1002B00090E012C080910301880F80930301803881
:1002C00049F481E08093040180E090E005C080E083
:1002D00090E002C080E090E0009749F42091310165
:1002E0002F5F209331012091030120933401089561
:1002F000009721F08130910561F02CC030913001E0
:1003000020911201321730F11092300181E090E01B
:1003100021C08091010190910201809340018F3FA3
:10032000910560F080E890E09093020180930101D4
:1003300080E88093000180E090E00CC020910001F3
:10034000269520930001822B909302018093010156
:1003500080E090E0009729F4209130012F5F2093F6
:1003600030010895442349F021E030E002C0220F1B
:10037000331F6A95E2F7822B089521E030E002C036
:10038000220F331F6A95E2F720958223089521E01A
:1003900030E002C0220F331F6A95E2F782230895EE
:1003A00040E064E08FEF0E94B20182B9000080B1AA
:1003B00060E080950E94C701811180C080B161E03A
:1003C00080950E94C70181117BC080B162E0809559
:1003D0000E94C701811176C080B163E080950E94C0
:1003E000C701811171C040E065E08FEF0E94B2014A
:1003F00082B9000080B160E080950E94C701811140
:1004000065C080B161E080950E94C701811160C024
:1004100080B162E080950E94C70181115BC080B10C
:1004200063E080950E94C701811156C040E066E0FC
:100430008FEF0E94B20182B9000080B160E0809528
:100440000E94C70181114AC080B161E080950E947D
:10045000C701811145C080B162E080950E94C7014B
:10046000811140C080B163E080950E94C701811175
:100470003BC040E067E08FEF0E94B20182B900000C
:1004800080B160E080950E94C70181112FC080B1CA
:1004900061E080950E94C70181112AC080B162E0AD
:1004A00080950E94C701811125C080B163E08095CD
:1004B0000E94C7018823F9F084E4089581E3089538
:1004C00084E3089587E308958AE2089582E3089516
:1004D00085E3089588E3089580E3089583E308950C
:1004E00086E3089589E3089583E2089581E40895F9
:1004F00082E4089583E408958BE0809381008DE782
:1005000090E0909389008093880082E080936F0050
:100510001092850010928400809113019091140133
:10052000A0911501B091160180932B0190932C019D
:10053000A0932D01B0932E018FB780688FBF0895CF
:1005400010928100089560931301709314018093B9
:1005500015019093160160932B0170932C018093E9
:100560002D0190932E01089540E050E00CC0000052
:100570002F5F3F4F02C020E030E0273063E03607B6
:10058000B4F34F5F5F4F48175907ACF308959BB121
:100590009F7B9BB988B98BB180688BB900008BB108
:1005A0008F778BB982E090E00E94B402089581E0D9
:1005B0000E94C7020895813120F481580E94C70229
:1005C000089581550E94C702089584E690E00E9434
:1005D000B40288E30E94C70286E00E94C7028FE04F
:1005E0000E94C70281E00E94C7028AE090E00E9458
:1005F000B40208959BB190649BB988B98BB18068AF
:100600008BB900008BB18F778BB981E090E00E94AD
:10061000B4020895FF920F931F93CF93DF93EB01E2
:100620000DC0FF24F394F80E0E94DB028E010F5FD1
:100630001F4F88810E94FA028F2DE8019881911145
:10064000F0CFDF91CF911F910F91FF90089580EB34
:1006500084B981E58CBD8FE485B98FB780688FBF81
:1006600008958EBD0DB407FEFDCF089580E484B9D2
:100670008FEB85B980EC8CBD8FB780688FBF0895F4
:100680001F920F920FB60F9211248F938EB5809305
:100690004E018F910F900FBE0F901F9018950F93E2
:1006A0001F93CF93DF93B62FA72FF82FE92F022F99
:1006B000132FD42FC52F04C0062F172FD82FC92FC3
:1006C0006B2F7A2F8F2F9E2F202F312F4D2F5C2FA6
:1006D0000E948D04B02FA12FFD2FEC2F6115710505
:1006E0008105910549F7602F712F8D2F9C2FDF9188
:1006F000CF911F910F910895EF92FF921F93CF9387
:10070000DF9310E045C0C12FD0E0FE01EE0FFF1FC8
:10071000EB5FFE4FE080F180D70115964D915D9122
:100720006D917C91189711968D919D910D90BC9132
:10073000A02D481759076A077B07C0F0D701199603
:10074000ED91FC911A978C91082E000C990B09954C
:10075000F7018083FE01EE0FFF1FEB5FFE4F01905C
:10076000F081E02D1582168217821086CC0FDD1FD6
:10077000CB5FDE4FE881F98185819681A781B085C5
:10078000C296A11DB11D85839683A783B0871F5F85
:10079000163008F4B8CFDF91CF911F91FF90EF9002
:1007A00008951F920F920FB60F9211240BB60F925D
:1007B0002F933F934F935F936F937F938F939F9369
:1007C000AF93BF93EF93FF9380912B0190912C01F6
:1007D000A0912D01B0912E010197A109B10980933B
:1007E0002B0190932C01A0932D01B0932E01892B06
:1007F0008A2B8B2B91F40E947C03809113019091A2
:100800001401A0911501B091160180932B019093D2
:100810002C01A0932D01B0932E01FF91EF91BF9178
:10082000AF919F918F917F916F915F914F913F9188
:100830002F910F900BBE0F900FBE0F901F90189529
:100840008FEF81B912B862E370E080E090E00E941F
:10085000A3020E947C020E943603E1E4F1E01082D0
:1008600082E390E0A0E0B0E081839283A383B4832D
:1008700085839683A783B08728E730E03287218776
:10088000E0E5F1E0108281839283A383B4838583C2
:100890009683A783B0872FE730E032872187E1E690
:1008A000F1E0108281839283A383B483858396834E
:1008B000A783B0872EEC30E032872187EEE6F1E0A7
:1008C000108281839283A383B48385839683A783D5
:1008D000B08721E031E032872187E9E7F1E021E0CC
:1008E000208381839283A383B48385839683A783A4
:1008F000B08724E331E032872187E5E3F1E010821D
:1009000081839283A383B48385839683A783B087EF
:1009100088E791E092878187FFCFA1E21A2EAA1B78
:10092000BB1BFD010DC0AA1FBB1FEE1FFF1FA2179F
:10093000B307E407F50720F0A21BB30BE40BF50B9C
:10094000661F771F881F991F1A9469F76095709525
:10095000809590959B01AC01BD01CF010895F8945D
:02096000FFCFC7
:1009620080800080014101500161016E01790135F1
:100972000101010100000000000002000000006708
:0A0982000000000000320000000039
:00000001FF
