:100000000C9446000C9465000C9465000C946500FB
:100010000C9465000C9465000C9465000C946500CC
:100020000C9465000C9465000C9465000C946500BC
:100030000C9465000C94C4020C9465000C9465004B
:100040000C9465000C9465000C9465000C943202CD
:100050000C9465000C9465000C9465000C9465008C
:100060000C9465000C9465000C9465000C9465007C
:100070000C9465000C9465000C9465000C9465006C
:100080000C9465000C9465000C94650011241FBE4F
:10009000CFEFD0E4DEBFCDBF11E0A0E0B1E0E4EEF1
:1000A000F6E000E00BBF02C007900D92AC31B10743
:1000B000D9F721E0ACE1B1E001C01D92AD33B20748
:1000C000E1F70E9413030C9470030C940000CF938B
:1000D000C82F8A3019F48DE00E9467008091C0001B
:1000E00085FFFCCFC093C60080E090E0CF910895DB
:1000F000009769F420910401222331F020911C0122
:100100002F5F20931C01089520911C0122B90895AE
:10011000442349F021E030E002C0220F331F6A95EA
:10012000E2F7822B089521E030E002C0220F331F56
:100130006A95E2F720958223089521E030E002C01D
:10014000220F331F6A95E2F78223089540E064E0AE
:100150008FEF0E94880082B9000080B160E0809536
:100160000E949D00811180C080B161E080950E9455
:100170009D0081117BC080B162E080950E949D004E
:10018000811176C080B163E080950E949D0081114D
:1001900071C040E065E08FEF0E94880082B90000E6
:1001A00080B160E080950E949D00811165C080B1A2
:1001B00061E080950E949D00811160C080B162E085
:1001C00080950E949D0081115BC080B163E08095A5
:1001D0000E949D00811156C040E066E08FEF0E94B2
:1001E000880082B9000080B160E080950E949D0087
:1001F00081114AC080B161E080950E949D0081110B
:1002000045C080B162E080950E949D00811140C090
:1002100080B163E080950E949D0081113BC040E069
:1002200067E08FEF0E94880082B9000080B160E033
:1002300080950E949D0081112FC080B161E0809562
:100240000E949D0081112AC080B162E080950E94C9
:100250009D00811125C080B163E080950E949D00C2
:100260008823F9F084E4089581E3089584E30895F0
:1002700087E308958AE2089582E3089585E3089567
:1002800088E3089580E3089583E3089586E308955D
:1002900089E3089583E2089581E4089582E408954E
:1002A00083E408958BE0809381008DE790E0909344
:1002B00089008093880082E080936F00109285000F
:1002C000109284008091050190910601A091070190
:1002D000B091080180931D0190931E01A0931F010E
:1002E000B09320018FB780688FBF0895109281006E
:1002F0000895609305017093060180930701909320
:10030000080160931D0170931E0180931F0190935B
:100310002001089540E050E00CC000002F5F3F4FE7
:1003200002C020E030E0273063E03607B4F34F5FCF
:100330005F4F48175907ACF308959BB19F7B9BB95A
:1003400088B98BB180688BB900008BB18F778BB97E
:1003500082E090E00E948A01089581E00E949D0160
:100360000895813120F481580E949D01089581559E
:100370000E949D01089584E690E00E948A0188E32E
:100380000E949D0186E00E949D018FE00E949D01D8
:1003900081E00E949D018AE090E00E948A01089518
:1003A0009BB190649BB988B98BB180688BB9000010
:1003B0008BB18F778BB981E090E00E948A0108951C
:1003C000EF92FF920F931F93CF93DF93182FEB01C0
:1003D0000E94AD010EC001E0010F812F0E94B1010A
:1003E0007E018FEFE81AF80A88810E94D001102F51
:1003F000E70188818111EFCFDF91CF911F910F919C
:10040000FF90EF90089580EB84B981E58CBD8FE477
:1004100085B98FB780688FBF08958EBD0DB407FE74
:10042000FDCF0895CF93DF93EC01892B69F4809180
:100430000401882329F080911C010E940D0204C050
:100440008091380180931C01CE01DF91CF910895F6
:1004500080E484B98FEB85B980EC8CBD8FB7806860
:100460008FBF08951F920F920FB60F9211248F9392
:100470008EB5809338018F910F900FBE0F901F9013
:1004800018950F931F93CF93DF93B62FA72FF82FB5
:10049000E92F022F132FD42FC52F04C0062F172F9B
:1004A000D82FC92F6B2F7A2F8F2F9E2F202F312FD0
:1004B0004D2F5C2F0E944E03B02FA12FFD2FEC2F4C
:1004C000611571058105910549F7602F712F8D2FF9
:1004D0009C2FDF91CF911F910F910895EF92FF9282
:1004E0001F93CF93DF9310E046C0C12FD0E0FE01F1
:1004F000EE0FFF1FE050FF4FE080F180D70115960F
:100500004D915D916D917C91189711968D919D9172
:100510000D90BC91A02D481759076A077B07C0F0C2
:10052000D7011996ED91FC911A978C91082E000C29
:10053000990B0995F7018083FE01EE0FFF1FE05034
:10054000FF4F0190F081E02D1582168217821086F0
:10055000CC0FDD1FC050DF4FE881F9818581968186
:10056000A781B08588519C4FAF4FBF4F858396833D
:10057000A783B0871F5F123008F4B7CFDF91CF9108
:100580001F91FF90EF9008951F920F920FB60F9258
:1005900011240BB60F922F933F934F935F936F935A
:1005A0007F938F939F93AF93BF93EF93FF9380912C
:1005B0001D0190911E01A0911F01B0912001019792
:1005C000A109B10980931D0190931E01A0931F0101
:1005D000B0932001892B8A2B8B2B91F40E946E0201
:1005E0008091050190910601A0910701B091080149
:1005F00080931D0190931E01A0931F01B0932001D1
:10060000FF91EF91BF91AF919F918F917F916F91EA
:100610005F914F913F912F910F900BBE0F900FBEA6
:100620000F901F9018958FEF81B912B887B918B83D
:100630008AB91BB868EE73E080E090E00E9479010F
:100640000E94520180910401882319F00E94030244
:1006500002C00E942802E2E2F1E0108288EE93E0FC
:10066000A0E0B0E081839283A383B48385839683E3
:10067000A783B08722E132E032872187EDE2F1E003
:10068000108281839283A383B48385839683A78317
:10069000B08788E790E092878187FFCFA1E21A2E8A
:1006A000AA1BBB1BFD010DC0AA1FBB1FEE1FFF1F16
:1006B000A217B307E407F50720F0A21BB30BE40B66
:1006C000F50B661F771F881F991F1A9469F76095AD
:1006D0007095809590959B01AC01BD01CF01089567
:0406E000F894FFCFBC
:1006E40022012D01010100000000000002000000B1
:0C06F40000670000000000E803000000A8
:00000001FF
