:100000000C9446000C9465000C9465000C946500FB
:100010000C9465000C9465000C9465000C946500CC
:100020000C9465000C9465000C9465000C946500BC
:100030000C9465000C944C020C9465000C946500C3
:100040000C9465000C9465000C9465000C940C02F3
:100050000C9465000C9465000C9465000C9465008C
:100060000C9465000C9465000C9465000C9465007C
:100070000C9465000C9465000C9465000C9465006C
:100080000C9465000C9465000C94650011241FBE4F
:10009000CFEFD0E4DEBFCDBF11E0A0E0B1E0E8EBF0
:1000A000F5E000E00BBF02C007900D92A631B1074A
:1000B000D9F721E0A6E1B1E001C01D92AC31B20751
:1000C000E1F70E949B020C94DA020C940000CF939B
:1000D000C82F8A3019F48DE00E9467008091C0001B
:1000E00085FFFCCFC093C60080E090E0CF910895DB
:1000F000442349F021E030E002C0220F331F6A950B
:10010000E2F7822B089521E030E002C0220F331F76
:100110006A95E2F720958223089521E030E002C03D
:10012000220F331F6A95E2F78223089540E064E0CE
:100130008FEF0E94780082B9000080B160E0809566
:100140000E948D00811180C080B161E080950E9485
:100150008D0081117BC080B162E080950E948D008E
:10016000811176C080B163E080950E948D0081117D
:1001700071C040E065E08FEF0E94780082B9000016
:1001800080B160E080950E948D00811165C080B1D2
:1001900061E080950E948D00811160C080B162E0B5
:1001A00080950E948D0081115BC080B163E08095D5
:1001B0000E948D00811156C040E066E08FEF0E94E2
:1001C000780082B9000080B160E080950E948D00C7
:1001D00081114AC080B161E080950E948D0081113B
:1001E00045C080B162E080950E948D00811140C0C1
:1001F00080B163E080950E948D0081113BC040E09A
:1002000067E08FEF0E94780082B9000080B160E063
:1002100080950E948D0081112FC080B161E0809592
:100220000E948D0081112AC080B162E080950E94F9
:100230008D00811125C080B163E080950E948D0002
:100240008823F9F084E4089581E3089584E3089510
:1002500087E308958AE2089582E3089585E3089587
:1002600088E3089580E3089583E3089586E308957D
:1002700089E3089583E2089581E4089582E408956E
:1002800083E408958BE0809381008DE790E0909364
:1002900089008093880082E080936F00109285002F
:1002A000109284008091000190910101A0910201BF
:1002B000B09103018093160190931701A093180148
:1002C000B09319018FB780688FBF08951092810095
:1002D000089560930001709301018093020190934F
:1002E0000301609316017093170180931801909396
:1002F0001901089540E050E00CC000002F5F3F4F0F
:1003000002C020E030E0273063E03607B4F34F5FEF
:100310005F4F48175907ACF308959BB19F7B9BB97A
:1003200088B98BB180688BB900008BB18F778BB99E
:1003300082E090E00E947A01089581E00E948D01A0
:100340000895813120F481580E948D0108958155CE
:100350000E948D01089584E690E00E947A0188E36E
:100360000E948D0186E00E948D018FE00E948D0128
:1003700081E00E948D018AE090E00E947A01089558
:100380009BB190649BB988B98BB180688BB9000030
:100390008BB18F778BB981E090E00E947A0108954C
:1003A000EF92FF920F931F93CF93DF93182FEB01E0
:1003B0000E949D010EC001E0010F812F0E94A1014A
:1003C0007E018FEFE81AF80A88810E94C001102F81
:1003D000E70188818111EFCFDF91CF911F910F91BC
:1003E000FF90EF90089580EB84B981E58CBD8FE498
:1003F00085B98FB780688FBF08958EBD0DB407FE95
:10040000FDCF089580E484B98FEB85B980EC8CBD75
:100410008FB780688FBF08951F920F920FB60F920B
:1004200011248F938EB580931B018F910F900FBE77
:100430000F901F9018950F931F93CF93DF93B62FB4
:10044000A72FF82FE92F022F132FD42FC52F04C069
:10045000062F172FD82FC92F6B2F7A2F8F2F9E2F54
:10046000202F312F4D2F5C2F0E94B802B02FA12FCB
:10047000FD2FEC2F611571058105910549F7602F5E
:10048000712F8D2F9C2FDF91CF911F910F91089588
:1004900081E080931A0108951F920F920FB60F9278
:1004A00011240BB60F922F933F934F935F936F934B
:1004B0007F938F939F93AF93BF93EF93FF9380911D
:1004C000160190911701A0911801B091190101979F
:1004D000A109B1098093160190931701A093180107
:1004E000B0931901892B8A2B8B2B91F40E9448021F
:1004F0008091000190910101A0910201B09103014E
:100500008093160190931701A0931801B0931901DD
:10051000FF91EF91BF91AF919F918F917F916F91DB
:100520005F914F913F912F910F900BBE0F900FBE97
:100530000F901F9018958FEF81B912B887B918B82E
:100540008AB91BB868EE73E080E090E00E94690110
:100550000E9442010E94F301C0E0C0958C2F0E94CE
:10056000FD0180911A018823E1F310921A01F5CF61
:10057000A1E21A2EAA1BBB1BFD010DC0AA1FBB1FA7
:10058000EE1FFF1FA217B307E407F50720F0A21B19
:10059000B30BE40BF50B661F771F881F991F1A9486
:1005A00069F760957095809590959B01AC01BD01B0
:0805B000CF010895F894FFCF7C
:1005B80001000000000000020000000067000000C9
:0605C8000000E803000042
:00000001FF
