:100000000C9446000C9465000C9465000C946500FB
:100010000C9465000C9465000C9465000C946500CC
:100020000C9465000C9465000C9465000C946500BC
:100030000C9465000C9465000C9465000C946500AC
:100040000C9465000C9465000C9465000C9496006B
:100050000C9465000C9465000C9465000C9465008C
:100060000C9465000C9465000C9465000C9465007C
:100070000C9465000C9465000C9465000C9465006C
:100080000C9465000C9465000C94650011241FBE4F
:10009000CFEFD0E4DEBFCDBF11E0A0E0B1E0ECE5F2
:1000A000F3E000E00BBF02C007900D92A031B10752
:1000B000D9F721E0A0E1B1E001C01D92A331B20760
:1000C000E1F70E9423010C94AC010C940000CF9343
:1000D000C82F8A3019F48DE00E9467008091C0001B
:1000E00085FFFCCFC093C60080E090E0CF910895DB
:1000F00080EB84B981E58CBD8FE485B98FB78068CA
:100100008FBF08958EBD85B185B90DB407FEFDCFB3
:1001100085B1806185B9089580E484B98FEB85B994
:1001200080EC8CBD8FB780688FBF08951F920F92AF
:100130000FB60F9211248F938091000180958093C8
:1001400000018EB5809312018F910F900FBE0F901A
:100150001F90189540E050E00CC000002F5F3F4F0B
:1001600002C020E030E0273063E03607B4F34F5F91
:100170005F4F48175907ACF308959BB19F7B9BB91C
:1001800088B98BB180688BB900008BB18F778BB940
:1001900082E090E00E94AA00089581E00E94BD00E4
:1001A0000895813120F481580E94BD000895815541
:1001B0000E94BD00089584E690E00E94AA0088E3B2
:1001C0000E94BD0086E00E94BD008FE00E94BD003D
:1001D00081E00E94BD008AE090E00E94AA0008959C
:1001E0009BB190649BB988B98BB180688BB90000D2
:1001F0008BB18F778BB981E090E00E94AA000895BF
:10020000EF92FF920F931F93CF93DF93182FEB0181
:100210000E94CD000EC001E0010F812F0E94D1008D
:100220007E018FEFE81AF80A88810E94F000102FF3
:10023000E70188818111EFCFDF91CF911F910F915D
:10024000FF90EF9008958FEF8AB91BB887B918B85F
:100250000E948C000E94DB000E94CD008091000172
:10026000882329F0809112018093100104C08091AD
:100270001201809311012091100119E2219F012D9B
:10028000112402950F70CDEC2C9F912D1124969581
:10029000969596959C9FD12D1124D695D695D69559
:1002A000DD0F8D2F880F880FD80F892F8D1BD82F2A
:1002B000990F892F880F880F980FF22EF91A81E075
:1002C0000E94D10080E3800F0E94F00082E00E9433
:1002D000D10080E38D0F0E94F00083E00E94D100E6
:1002E00080E38F0D0E94F00020911101219F112DBC
:1002F000112412951F702C9F812D112486958695AF
:1003000086958C9FC12D1124C695C695C695CC0F98
:100310009C2F990F990FC90F982F9C1BC92F880FDD
:10032000982F990F990F890FD22FD81B84E10E9423
:10033000D10080E3810F0E94F00085E10E94D1008E
:1003400080E38C0F0E94F00086E10E94D10080E3E0
:0C0350008D0F0E94F00082CFF894FFCFC8
:10035C00FF00000002000000006700000000000029
:00000001FF
