:100000000C9446000C9465000C9465000C946500FB
:100010000C9465000C9465000C9465000C946500CC
:100020000C9465000C9465000C9465000C946500BC
:100030000C9465000C9465000C9465000C946500AC
:100040000C9465000C9465000C9465000C9496006B
:100050000C9465000C9465000C9465000C9465008C
:100060000C9465000C9465000C9465000C9465007C
:100070000C9465000C9465000C9465000C9465006C
:100080000C9465000C9465000C94650011241FBE4F
:10009000CFEFD0E4DEBFCDBF11E0A0E0B1E0EEECE9
:1000A000F2E000E00BBF02C007900D92AE30B10746
:1000B000D9F721E0AEE0B1E001C01D92A131B20755
:1000C000E1F70E941E010C9465010C940000CF938F
:1000D000C82F8A3019F48DE00E9467008091C0001B
:1000E00085FFFCCFC093C60080E090E0CF910895DB
:1000F00080EB84B981E58CBD8FE485B98FB78068CA
:100100008FBF08958EBD85B185B90DB407FEFDCFB3
:1001100085B1806185B9089580E484B98FEB85B994
:1001200080EC8CBD8FB780688FBF08951F920F92AF
:100130000FB60F9211248F938EB5809310018F917B
:100140000F900FBE0F901F90189540E050E00CC02C
:1001500000002F5F3F4F02C020E030E0273063E017
:100160003607B4F34F5F5F4F48175907ACF3089554
:100170009BB19F7B9BB988B98BB180688BB900001C
:100180008BB18F778BB982E090E00E94A500089533
:1001900081E00E94B8000895813120F481580E94C6
:1001A000B800089581550E94B800089584E690E053
:1001B0000E94A50088E30E94B80086E00E94B80073
:1001C0008FE00E94B80081E00E94B8008AE090E0D1
:1001D0000E94A50008959BB190649BB988B98BB12A
:1001E00080688BB900008BB18F778BB981E090E08C
:1001F0000E94A5000895EF92FF920F931F93CF9353
:10020000DF93182FEB010E94C8000EC001E0010F20
:10021000812F0E94CC007E018FEFE81AF80A8881B6
:100220000E94EB00102FE70188818111EFCFDF9151
:10023000CF911F910F91FF90EF9008958FEF8AB9A2
:100240001BB887B918B80E948C000E94D6000E9483
:10025000C8009091100190930E01D9E29D9FD12D7D
:100260001124D295DF70CDEC9C9F812D11248695B1
:10027000869586958C9FC12D1124C695C695C695E9
:10028000CC0F2C2F220F220FC20F282F2C1BC22F76
:10029000880F282F220F220F820F192F181B81E0A1
:1002A0000E94CC0080E38D0F0E94EB0082E00E9450
:1002B000CC0080E38C0F0E94EB0083E00E94CC0016
:0E02C00080E3810F0E94EB00C4CFF894FFCFC3
:0E02CE000000000200000000670000000000B9
:00000001FF
