:100000000C9446000C9465000C9465000C946500FB
:100010000C9465000C9465000C9465000C946500CC
:100020000C9465000C9465000C9465000C946500BC
:100030000C9465000C943D020C9465000C946500D2
:100040000C9465000C9465000C9465000C9465009C
:100050000C9465000C9465000C9465000C9465008C
:100060000C9465000C9465000C9465000C9465007C
:100070000C9465000C9465000C9465000C9465006C
:100080000C9465000C9465000C94650011241FBE4F
:10009000CFEFD0E4DEBFCDBF11E0A0E0B1E0E0EEF5
:1000A000F5E000E00BBF02C007900D92A831B10748
:1000B000D9F721E0A8E1B1E001C01D92AA33B2074F
:1000C000E1F70E948C020C94EE020C940000CF9396
:1000D000C82F8A3019F48DE00E9467008091C0001B
:1000E00085FFFCCFC093C60080E090E0CF910895DB
:1000F000892B19F481E090E002C080E090E0009745
:1001000021F08130910551F0089520911F012111B6
:10011000109218012091180122B9089520911F0111
:10012000222319F021E0209318012091180122B90F
:100130000895813081F0E1ECF0E080818861808376
:10014000E2ECF0E080818660808383E38093C400EA
:100150001092C5000895E9ECF0E080818861808309
:10016000EAECF0E080818660808383E38093CC00BA
:100170001092CD000895813021F08091C0008072EE
:1001800008958091C80080720895813021F0809197
:10019000C000807408958091C800807408958130F3
:1001A00021F08091C000807808958091C800807807
:1001B0000895813019F409C08091C6008091C00073
:1001C0008823D4F308958091CE008091C8008823BD
:1001D000D4F30895613039F09091C00095FFFCCFC1
:1001E0008093C60008959091C80095FFFCCF80933E
:1001F000CE000895813039F08091C0008823E4F763
:100200008091C60008958091C8008823E4F780910A
:10021000CE000895CF93DF93EC01009719F001977A
:1002200059F010C080E00E94CF00882359F010924E
:100230001E01C1E0D0E006C080911E01833010F0A5
:10024000C0E0D0E0209721F0C130D10541F154C089
:1002500081E080931F0188B982E390E0A0E0B0E0E4
:1002600080932E0190932F01A0933001B093310120
:1002700088EE93E0A0E0B0E080932101909322010A
:10028000A0932301B093240181E00E94BB00882346
:1002900099F161E0809118010E94EA002DC010924E
:1002A0001F0118B889E190E0A0E0B0E080932E0132
:1002B00090932F01A0933001B093310180932101DD
:1002C00090932201A0932301B093240180E00E9427
:1002D000CF00811105C080911E01885D80931E01B1
:1002E00080E00E94CF00882339F010921E0180E048
:1002F0000E94FA0080931801CE01DF91CF910895FA
:100300008BE0809381008DE790E09093890080934B
:10031000880082E080936F00109285001092840024
:100320008091050190910601A0910701B09108010B
:100330008093190190931A01A0931B01B0931C01A3
:100340008FB780688FBF08951092810008956093E1
:100350000501709306018093070190930801609353
:10036000190170931A0180931B0190931C01089549
:100370000F931F93CF93DF93B62FA72FF82FE92F5B
:10038000022F132FD42FC52F04C0062F172FD82FBD
:10039000C92F6B2F7A2F8F2F9E2F202F312F4D2F6C
:1003A0005C2F0E94CC02B02FA12FFD2FEC2F6115E6
:1003B00071058105910549F7602F712F8D2F9C2FB5
:1003C000DF91CF911F910F910895EF92FF921F93AC
:1003D000CF93DF9310E048C0C12FD0E0FE01EE0FB5
:1003E000FF1FE050FF4FE080F180D70115964D913F
:1003F0005D916D917C91189711968D919D910D90C5
:10040000BC91A02D481759076A077B07C0F0D70198
:100410001996ED91FC911A978C91082E000C990B6E
:100420000995F7018083FE01EE0FFF1FE050FF4F9B
:100430000190F081E02D1582168217821086CC0F74
:10044000DD1FC050DF4FE881F981209104018581D3
:100450009681A781B085820F911DA11DB11D858355
:100460009683A783B0871F5F123008F4B5CFDF9162
:10047000CF911F91FF90EF9008951F920F920FB6AA
:100480000F9211240BB60F922F933F934F935F93CC
:100490006F937F938F939F93AF93BF93EF93FF934C
:1004A0008091190190911A01A0911B01B0911C013A
:1004B0000197A109B1098093190190931A01A093A2
:1004C0001B01B0931C01892B8A2B8B2B91F40E946A
:1004D000E5018091050190910601A0910701B0917D
:1004E00008018093190190931A01A0931B01B09306
:1004F0001C01FF91EF91BF91AF919F918F917F91DF
:100500006F915F914F913F912F910F900BBE0F9084
:100510000FBE0F901F9018958FEF81B912B814B8C5
:1005200085B987B918B88AB91BB86091040170E021
:1005300080E090E00E94A7010E94800180E00E947C
:10054000990081E00E949900EDE2F1E081E0808372
:1005500082E390E0A0E0B0E081839283A383B48340
:1005600085839683A783B0878AE091E0928781870D
:10057000E0E2F1E0108288EE93E0A0E0B0E0818359
:100580009283A383B48385839683A783B08788E708
:1005900090E092878187FFCFA1E21A2EAA1BBB1B96
:1005A000FD010DC0AA1FBB1FEE1FFF1FA217B3073F
:1005B000E407F50720F0A21BB30BE40BF50B661F55
:1005C000771F881F991F1A9469F760957095809519
:1005D00090959B01AC01BD01CF010895F894FFCF28
:1005E0002D012001190100000000000002000000A0
:0805F00000670000000000009C
:00000001FF
