:100000000C9446000C9465000C9465000C946500FB
:100010000C9452020C9465000C9465000C946500DD
:100020000C9440020C9465000C9465000C946500DF
:100030000C9465000C94DB020C9465000C94650034
:100040000C9465000C9465000C9465000C9465009C
:100050000C9465000C9465000C9465000C9465008C
:100060000C9465000C9465000C9465000C9465007C
:100070000C9465000C9465000C9465000C9465006C
:100080000C9465000C9465000C94650011241FBE4F
:10009000CFEFD0E4DEBFCDBF11E0A0E0B1E0EAE4F5
:1000A000F7E000E00BBF02C007900D92A032B1074D
:1000B000D9F721E0A0E2B1E001C01D92A134B2075E
:1000C000E1F70E942A030C94A3030C940000CF9341
:1000D000C82F8A3019F48DE00E9467008091C0001B
:1000E00085FFFCCFC093C60080E090E0CF910895DB
:1000F00040E050E00CC000002F5F3F4F02C020E006
:1001000030E0273063E03607B4F34F5F5F4F4817A6
:100110005907ACF308959BB19F7B9BB988B98BB10C
:1001200080688BB900008BB18F778BB982E090E04B
:100130000E947800089581E00E948B00089581312B
:1001400020F481580E948B00089581550E948B00F5
:10015000089584E690E00E94780088E30E948B0076
:1001600086E00E948B008FE00E948B0081E00E945D
:100170008B008AE090E00E94780008959BB1906423
:100180009BB988B98BB180688BB900008BB18F7730
:100190008BB981E090E00E9478000895EF92FF9281
:1001A0000F931F93CF93DF93182FEB010E949B00B7
:1001B0000EC001E0010F812F0E949F007E018FEF92
:1001C000E81AF80A88810E94BE00102FE701888192
:1001D0008111EFCFDF91CF911F910F91FF90EF90A1
:1001E00008958BE0809381008DE790E090938900E3
:1001F0008093880082E080936F00109285001092B7
:1002000084008091060190910701A0910801B091AE
:1002100009018093200190932101A0932201B093C2
:1002200023018FB780688FBF0895109281000895D1
:100230006093060170930701809308019093090170
:1002400060932001709321018093220190932301F8
:100250000895CF93C0914001C80F8C2F90E00A976A
:100260003CF46C2F85E090E00E949103C093400124
:10027000CF9108958230910509F450C034F400976D
:1002800069F081309105E1F071C08330910509F486
:1002900059C08430910509F45FC068C004B603FEFC
:1002A00009C085E090E00E9489038093400181E0CD
:1002B00090E0089583E08093400181E090E008950C
:1002C00020B130E02095309526703327223031055B
:1002D00039F481E090E00E94290182E090E00895E5
:1002E00020B130E020953095267033272430310539
:1002F00039F48FEF9FEF0E94290183E090E0089589
:1003000020B130E020953095267033272630310516
:10031000C1F51092400184E090E0089520B130E0F2
:1003200020953095267033272230310551F180B168
:1003300090E080959095867099270697D1F48FEF7D
:100340008BB9FFCF20B130E0209530952670332750
:100350002430310589F4089520B130E0209530959E
:10036000267033272630310551F4089581E090E05E
:10037000089581E090E0089581E090E0089581E0A3
:1003800090E008950F931F93CF93DF93B62FA72F7D
:10039000F82FE92F022F132FD42FC52F04C0062FBB
:1003A000172FD82FC92F6B2F7A2F8F2F9E2F202FEB
:1003B000312F4D2F5C2F0E946703B02FA12FFD2FEF
:1003C000EC2F611571058105910549F7602F712F9B
:1003D0008D2F9C2FDF91CF911F910F910895F8944D
:1003E000A89584B7877F84BFE0E6F0E080818861CC
:1003F000808310820895CF93DF93EC01009719F06A
:10040000019789F012C0809125018C3370F00E9411
:100410009B0085B18E7F85B91092250110922F0126
:10042000C1E0D0E002C0C0E0D0E0209721F0C130B0
:10043000D10591F013C085B1816085B98091250106
:100440008F5F8093250181E00E949F008091400191
:10045000805D0E94BE0002C00E94EF01CE01DF91CC
:10046000CF910895F894A895E0E6F0E0808180644B
:10047000808380818861808388E280837894089576
:100480001F920F920FB60F9211240F900FBE0F9074
:100490001F90189581E08FBF8093680080936B0058
:1004A000789408951F920F920FB60F9211240BB6F5
:1004B0000F922F933F934F935F936F937F938F93FD
:1004C0009F93AF93BF93EF93FF93009905C00E9452
:1004D000320281E080932F01FF91EF91BF91AF91A4
:1004E0009F918F917F916F915F914F913F912F914C
:1004F0000F900BBE0F900FBE0F901F901895EF92AC
:10050000FF920F931F93CF93C0E04CC00C2F10E0CD
:10051000F801EE0FFF1FE050FF4FE080F180D701A0
:1005200019968C9119978823E1F115964D915D915B
:100530006D917C91189711968D919D910D90BC9124
:10054000A02D481759076A077B07C0F0D7011A96F4
:10055000ED91FC911B978C91082E000C990B09953D
:10056000F7018083F801EE0FFF1FE050FF4F01906D
:10057000F081E02D1582168217821086000F111F60
:10058000F801E050FF4F0190F081E02D85819681C8
:10059000A781B085C296A11DB11D85839683A783CF
:1005A000B087CF5FC33008F4B1CFCF911F910F91C7
:1005B000FF90EF9008951F920F920FB60F921124A3
:1005C0000BB60F922F933F934F935F936F937F934D
:1005D0008F939F93AF93BF93EF93FF9380912001ED
:1005E00090912101A0912201B09123010197A109CD
:1005F000B1098093200190932101A0932201B0932F
:100600002301892B8A2B8B2B91F40E947F028091EE
:10061000060190910701A0910801B0910901809312
:10062000200190932101A0932201B0932301FF9117
:10063000EF91BF91AF919F918F917F916F915F915A
:100640004F913F912F910F900BBE0F900FBE0F90C7
:100650001F90189511B88FEF82B98AB91BB887B966
:1006600018B884B915B80E944A020E94EF0162E3EB
:1006700070E080E090E00E9418010E94F1000E946A
:10068000A900E4E3F1E0108282E390E0A0E0B0E0B2
:1006900081839283A383B48385839683A783B08762
:1006A0002AE331E03387228721E02187E6E2F1E087
:1006B000208381839283A383B48385839683A783D6
:1006C000B0878BEF91E0938782871186FFCFA1E2FD
:1006D0001A2EAA1BBB1BFD010DC0AA1FBB1FEE1FBC
:1006E000FF1FA217B307E407F50720F0A21BB30B07
:1006F000E40BF50B661F771F881F991F1A9469F783
:1007000060957095809590959B01AC01BD01CF01DE
:100710000895F999FECF92BD81BDF89A992780B5C9
:100720000895262FF999FECF92BD81BDF89A0197C1
:1007300000B4021639F01FBA20BD0FB6F894FA9A29
:0A074000F99A0FBE0895F894FFCF58
:10074A003401260100000100000000000002000040
:10075A0000006700000000003200000003060402E7
:00000001FF
