:100000000C9446000C9465000C9465000C946500FB
:100010000C9465000C9465000C9465000C946500CC
:100020000C9465000C9465000C9465000C946500BC
:100030000C9465000C949A010C9465000C94650076
:100040000C9465000C9465000C9465000C9465009C
:100050000C9465000C9465000C9465000C9465008C
:100060000C9465000C9465000C9465000C9465007C
:100070000C9465000C9465000C9465000C9465006C
:100080000C9465000C9465000C94650011241FBE4F
:10009000CFEFD0E4DEBFCDBF11E0A0E0B1E0E6E8F5
:1000A000F4E000E00BBF02C007900D92A631B1074B
:1000B000D9F721E0A6E1B1E001C01D92A635B20753
:1000C000E1F70E94E9010C9441020C940000CF93E7
:1000D000C82F8A3019F48DE00E9467008091C0001B
:1000E00085FFFCCFC093C60080E090E0CF910895DB
:1000F0008130910569F08230910539F00097A1F4C3
:10010000009912C082E090E00895009B0DC00AC0E3
:1001100081E090911601911180E08093160180E0BA
:1001200090E0089581E090E008958130910559F0C4
:100130001CF40097B9F021C08230910549F083305A
:10014000910559F01AC020911601222371F015C0B3
:1001500020911601222361F010C020911601211177
:100160000CC009C081E090E008C082E090E005C0CA
:1001700083E090E002C081E090E08230910561F080
:100180001CF499232CF408958330910549F00895C7
:1001900021E020935001089522E02093500108951A
:1001A00024E02093500108958130910531F0823090
:1001B000910541F0009799F40AC02091160122237D
:1001C00049F00DC020911601211109C006C081E03F
:1001D00090E005C082E090E002C081E090E09923C9
:1001E0006CF08230910524F08230910521F0089561
:1001F00010925301089528E0209353010895009729
:1002000031F43091500120915301232B25B90895E9
:100210008BE0809381008DE790E09093890080933C
:10022000880082E080936F00109285001092840015
:100230008091040190910501A0910601B091070100
:100240008093170190931801A0931901B0931A019C
:100250008FB780688FBF08951092810008956093D2
:100260000401709305018093060190930701609348
:100270001701709318018093190190931A01089542
:10028000EF92FF921F93CF93DF9310E04AC0C12FEC
:10029000D0E0FE01EE0FFF1FEC0FFD1FEE0FFF1F62
:1002A000EE0FFF1FE25EFE4F46815781608571852C
:1002B00082819381A481B581481759076A077B071A
:1002C00078F07F01DF010284F385E02D8D919C9110
:1002D0000995F70191838083168217821086118613
:1002E000CE01880F991FFC01EC0FFD1FEE0FFF1FC1
:1002F000EE0FFF1FE25EFE4F4681578160857185DC
:100300008091000190910101A0910201B09103013F
:10031000840F951FA61FB71F86839783A087B18779
:100320001F5F143008F4B3CFDF91CF911F91FF907E
:10033000EF9008951F920F920FB60F9211240BB6F3
:100340000F922F933F934F935F936F937F938F936E
:100350009F93AF93BF93EF93FF9380911701909179
:100360001801A0911901B0911A010197A109B109D1
:100370008093170190931801A0931901B0931A016B
:10038000892B8A2B8B2B91F40E94400180910401D0
:1003900090910501A0910601B0910701809317018A
:1003A00090931801A0931901B0931A01FF91EF9156
:1003B000BF91AF919F918F917F916F915F914F917D
:1003C0003F912F910F900BBE0F900FBE0F901F907B
:1003D00018958FEF84B915B811B882B9EEE1F1E044
:1003E0001182108284EF91E0A0E0B0E082839383D9
:1003F000A483B58386839783A087B18785E990E03E
:10040000938782871586148688EE93E0A0E0B0E09B
:1004100086879787A08BB18B828B938BA48BB58BB0
:1004200084ED90E0978B868B118E108E82E390E0A6
:10043000A0E0B0E0828F938FA48FB58F868F978FC7
:10044000A0A3B1A32FEF30E033A322A315A214A2DF
:1004500086A397A3A0A7B1A782A793A7A4A7B5A790
:1004600088E790E097A786A760910001709101014D
:1004700080910201909103010E942F010E940801C6
:06048000FFCFF894FFCF4E
:100486003200000001000000000000020000000031
:06049600670000000000F9
:00000001FF
