:100000000C9446000C9465000C9465000C946500FB
:100010000C9465000C9465000C9465000C946500CC
:100020000C9465000C9465000C9465000C946500BC
:100030000C9465000C9400180C9465000C946500F9
:100040000C9465000C9465000C9465000C9465009C
:100050000C9465000C9465000C9465000C9465008C
:100060000C9465000C9465000C9465000C9465007C
:100070000C9465000C9465000C9465000C9465006C
:100080000C9465000C9465000C94650011241FBE4F
:10009000CFEFD0E4DEBFCDBF11E0A0E0B1E0ECE1F6
:1000A000F0E300E00BBF02C007900D92A031B10752
:1000B000D9F727E0A0E1B1E001C01D92AB38B2074B
:1000C000E1F70E94EF000C940C180C9400001092C1
:1000D0008A071092890708958091890790918A076D
:1000E000009719F0019719F004C01BB802C085E110
:1000F0008BB98091890790918A07009719F0019731
:1001000041F0089581E090E09093880780938707FD
:10011000089510928807109287070895EF92FF9232
:100120000F93E12CF12C082F20E030E045E550E062
:1001300060E071E089EC90E00E9453100F91FF9015
:10014000EF90089510928807109287070895809184
:10015000870790918807009719F0019719F004C05C
:100160001BB802C085E18BB9809187079091880701
:10017000009719F0019741F0089581E090E0909385
:100180008807809387070895109288071092870741
:1001900008950E9467000E94A70084EF91E00E94EA
:1001A000B512F9CF0E94A2000E94A70088EE93E04A
:1001B0000E94B512F9CFEF92FF920F93E12CF12C30
:1001C000082F20E030E045E550E060E071E082ED8E
:1001D00090E00E9453100F91FF90EF90089511B896
:1001E0008FEF82B98AB981E00E94DB0084E00E942F
:1001F0008E000E94F81080E090E00895FC01448198
:10020000558122813381240F351F80819181B9016D
:10021000681B790BCB016417750710F0841B950BD5
:1002200008950F93FC018FE0DF011D928A95E9F795
:1002300075876487558344833783268306870F91A8
:100240000895AF92BF92CF92DF92EF92FF920F93F9
:100250001F93CF93DF936C015B017A01FC01C28194
:10026000D381048115810C1B1D0B4017510708F425
:100270008A01F60184859585A801B5018C0F9D1F23
:100280000E9403180E151F0558F4A701401B510BBF
:10029000B501600F711FF601848595850E940318D2
:1002A000CE018E0D9F1DF6012481358182179307A3
:1002B00010F0821B930BF60193838283C701DF91B9
:1002C000CF911F910F91FF90EF90DF90CF90BF9053
:1002D000AF900895CF92DF92EF92FF920F931F930A
:1002E000CF93DF9300D0CDB7DEB77C016B015A838B
:1002F000498321153105D1F0FC01868580FD09C0B7
:10030000CA012417350708F4C9019A83898381E05B
:1003100010C02017310760F042E050E0BE016F5F6F
:100320007F4FC7010E94210181E003C080E001C02E
:1003300080E0882339F049815A81B601C7010E94C3
:10034000210102C080E090E00F900F90DF91CF91EB
:100350001F910F91FF90EF90DF90CF900895AF9293
:10036000BF92CF92DF92EF92FF920F931F93CF93A2
:10037000DF93C42FD52F2C173D0708F4E9012097F0
:1003800091F1FC01E080F180248135812E193F0933
:100390005E012C173D0708F459016B018C01FC012B
:1003A000648575856E0D7F1DA501C6010E94031829
:1003B000AC16BD0658F4AE014A195B09F801648514
:1003C0007585C6018A0D9B1D0E940318EC0EFD1E4B
:1003D000F80184819581E816F90610F0E81AF90A07
:1003E000F801F182E082CE01DF91CF911F910F9150
:1003F000FF90EF90DF90CF90BF90AF9008956F92F5
:100400007F928F929F92AF92BF92CF92DF92EF92A4
:10041000FF920F931F93CF93DF9300D0CDB7DEB73A
:100420006C014B015A01790101151105B9F0FC016C
:1004300060807180A801BE016F5F7F4F0E94AF0195
:1004400089819A81E01AF10AA816B90630F4F601FA
:1004500071826082A12CB12C01C05C019701A501C1
:10046000B401C6010E94AF010F900F90DF91CF91B0
:100470001F910F91FF90EF90DF90CF90BF90AF90C2
:100480009F908F907F906F900895CF92DF92EF9220
:10049000FF920F93CF93DF937B01413011F401E082
:1004A00001C000E0E114F10419F4EE24E394F12C0E
:1004B0006C012FEFC21AD20A40960E94D70CEC01B1
:1004C000009739F09701A601BC01615F7F4F0E9440
:1004D0001101CE01DF91CF910F91FF90EF90DF904E
:1004E000CF900895FC01268521FD03C00E940C0DCC
:1004F00008952FE0FC0111922A95E9F708950F93D2
:100500000FB6F8940F92FC0120853185232B79F4E6
:1005100022853385232B69F42681378144815581D7
:100520006485758506850E94110181E003C080E025
:1005300001C080E00F900FBE0F9108956115710505
:1005400011F461E070E0FC01248135812617370742
:1005500020F07783668381E0089580E00895FC01B0
:100560002481358180819181820F931F4281538143
:10057000841B950B01978217930710F0821B930B36
:1005800008950E94FE0008954F925F926F927F92AD
:100590008F929F92AF92BF92CF92DF92EF92FF9293
:1005A0000F931F93CF93DF9300D000D01F92CDB74E
:1005B000DEB76C012B013A013D832C83FC0186855B
:1005C00080FF05C04A01F2E08F0E911C01C04A0174
:1005D0008C819D81892BA9F1CE0101960E94CA13BD
:1005E0000FB6F8940F92C6010E94AF025C01881505
:1005F000990520F580E090E00E948D160E94181465
:10060000F601938782870F900FBEEC80FD8000E09B
:1006100010E020E030E0A90160E070E0CB010E9432
:100620008B14F60113861286BE016C5F7F4FCE01DC
:1006300001960E94E513882399F205C00F900FBE22
:1006400002C0A12CB12CA114B10421F4C6010E9456
:10065000AF025C0184019501A301B201C6010E94B1
:100660006A017C01892B01F1C6010E94FE00F6019E
:100670002681378182179307B8F00E942811F6016E
:1006800080859185892B71F08085918500E010E04F
:1006900020E030E040E050E0BA010E940F15F60182
:1006A000118610860E940212C7010F900F900F90C2
:1006B0000F900F90DF91CF911F910F91FF90EF90CE
:1006C000DF90CF90BF90AF909F908F907F906F9072
:1006D0005F904F900895AF92BF92CF92DF92EF92CA
:1006E000FF920F931F93CF93DF93EC015B016A019D
:1006F00079018E8580FF04C08A010E5F1F4F01C003
:100700008A01CE010E94AF029C01A601B501CE0173
:100710000E946A016C01892BC9F0CE010E94FE0083
:100720002E813F818217930788F088859985892BD0
:1007300069F08885998500E010E020E030E040E035
:1007400050E0BA010E94981519861886C601DF91FB
:10075000CF911F910F91FF90EF90DF90CF90BF90BE
:10076000AF9008958F929F92AF92BF92CF92DF92F7
:10077000EF92FF920F931F93CF93DF93EC015B01F6
:100780004A0189018E8580FF05C06894CC24C1F898
:10079000D12C02C0C12CD12C0115110549F10FB685
:1007A000F8940F92CE010E94FE007C01C816D90673
:1007B00040F080E090E00E948D160E941814998706
:1007C00088870F900FBECE14DF04B0F0780100E0F0
:1007D00010E020E030E0A90160E070E0CB010E9471
:1007E0008B1419861886CE010E94FE007C0104C07D
:1007F000CE010E94FE007C01CE14DF0400F58601CC
:100800009701A401B501CE010E94FF017C01892B53
:10081000C1F00E9428118A859B85892B69F08A8501
:100820009B8500E010E020E030E040E050E0BA01BD
:100830000E940F151B861A860E94021202C0E12C2C
:10084000F12CC701DF91CF911F910F91FF90EF9095
:10085000DF90CF90BF90AF909F908F900895EF92D0
:10086000FF920F931F93CF93DF9300D0CDB7DEB7E6
:10087000FC01268520FF18C08C010E94FE008330F9
:100880009105A8F0F801E080F1809C0142E050E081
:10089000BE016F5F7F4FC8010E94AF0189819A81BD
:1008A000F801F182E08205C080E090E002C080E0C3
:1008B00090E00F900F90DF91CF911F910F91FF90DB
:1008C000EF900895AF92BF92CF92DF92EF92FF9296
:1008D0000F931F93CF93DF93EC016B015A017901C2
:1008E0008E8580FF03C002E010E002C000E010E04F
:1008F000CE010E94FE0008171907D8F49C01A5013B
:10090000B601CE010E94FF016C01892BA1F08A85FE
:100910009B85892B81F08A859B8500E010E020E093
:1009200030E040E050E0BA010E9498151B861A861C
:1009300002C0C12CD12CC601DF91CF911F910F9124
:10094000FF90EF90DF90CF90BF90AF900895FC01A3
:1009500020813181828193812817390711F481E048
:10096000089580E00895CF93DF93FC01268520FF52
:1009700003C0C2E0D0E002C0C0E0D0E00E94AF02FD
:10098000C817D90710F081E001C080E0DF91CF9156
:100990000895EF92FF920F931F93CF93DF93FC0183
:1009A00020853185232B89F07B01EC0180859185A1
:1009B00000E010E020E030E040E050E0BA010E94AA
:1009C00098151986188681E001C080E0DF91CF91EB
:1009D0001F910F91FF90EF900895EF92FF920F9368
:1009E0001F93CF93DF93FC0122853385232B89F05E
:1009F0007B01EC018285938500E010E020E030E08F
:100A000040E050E0BA010E9498151B861A8681E0EA
:100A100001C080E0DF91CF911F910F91FF90EF9087
:100A200008950FB6F8940F92FC01828D811102C0D7
:100A300081E001C080E00F900FBE08950FB6F894DA
:100A40000F92FC01228D838D281302C081E001C02A
:100A500080E00F900FBE08950F931F93CF93DF9305
:100A6000EC01042F1A8D4C8D4423B9F1011116C0ED
:100A700050E08A819B810E9403182C8D8A819B8182
:100A8000820F911D9B838A832C813D81821793075E
:100A900020F1888199819B838A831FC050E08E81D9
:100AA0009F810E9403188C8D90E09195819591090A
:100AB0002E813F81280F391F3F832E834881598122
:100AC0002417350730F42C813D81820F931F9F83BB
:100AD0008E83023011F4111111501F5F1A8F80E0C4
:100AE000DF91CF911F910F910895FC01448D442314
:100AF000A9F050E026813781240F351F37832683E4
:100B0000848195812817390720F08081918197830E
:100B10008683CB01668177810E94031808951F9315
:100B2000CF93DF93EC010FB6F8940F921E8D0BC09C
:100B30008989882351F0CE0141960E944A13811180
:100B40000E941414115011169CF38FEF8E8F0F908A
:100B50000FBE0FB6F8940F921D8D0BC088858823A9
:100B600051F0CE0108960E944A1381110E9414147C
:100B7000115011169CF38FEF8D8F0F900FBEDF91E8
:100B8000CF911F910895CF93DF93EC010FB6F894A6
:100B90000F92E881F9818B8D2C8D90E030E0829F5F
:100BA000A001839F500D929F500D11244E0F5F1F87
:100BB0005D834C831A8EFB83EA830197289FA001F3
:100BC000299F500D389F500D1124CF01840F951F80
:100BD0009F838E838FEF8D8F8E8F61110CC08885E0
:100BE000882389F0CE0108960E944A13882359F081
:100BF0000E944B1708C0CE0108960E944C0CCE01F3
:100C000041960E944C0C0F900FBE81E0DF91CF9176
:100C100008950F931F93F801611103C0118300839E
:100C200002C051834083838F648F61E0CF010E94B3
:100C3000C3051F910F910895DF92EF92FF920F93DA
:100C40001F93CF93DF93E82EF62ED42E662321F048
:100C5000869FC001112402C080E090E04F960E9460
:100C6000D70CEC01009749F08C012D2DAC01415EB1
:100C70005F4F6F2D8E2D0E940906CE01DF91CF911F
:100C80001F910F91FF90EF90DF900895CF92DF9228
:100C9000EF92FF920F931F93CF93DF9300D000D07A
:100CA0001F92CDB7DEB78C017B015D834C83C22ED2
:100CB000D12C0FB6F8940F92F801928D838D98176E
:100CC00018F0F2E0CF1219C04C2DB701C8010E94F4
:100CD0002C05F8019189992349F0C80141960E9499
:100CE0004A13882331F00E944B1703C081110E94E0
:100CF0004B170F900FBE81E04DC08C819D81892BD9
:100D000021F40F900FBE80E045C0D11006C0CE0187
:100D100001960E94DA13DD24D3940F900FBE0E9437
:100D200028110FB6F8940F92F801858D8F3F09F4C2
:100D3000158EF801868D8F3F09F4168E0F900FBE29
:100D4000BE016C5F7F4FCE0101960E94E5138111B9
:100D50001BC0C8010E941E05882381F06C817D8123
:100D6000C80108960E941F13C8010E948F050E94A7
:100D7000021281119ECF0E944B179BCFC8010E9487
:100D80008F050E94021295CFC8010E948F050E9414
:100D9000021280E00F900F900F900F900F90DF9154
:100DA000CF911F910F91FF90EF90DF90CF9008951A
:100DB000EF92FF920F931F93CF93DF938A01FC0171
:100DC000528D338D531710F02230F1F4422F7801F9
:100DD000EC011E8D0E942C051F3F81F48989882318
:100DE000A9F0CE0141960E944A13882389F0E114AC
:100DF000F10481F081E0F70180830DC0FF24F394BA
:100E0000F10EFE8E81E007C080E005C081E003C0E6
:100E100081E001C081E0DF91CF911F910F91FF90A0
:100E2000EF900895CF93DF93FC01828D938D891706
:100E3000C0F4968D8F5F828F9F3F79F481898823DC
:100E400091F0EB01CF0141960E944A13882369F08B
:100E5000209769F081E088830BC09F5F968F81E0C7
:100E600007C080E005C081E003C081E001C081E0EF
:100E7000DF91CF910895CF92DF92EF92FF920F937F
:100E80001F93CF93DF9300D000D01F92CDB7DEB772
:100E90008C016B015D834C83E12C0FB6F8940F92AB
:100EA000F801F28CFF20A9F0B601C8010E94750577
:100EB000FA94F801F28E8085882339F0C8010896EB
:100EC0000E944A1381110E944B170F900FBE81E0C0
:100ED00053C08C819D81892B21F40F900FBE80E03F
:100EE0004BC0E11006C0CE0101960E94DA13EE2439
:100EF000E3940F900FBE0E9428110FB6F8940F9242
:100F0000F801858D8F3F09F4158EF801868D8F3F8E
:100F100009F4168E0F900FBEBE016C5F7F4FCE019D
:100F200001960E94E51381111BC0C8010E941105A2
:100F3000882381F06C817D81C80141960E941F1336
:100F4000C8010E948F050E9402128111A6CF0E9443
:100F50004B17A3CFC8010E948F050E9402129DCF9C
:100F6000C8010E948F050E940212C8010E9411054B
:100F7000882309F492CF80E00F900F900F900F908C
:100F80000F90DF91CF911F910F91FF90EF90DF9025
:100F9000CF900895FF920F931F93CF93DF9300D0CC
:100FA00000D01F92CDB7DEB78C017D836C83F12C0E
:100FB0000FB6F8940F92F801828D882381F081504A
:100FC000828F8085882339F0C80108960E944A13D1
:100FD00081110E944B170F900FBE81E053C08C818E
:100FE0009D81892B21F40F900FBE80E04BC0F11042
:100FF00006C0CE0101960E94DA13FF24F3940F90ED
:101000000FBE0E9428110FB6F8940F92F801858D3B
:101010008F3F09F4158EF801868D8F3F09F4168EE7
:101020000F900FBEBE016C5F7F4FCE0101960E94F4
:10103000E51381111BC0C8010E941105882381F0AE
:101040006C817D81C80141960E941F13C8010E94D6
:101050008F050E9402128111ABCF0E944B17A8CFBF
:10106000C8010E948F050E940212A2CFC8010E94EF
:101070008F050E940212C8010E941105882309F4FD
:1010800097CF80E00F900F900F900F900F90DF910F
:10109000CF911F910F91FF900895CF92DF92EF9221
:1010A000FF920F931F93CF93DF9300D000D01F9236
:1010B000CDB7DEB78C017B015D834C83D12C0FB69D
:1010C000F8940F92F801828D8823B9F0C680D780FA
:1010D000B701C8010E947505F801D782C6828189CF
:1010E000882339F0C80141960E944A1381110E9459
:1010F0004B170F900FBE81E053C08C819D81892BCF
:1011000021F40F900FBE80E04BC0D11006C0CE017D
:1011100001960E94DA13DD24D3940F900FBE0E9433
:1011200028110FB6F8940F92F801858D8F3F09F4BE
:10113000158EF801868D8F3F09F4168E0F900FBE25
:10114000BE016C5F7F4FCE0101960E94E5138111B5
:101150001BC0C8010E941105882381F06C817D812C
:10116000C80141960E941F13C8010E948F050E946A
:1011700002128111A4CF0E944B17A1CFC8010E9477
:101180008F050E9402129BCFC8010E948F050E940A
:101190000212C8010E941105882309F490CF80E053
:1011A0000F900F900F900F900F90DF91CF911F91A4
:1011B0000F91FF90EF90DF90CF900895EF92FF9204
:1011C0000F931F93CF93DF93FC01C28DCC23F9F0D3
:1011D0007A018C01D58D0E947505C150F801C28F2E
:1011E000DF3F81F480858823A1F0C80108960E9422
:1011F0004A13882381F0E114F10479F081E0F701CA
:1012000080830CC0DF5FF801D58F81E007C080E0EC
:1012100005C081E003C081E001C081E0DF91CF9192
:101220001F910F91FF90EF9008950F931F93CF930D
:10123000DF93FC01228D222349F0EC010681178106
:101240000E9475051F830E8381E001C080E0DF915D
:10125000CF911F910F9108950FB6F8940F92FC0152
:10126000828D0F900FBE0895FC010FB6F8940F9277
:10127000938D828D981B892F0F900FBE0895FC01CE
:10128000828D08950E940C0D0895FC01828D8111BC
:1012900002C081E0089580E00895FC01228D838DD5
:1012A000281302C081E0089580E00895EF92FF9234
:1012B0000F931F93CF93DF93EC017B018A01F89486
:1012C0000E941E05882379F00115110549F0BE0121
:1012D000685F7F4FC8010E948B0B78948CEF1FC012
:1012E000789480E01CC07894F8949A8D8B8D981730
:1012F00080F440E0B701CE010E942C058989882343
:1013000051F0CE0141960E94260C811106C081E069
:1013100005C080E003C081E001C08BEF7894DF91CD
:10132000CF911F910F91FF90EF900895CF93DF938E
:10133000EC019B01F8949A8D91110FC04115510554
:1013400049F0BE016F5E7F4FCA010E948B0B7894FB
:101350008CEF32C0789480E02FC07894F8948A8D16
:10136000882321F14C8D50E08E819F81840F951F41
:101370009F838E836C817D818617970720F08881FB
:1013800099819F838E838A8D81508A8F6E817F8120
:10139000C9010E9403188885882351F0CE01089660
:1013A0000E94260C811106C081E005C080E003C0C8
:1013B00081E001C08BEF7894DF91CF9108950F9376
:1013C0001F93CF93FC01328D238D321798F4C42FD5
:1013D0008C0140E00E942C05C1110EC0F8018189EA
:1013E000882361F0C80141960E94260C882341F0B1
:1013F00081E007C0842F05C08C2F03C08C2F01C053
:101400008C2FCF911F910F9108950F931F93CF931E
:10141000DF93FC01828D882369F1248D30E0A68161
:10142000B781A20FB31FB783A68384819581A817C4
:10143000B90720F080819181978386838A01CB014F
:10144000EF01428D4150428F66817781A9010E9450
:101450000318F801808181110FC08885882371F0FD
:10146000CE0108960E94260C882351F081E0F801F5
:10147000808307C080E005C081E003C081E001C037
:1014800081E0DF91CF911F910F910895CF93C0E03C
:1014900010C08C2F90E09C01220F331F220F331FAE
:1014A000220F331F820F931F885C9E4F0E944C0CAB
:1014B000CF5FC23070F38FE291E00E944C0C86E265
:1014C00091E00E944C0C89E191E00E944C0C8FE26B
:1014D00091E0909325018093240186E291E090931E
:1014E000230180932201CF9108950F931F93CF93EF
:1014F000DF9328C0F894E0911E01F0911F01C6818E
:10150000D781CE010C960E94B00C78948E010E5FAC
:101510001F4FC8010E94B00C8E8990911801981736
:1015200010F48093180190E09C01220F331F220FCA
:10153000331F220F331F820F931FB801885C9E4F09
:101540000E945E0C809119018111D4CFDF91CF915F
:101550001F910F9108950F931F93CF93DF930E94D4
:101560002E112091140130911501821B930B909341
:101570001301809312015EC0209116013091170172
:101580002F5F3F4F309317012093160101979093DF
:10159000130180931201232B09F045C0809124018F
:1015A0009091250120912201309123013093250152
:1015B00020932401909323018093220134C005805D
:1015C000F681E02DC681D7812A813B818091160169
:1015D000909117018217930768F1F8948E010E5FBE
:1015E0001F4FC8010E94B00C8C899D89892B21F066
:1015F000CE010C960E94B00C78948E8990911801BF
:10160000981710F48093180190E09C01220F331F6B
:10161000220F331F220F331F820F931FB801885CE4
:101620009E4F0E945E0CE0912401F0912501808183
:101630008111C5CF8091120190911301009709F09B
:101640009BCF809116019091170190931501809383
:101650001401DF91CF911F910F910895CF92DF92E6
:10166000FF920F931F93CF93DF936C01F62E142FED
:101670008AE190E00E94D70CEC01892B09F442C06A
:101680008091100190911101892B31F4D0931101B7
:10169000C09310010E94460A81E08F1510F4FF24C8
:1016A000F394198E188EFE8A1F8BFE01C192D1927F
:1016B0008F01CF010E945A0CCE010C960E945A0C49
:1016C000D987C887DB8BCA8B82E090E08F1991099C
:1016D0009D878C878E8990911801981710F48093BC
:1016E000180190E09C01220F331F220F331F220F9D
:1016F000331F820F931FB801885C9E4F0E945E0CBF
:1017000081E001C08FEFDF91CF911F910F91FF908A
:10171000DF90CF9008950F931F93CF93DF938B01AA
:10172000C0911601D0911701C80FD91F80911001E7
:101730009091110102960E94B00CE0911001F0917D
:101740001101D383C2838091160190911701C817AC
:10175000D90750F4BF016E5F7F4F809122019091B5
:1017600023010E947F0C09C0BF016E5F7F4F8091F3
:101770002401909125010E947F0C0115110549F06B
:101780006091100170911101645F7F4FC8010E9448
:101790007F0CDF91CF911F910F9108950E94750AE0
:1017A0000E94AB0A06C0882309F44FC08150809381
:1017B000180180911801282F30E0F901EE0FFF1F6A
:1017C000EE0FFF1FEE0FFF1FE20FF31FE85CFE4F4F
:1017D0009081992341F3C901880F991F880F991FA0
:1017E000880F991F820F931FDF010180F281E02D86
:1017F0000280F381E02D1296FC93EE931197855CA5
:101800009E4FE817F90729F482819381FD019283A5
:101810008183F901EE0FFF1FEE0FFF1FEE0FFF1F79
:101820002E0F3F1FF901E85CFE4F0180F281E02D91
:10183000868197819093110180931001DC01ED91D5
:10184000FC91119757966C91099508950F931F93EA
:10185000CF93DF93DC011596ED91FC911697C6812D
:10186000D7818E01045F1F4FC8010E94B00CB801E0
:1018700089E191E00E945E0C9E89E0911001F09157
:1018800011018689981710F081E001C080E0DF9196
:10189000CF911F910F910895FC010396928381834C
:1018A0002FEF3FEF3483238396838583908787834D
:1018B00010820895FC01118610860895CF93DF935E
:1018C0009C01FB01DC011196CD91DC911297D38331
:1018D000C2838C819D81958384838C819D81DC0171
:1018E00013967C936E9312977D836C833187208748
:1018F000F90180818F5F8083DF91CF910895CF932D
:10190000DF93EB01488159814F3F2FEF520721F4BC
:10191000FC01A781B0850DC0DC01139601C0DF0179
:101920001296ED91FC911397208131814217530754
:10193000B0F71296ED91FC911397FB83EA83D58360
:10194000C483BD83AC831396DC93CE93129799879F
:101950008887FC0120812F5F2083DF91CF9108953C
:10196000CF93DF93FC01A085B185C281D3818481AF
:1019700095819D838C83C481D581828193819B8352
:101980008A8311968D919C911297E817F90731F48B
:101990008481958112969C938E931197118610865F
:1019A0008C9181508C938C91DF91CF910895CF933E
:1019B000DF93EC010E94281180914A0190914B0124
:1019C000892B31F48FE491E090934B0180934A018D
:1019D00020914C0130914D01C9018C0F9D1F8B3D11
:1019E00045E0940770F42817390770F4C0914A0154
:1019F000D0914B01C20FD31F90934D0180934C01A6
:101A000005C0C0E0D0E002C0C0E0D0E00E940212F9
:101A1000CE01DF91CF910895089510924D0110925B
:101A20004C01089520914C0130914D018BED95E0D2
:101A3000821B930B0895411106C068237923672BFD
:101A400049F480E00895862397236817790721F0E9
:101A500080E0089581E0089581E00895CF93DF93B9
:101A60008BE090E00E94D70CEC01009731F0FC0174
:101A700011921192CF010E944C0CCE01DF91CF91B7
:101A80000895AF92BF92CF92DF92EF92FF920F93A1
:101A90001F93CF93DF937C015B01C42ED22E0E9453
:101AA0002811F701C081D1814D2DB501CE010E94D1
:101AB0001B0D882369F0CC2009F1C5018095909514
:101AC0008C239D23F7019183808300E010E018C0F0
:101AD00001151105A9F0C11003C060E070E002C05B
:101AE00060E071E0D11074606A297B29A801C70108
:101AF00002960E943113C0E0D0E002C000E010E086
:101B00000E940212012B19F1811102C00E944B1791
:101B10000E941D14EC0191FD19C00FB6F8940F92AC
:101B2000F701C081D1814D2DB501CE010E941B0D61
:101B3000882351F0CC2041F0B501609570956C235D
:101B40007D23F701718360830F900FBEDD27CE01E7
:101B5000DF91CF911F910F91FF90EF90DF90CF9089
:101B6000BF90AF900895FC010FB6F8940F9280815A
:101B700091816095709568237923718360830F90BC
:101B80000FBE0895FC01808191810895CF92DF926C
:101B9000EF92FF920F931F93CF93DF937C018B0102
:101BA000EC0125960E942811D7011796ED91FC9122
:101BB00018978D919C911197082B192B0D931C93BD
:101BC00000E010E02DC0C280D380808191819C0113
:101BD000332792FD09C0D7014D915C9142235323D5
:101BE000452B61F440E00DC0D7014D915C9142233B
:101BF00053232417350721F040E003C041E001C022
:101C000041E0442359F090FF02C0022B132BD7016F
:101C10006D917C917260CF010E949213EC2DFD2D8D
:101C2000EC17FD0781F600951095F70180819181F1
:101C300008231923118300830E940212D7018D917A
:101C40009C91DF91CF911F910F91FF90EF90DF90CA
:101C5000CF900895AF92BF92CF92DF92EF92FF9212
:101C60000F931F93CF93DF938C01EB017A016901EE
:101C70000E942811F801A080B180BE01C8010E9415
:101C8000C60DCA29DB29CE018E219F21E816F9064F
:101C900069F4F80120813181C701809590958223F4
:101CA000932391838083C12CD12C10C0C114D10403
:101CB00051F0A601B7017560C80102960E94311368
:101CC000C0E0D0E003C0F801C081D1810E940212BF
:101CD000CD28F9F0811102C00E944B170E941D14FB
:101CE00091FD15C00FB6F8940F92F8018081918193
:101CF000970128233923E216F30639F4A70140950A
:101D0000509548235923518340830F900FBEEC0117
:101D1000DD27CE01DF91CF911F910F91FF90EF90C2
:101D2000DF90CF90BF90AF900895CF93DF93EC01F9
:101D30000E94281106C060E072E08F8198850E94A1
:101D400092138A818111F7CFCE010E940C0D0E945F
:101D50000212DF91CF910895BA010E94C60D089535
:101D6000BA010E94B30D0895E0914F07F09150071A
:101D70008081811107C08FEF9FEF90933007809390
:101D80002F070895E0914F07F09150070580F681E5
:101D9000E02D0680F781E02D8281938190933007BA
:101DA00080932F070895CF93DF93EC018F89988D4F
:101DB0000E940C0DCE010E940C0DDF91CF91089571
:101DC0006F927F928F929F92AF92BF92CF92DF924B
:101DD000EF920F931F93CF93DF93CDB7DEB74C01F4
:101DE000F5018789908D215031093C01620E731EE7
:101DF0006115710589F416C0822F90E0FB01E80F90
:101E0000F91F3081D501A80FB91F59963C938081E5
:101E1000882329F02F5F01C020E0283068F3F50106
:101E200010A202C0F501118EF3E0FE1520F40F2E72
:101E3000F3E0EF2EF02DF501E68AC50102960E942F
:101E40005A0CC5010C960E945A0CF501B186A08669
:101E500084E090E08E19910995878487B38AA28ADD
:101E600011A212A213A214A215A2A801B401C301C7
:101E70000E94AF16F50191838083C114D10419F03B
:101E8000F601B182A082DF91CF911F910F91EF9067
:101E9000DF90CF90BF90AF909F908F907F906F908A
:101EA0000895CF93C0E010C08C2F90E09C01220FCA
:101EB000331F220F331F220F331F820F931F8D59A1
:101EC000984F0E944C0CCF5FC43070F38AE597E0C6
:101ED0000E944C0C81E597E00E944C0C84E497E052
:101EE0000E944C0C8BE397E00E944C0C8AE597E033
:101EF0009093500780934F0781E597E090934E07AA
:101F000080934D07CF910895CF93DF93EC010FB6E7
:101F1000F8940F92809139078F5F809339078091F1
:101F20002A0790912B07892B59F4D0932B07C09344
:101F30002A0780913907813099F40E94510F10C00F
:101F40008091350781110CC0E0912A07F0912B0791
:101F500096898E89891720F0D0932B07C0932A0782
:101F6000809131078F5F809331078E89909136077A
:101F7000981710F48093360790E09C01220F331FCE
:101F8000220F331F220F331F820F931FBE016E5F7C
:101F90007F4F8D59984F0E945E0C0F900FBE80911D
:101FA0003507882351F0E0912A07F0912B07968995
:101FB0008E89981710F40E944B17DF91CF910895E6
:101FC000CF93DF931CC00FB6F8940F92E0914007B7
:101FD000F0914107C681D781CE0102960E94B00CD4
:101FE0008091390781508093390780913A07815059
:101FF00080933A070F900FBECE010E94D30E8091BE
:102000003A078111E0CFDF91CF9108950E94E00F50
:10201000809163078230D0F30E944B17F7CF0F9364
:102020001F93CF93DF93EC0100913707109138078E
:1020300080912A0790912B0702960E94B00CC00F46
:10204000D11FE0912A07F0912B07D383C283C017D9
:10205000D10768F460912A0770912B0780914D0792
:1020600090914E076E5F7F4F0E947F0C17C060916A
:102070002A0770912B0780914F07909150076E5F50
:102080007F4F0E947F0C80912F0790913007C817D7
:10209000D90720F4D0933007C0932F07DF91CF9159
:1020A0001F910F9108952F923F924F925F926F92DE
:1020B0007F928F929F92AF92BF92CF92DF92EF92D8
:1020C000FF920F931F93CF93DF933C011B015A01A3
:1020D0002901CA010E94D70C6C01892B71F086E29C
:1020E00090E00E94D70CEC01892B19F0D88ECF8A92
:1020F00006C0C6010E940C0D02C0C0E0D0E02097CF
:1021000091F0950140E050E0812C912C5E01670137
:10211000E02E8201B101C3010E94E00ECE010E94B7
:10212000840F81E001C08FEFDF91CF911F910F915C
:10213000FF90EF90DF90CF90BF90AF909F908F90E7
:102140007F906F905F904F903F902F9008950F93E6
:102150001F93CF93DF93EC010FB6F8940F92892B66
:1021600021F4C0912A07D0912B078E010E5F1F4FDB
:10217000C8010E94B00C8C899D89892B21F0CE0169
:102180000C960E94B00C809131078F5F80933107CD
:1021900080912A0790912B07C817D90759F4B801E5
:1021A0008BE397E00E945E0C80913A078F5F8093EB
:1021B0003A070AC080913907815080933907CE01D0
:1021C0000E94D30E0E94B40E0F900FBE809135076F
:1021D000882349F080912A0790912B07C817D907C7
:1021E00011F40E944B17DF91CF911F910F91089529
:1021F000EF92FF920F930F2EFDE2EF2EF7E0FF2EEE
:10220000F02D00E020E030E045E550E06BE071E0CB
:1022100086E090E10E945310813081F4F8948FEFB2
:102220009FEF9093300780932F0781E080933507CD
:1022300010923807109237070E941B170F91FF90DA
:10224000EF900895F894109235070E944A17089568
:1022500080912C078F5F80932C0708950FB6F89418
:102260000F9280913707909138070F900FBE089515
:102270008091370790913807089580913907089524
:10228000009721F480912A0790912B074996089591
:10229000DF92EF92FF920F931F93CF93DF93809182
:1022A0002C07811197C0E0903707F09038078FEF27
:1022B000E81AF80AF0923807E0923707E114F104BF
:1022C000B9F480914F079091500720914D073091BC
:1022D0004E073093500720934F0790934E078093FB
:1022E0004D07809132078F5F809332070E94B40EB2
:1022F00080912F0790913007E816F90628F4D12C29
:1023000053C0DD24D39401C0D12CE0914F07F0914C
:1023100050078081811107C08FEF9FEF90933007A6
:1023200080932F0741C0E0914F07F091500705803F
:10233000F681E02DC681D7818A819B81E816F90656
:1023400028F49093300780932F072EC08E010E5FE4
:102350001F4FC8010E94B00C8C899D89892B21F0E8
:10236000CE010C960E94B00C8E899091360798177A
:1023700010F48093360790E09C01220F331F220F48
:10238000331F220F331F820F931FB8018D59984FAF
:102390000E945E0C9E89E0912A07F0912B078689A6
:1023A000981708F0AECFB1CFE0912A07F0912B0734
:1023B000868990E0FC01EE0FFF1FEE0FFF1FEE0F6E
:1023C000FF1F8E0F9F1FFC01ED59F84F8081823057
:1023D00040F409C0809134078F5F80933407D12C7B
:1023E00002C0DD24D39480913307882311F0DD24CB
:1023F000D3948D2DDF91CF911F910F91FF90EF908E
:10240000DF9008950F931F93CF93DF930FB6F89447
:102410000F9280912C07815080932C0780912C077C
:10242000811158C080913907811133C056C0E091A5
:102430004907F0914A07C681D781CE010C960E94C8
:10244000B00C8E010E5F1F4FC8010E94B00C8E8928
:1024500090913607981710F48093360790E09C010E
:10246000220F331F220F331F220F331F820F931FA0
:10247000B8018D59984F0E945E0C9E89E0912A0701
:10248000F0912B078689981730F081E0809333070D
:1024900002C0C0E0D0E0809144078111C8CFCD2BAD
:1024A00011F00E94B40EC0913407CC2359F00E9461
:1024B0004811882319F081E080933307C150B9F7A0
:1024C0001092340780913307882331F00E944B1714
:1024D00081E003C080E001C080E00F900FBEDF917B
:1024E000CF911F910F9108950F931F93CF93DF9377
:1024F0008C01EB010E942811409137075091380759
:10250000F80120813181C9018C0F9D1F42175307AB
:1025100040F48217930768F44817590760F020E0E9
:102520000FC08217930748F04817590740F020E082
:1025300007C020E005C021E003C021E001C021E088
:10254000F80191838083222329F060E0841B950B9E
:102550000E940F100E940212811102C00E944B17AC
:10256000DF91CF911F910F910895CF93DF93EC01ED
:10257000892B49F00E94281160E0CE010E940F10C3
:102580000E94021201C080E0811102C00E944B171C
:10259000DF91CF91089580912C07882321F081E06D
:1025A000809333070895109233072091360701C0B6
:1025B0002150822F90E0FC01EE0FFF1FEE0FFF1F56
:1025C000EE0FFF1FE80FF91FED59F84F308133234D
:1025D00079F3AC01440F551F440F551F440F551F8D
:1025E000480F591FDF010180F281E02D0280F38145
:1025F000E02D1296FC93EE9311974A59584FE41729
:10260000F50729F442815381FD0152834183FC0186
:10261000EE0FFF1FEE0FFF1FEE0FFF1F8E0F9F1F0E
:10262000FC01ED59F84F0180F281E02D8681978100
:1026300090932B0780932A07209336070895CF9312
:10264000DF93EB0160912A0770912B07645F7F4F46
:102650000E947F0C61E0CE010E940F10DF91CF91AC
:102660000895CF93DF93EA01E0912A07F0912B07B9
:1026700070687587648760912A0770912B07645F83
:102680007F4F0E945E0C61E0CE010E940F10DF912F
:10269000CF9108950F931F93CF93DF93DC0115968D
:1026A000ED91FC911697C681D7818E01045F1F4F73
:1026B000C8010E94B00C80912C0781111CC00A50E7
:1026C0001109C8010E94B00C8E89909136079817A5
:1026D00010F48093360790E09C01220F331F220FE5
:1026E000331F220F331F820F931FB8018D59984F4C
:1026F0000E945E0C05C0B80184E497E00E945E0C65
:102700009E89E0912A07F0912B078689891720F48A
:1027100081E08093330701C080E0DF91CF911F916A
:102720000F9108950F931F93CF93DF937068FC016F
:1027300071836083C681D7810E94B00C8E010E5FC9
:102740001F4FC8010E94B00C8E89909136079817D0
:1027500010F48093360790E09C01220F331F220F64
:10276000331F220F331F820F931FB8018D59984FCB
:102770000E945E0C9E89E0912A07F0912B078689C2
:10278000891718F481E080933307DF91CF911F916F
:102790000F9108950FB6F8940F9220913207FC0123
:1027A00020832091370730913807328321830F909F
:1027B0000FBE089520913207FC0120832091370736
:1027C00030913807328321830895CF93DF930FB67A
:1027D000F8940F924091370750913807EC01298106
:1027E0003A81DA01A21BB30BF881E0913207FE17A0
:1027F00019F04217530790F4FB0120813181A21791
:10280000B30740F42A1B3B0B318320830E94DA1369
:1028100080E005C01182108281E001C081E00F904C
:102820000FBEDF91CF91089581E080933307089523
:1028300080912A0790912B070895E0912A07F09143
:102840002B0784859585E0912A07F0912B07A091AD
:102850002A07B0912B0756964C9124E030E0241BB8
:1028600031093587248708950F931F93CF93C82F7D
:10287000CB010FB6F8940F92E0912A07F0912B0745
:1028800041A152A163A174A1452B462B472B69F4AA
:10289000E0912A07F0912B0721E025A3009729F06A
:1028A00061E00E940F100E944B170F900FBE0FB6F1
:1028B000F8940F92E0912A07F0912B0761A172A181
:1028C00083A194A16115710581059105C9F0CC23FF
:1028D00049F0E0912A07F0912B0711A212A213A24E
:1028E00014A20EC0E0912A07F0912B078B019C01E6
:1028F000015011092109310901A312A323A334A313
:10290000E0912A07F0912B0715A20F900FBECF91EF
:102910001F910F9108954F925F926F927F928F92C5
:102920009F92AF92BF92EF92FF920F931F93490134
:102930005A010FB6F8940F92E0912A07F0912B07F5
:1029400025A1223029F1E0912A07F0912B0741A01F
:1029500052A063A074A0DC01CB0180959095A09556
:10296000B09584219521A621B72181A392A3A3A389
:10297000B4A3E0912A07F0912B0781E085A3E1142D
:10298000F10431F061E0C7010E940F100E944B1763
:102990000F900FBE0FB6F8940F920115110569F054
:1029A000E0912A07F0912B0781A192A1A3A1B4A1E4
:1029B000F80180839183A283B383E0912A07F09189
:1029C0002B0785A18230B1F4E0912A07F0912B0703
:1029D00081A192A1A3A1B4A180949094A094B09459
:1029E00088229922AA22BB2281A292A2A3A2B4A2E7
:1029F00081E001C080E0E0912A07F0912B0715A249
:102A00000F900FBE1F910F91FF90EF90BF90AF906E
:102A10009F908F907F906F905F904F900895EF926E
:102A2000FF920F931F93CF93DF93FC010FB6F8949F
:102A30000F920115110549F081A192A1A3A1B4A1A2
:102A4000E80188839983AA83BB8385A192E095A33B
:102A500022303105D1F020F42130310541F031C070
:102A60002330310501F12430310519F12AC001A1CB
:102A700012A123A134A1402B512B622B732B41A314
:102A800052A363A374A311E01FC041A152A163A18B
:102A900074A14F5F5F4F6F4F7F4F41A352A363A35A
:102AA00074A311E011C041A352A363A374A311E066
:102AB0000BC0823041F041A352A363A374A311E081
:102AC00003C011E001C010E0813041F5EF017F014A
:102AD00082E0E80EF11CC7010E94B00C8E89909133
:102AE0003607981710F48093360790E09C01220F68
:102AF000331F220F331F220F331F820F931FB70183
:102B00008D59984F0E945E0C9E89E0912A07F091A2
:102B10002B078689891710F40E944B170F900FBE60
:102B2000812FDF91CF911F910F91FF90EF9008952A
:102B3000CF92DF92EF92FF920F931F93CF93DF9389
:102B4000FC010115110549F081A192A1A3A1B4A135
:102B5000E80188839983AA83BB8385A192E095A32A
:102B600022303105D1F020F42130310541F031C05F
:102B70002330310501F12430310519F12AC001A1BA
:102B800012A123A134A1402B512B622B732B41A303
:102B900052A363A374A311E01FC041A152A163A17A
:102BA00074A14F5F5F4F6F4F7F4F41A352A363A349
:102BB00074A311E011C041A352A363A374A311E055
:102BC0000BC0823041F041A352A363A374A311E070
:102BD00003C011E001C010E08130D9F5EF01809110
:102BE0002C0781111EC06F01E2E0CE0ED11CC60180
:102BF0000E94B00C8E8990913607981710F480933C
:102C0000360790E09C01220F331F220F331F220F43
:102C1000331F820F931FB6018D59984F0E945E0C8F
:102C200007C0BF01645F7F4F84E497E00E945E0CA1
:102C30009E89E0912A07F0912B078689891748F42D
:102C4000E114F10419F081E0E701888381E08093C9
:102C50003307812FDF91CF911F910F91FF90EF905C
:102C6000DF90CF900895EF92FF920F931F93CF9331
:102C7000DF93FC0125A182E085A381A192A1A3A1FC
:102C8000B4A10196A11DB11D81A392A3A3A3B4A3D6
:102C90002130E1F58B01EF0180912C0781111EC0DD
:102CA0007F0182E0E80EF11CC7010E94B00C8E8902
:102CB00090913607981710F48093360790E09C01A6
:102CC000220F331F220F331F220F331F820F931F38
:102CD000B7018D59984F0E945E0C07C0BF01645F19
:102CE0007F4F84E497E00E945E0C9E89E0912A0762
:102CF000F0912B078689891748F40115110519F001
:102D000081E0F801808381E080933307DF91CF91E8
:102D10001F910F91FF90EF900895009721F48091FB
:102D20002A0790912B070FB6F8940F92FC0125A16A
:102D3000223019F415A281E001C080E00F900FBE8F
:102D40000895109289008CE7809388008BE080932F
:102D50008100EFE6F0E0808182608083089531E1B8
:102D6000FC013083319722E220833197A3E3A083D3
:102D7000319760833197708331971082319760E883
:102D8000608331971082319762E06083319763E00E
:102D90006083319764E06083319765E060833197A9
:102DA00066E06083319767E06083319768E0608315
:102DB000319769E06083319760E1608331973083B8
:102DC000319732E13083319733E13083319734E109
:102DD0003083319735E13083319736E13083319755
:102DE00037E13083319738E13083319739E13083EF
:102DF000319730E23083319731E23083319720834D
:102E0000319723E220833197408331975083319764
:102E100026E22083319727E22083319728E220831E
:102E2000319729E22083319720E32083319721E3F2
:102E30002083869708950E94A116A0912A07B09139
:102E40002B07CD91CDBFDD91DEBFFF91EF91DF91DB
:102E5000CF91BF91AF919F918F917F916F915F9132
:102E60004F913F912F911F910F91FF90EF90DF9025
:102E7000CF90BF90AF909F908F907F906F905F901A
:102E80004F903F902F901F900F900FBE0F9008957E
:102E900081E0089508950F920FB6F8940F921F9253
:102EA00011242F923F924F925F926F927F928F9256
:102EB0009F92AF92BF92CF92DF92EF92FF920F93C9
:102EC0001F932F933F934F935F936F937F938F93B2
:102ED0009F93AF93BF93CF93DF93EF93FF93A09113
:102EE0002A07B0912B070DB60D920EB60D920E94D7
:102EF000CB12A0912A07B0912B07CD91CDBFDD91C8
:102F0000DEBFFF91EF91DF91CF91BF91AF919F9184
:102F10008F917F916F915F914F913F912F911F9171
:102F20000F91FF90EF90DF90CF90BF90AF909F9068
:102F30008F907F906F905F904F903F902F901F9059
:102F40000F900FBE0F9008950F920FB6F8940F9246
:102F50001F9211242F923F924F925F926F927F9215
:102F60008F929F92AF92BF92CF92DF92EF92FF9299
:102F70000F931F932F933F934F935F936F937F9381
:102F80008F939F93AF93BF93CF93DF93EF93FF9371
:102F9000A0912A07B0912B070DB60D920EB60D9297
:102FA0000E94481181110E94CB12A0912A07B09172
:102FB0002B07CD91CDBFDD91DEBFFF91EF91DF916A
:102FC000CF91BF91AF919F918F917F916F915F91C1
:102FD0004F913F912F911F910F91FF90EF90DF90B4
:102FE000CF90BF90AF909F908F907F906F905F90A9
:102FF0004F903F902F901F900F900FBE0F9008950D
:103000000E94A4171895FB01DC0102C001900D92EB
:0C30100041505040D8F70895F894FFCFCD
:10301C004C65645365635461736B0049444C4500C3
:00000001FF
