:100000000C944D000C946C000C946C000C946C00DF
:100010000C946C000C946C000C946C000C946C00B0
:100020000C946C000C946C000C946C000C946C00A0
:100030000C946C000C9420040C946C000C946C00D8
:100040000C946C000C946C000C946C000C946C0080
:100050000C946C000C946C000C946C000C946C0070
:100060000C946C000C946C000C946C000C946C0060
:100070000C946C000C946C000C946C000C946C0050
:100080000C946C000C946C000C946C00880097002D
:10009000A400B100BE00CB00D00011241FBECFEFE2
:1000A000D0E4DEBFCDBF11E0A0E0B1E0E4EFF9E0C5
:1000B00000E00BBF02C007900D92A632B107D9F73E
:1000C00021E0A6E2B1E001C01D92A237B207E1F73C
:1000D0000E946F040C94F8040C940000CF93C82F76
:1000E0008A3019F48DE00E946E008091C00085FF77
:1000F000FCCFC093C60080E090E0CF910895873098
:10010000910508F072C0FC01EA5BFF4F0C94EF040C
:10011000009B02C0019969C0009902C0019948C0C2
:10012000009B49C0019B4AC085E090E0089500997A
:1001300002C001995AC0009B02C0019942C00099B7
:1001400054C0019B41C0089580910D018F5F809341
:100150000D018330E0F183E080930D0180E090E0B9
:100160000895009B02C0019B40C0009B02C0019902
:1001700031C000993AC0019B30C0089580910D01B3
:10018000815080930D01823058F581E080930D01FC
:1001900080E090E00895009B28C0019924C0089554
:1001A00080910E01809580930E0180E090E008958B
:1001B00081E090E0089585E090E0089583E090E08C
:1001C000089582E090E0089585E090E0089580E051
:1001D00090E0089584E090E0089585E090E008952F
:1001E00080E090E0089586E090E00895009721F087
:1001F0008130910561F015C030912D0120910C01E5
:10020000321778F010922D0181E090E00AC0309111
:100210002D0120910C01321720F010922D0180E069
:1002200090E0009721F08130910551F008952091E0
:100230002D012F5F20932D0120EF2093330108958E
:1002400020912D012F5F20932D012FE0209333016A
:100250000895009721F08130910561F015C030912B
:100260002C0120910C01321778F010922C0181E0C2
:1002700090E00AC030912C0120910C01321720F03F
:1002800010922C0180E090E0009721F081309105E0
:1002900051F0089520912C012F5F20932C012AEA20
:1002A00020937101089520912C012F5F20932C0140
:1002B00025E520937101089581309105B9F08230D0
:1002C000910501F1009781F530912B0120910C01EE
:1002D000321750F180910101882319F081E090E0FC
:1002E00002C082E090E010922B011EC080910001BC
:1002F000869580930001813091F41092010180E095
:1003000090E012C080910001880F80930001803836
:1003100049F481E08093010180E090E005C080E035
:1003200090E002C080E090E0009749F420912B011A
:100330002F5F20932B012091000120932E0108951F
:10034000442349F021E030E002C0220F331F6A95B8
:10035000E2F7822B089521E030E002C0220F331F24
:100360006A95E2F720958223089521E030E002C0EB
:10037000220F331F6A95E2F78223089540E064E07C
:100380008FEF0E94A00182B9000080B160E08095EB
:100390000E94B501811180C080B161E080950E940A
:1003A000B50181117BC080B162E080950E94B501EA
:1003B000811176C080B163E080950E94B501811102
:1003C00071C040E065E08FEF0E94A00182B900009B
:1003D00080B160E080950E94B501811165C080B157
:1003E00061E080950E94B501811160C080B162E03A
:1003F00080950E94B50181115BC080B163E080955A
:100400000E94B501811156C040E066E08FEF0E9466
:10041000A00182B9000080B160E080950E94B50122
:1004200081114AC080B161E080950E94B5018111BF
:1004300045C080B162E080950E94B501811140C045
:1004400080B163E080950E94B50181113BC040E01E
:1004500067E08FEF0E94A00182B9000080B160E0E8
:1004600080950E94B50181112FC080B161E0809517
:100470000E94B50181112AC080B162E080950E947E
:10048000B501811125C080B163E080950E94B5015E
:100490008823F9F084E4089581E3089584E30895BE
:1004A00087E308958AE2089582E3089585E3089535
:1004B00088E3089580E3089583E3089586E308952B
:1004C00089E3089583E2089581E4089582E408951C
:1004D00083E408958BE0809381008DE790E0909312
:1004E00089008093880082E080936F0010928500DD
:1004F000109284008091100190911101A09112013D
:10050000B09113018093260190932701A0932801B5
:10051000B09329018FB780688FBF08951092810032
:1005200008956093100170931101809312019093CC
:100530001301609326017093270180932801909303
:100540002901089540E050E00CC000002F5F3F4FAC
:1005500002C020E030E0273063E03607B4F34F5F9D
:100560005F4F48175907ACF308959BB19F7B9BB928
:1005700088B98BB180688BB900008BB18F778BB94C
:1005800082E090E00E94A202089581E00E94B502FC
:100590000895813120F481580E94B5020895815553
:1005A0000E94B502089584E690E00E94A20288E3CA
:1005B0000E94B50286E00E94B5028FE00E94B5025B
:1005C00081E00E94B5028AE090E00E94A2020895B4
:1005D0009BB190649BB988B98BB180688BB90000DE
:1005E0008BB18F778BB981E090E00E94A2020895D1
:1005F000FF920F931F93CF93DF93EB010DC0FF2466
:10060000F394F80E0E94C9028E010F5F1F4F88817C
:100610000E94E8028F2DE80198819111F0CFDF91BF
:10062000CF911F910F91FF9008950F931F93CF9338
:10063000DF93B62FA72FF82FE92F022F132FD42FD8
:10064000C52F04C0062F172FD82FC92F6B2F7A2F35
:100650008F2F9E2F202F312F4D2F5C2F0E94CD04E6
:10066000B02FA12FFD2FEC2F61157105810591058C
:1006700049F7602F712F8D2F9C2FDF91CF911F9104
:100680000F91089584B18F6084B985B1886085B970
:10069000089585B1816085B9089585B18E7F85B94A
:1006A000089585B1826085B985B18D7F85B908953A
:1006B00085B1846085B981E0982F9A95F1F795B15D
:1006C0009B7F95B98A95F1F70895CF93DF93D82F43
:1006D000C0E00BC0DD231CF40E94490302C00E944D
:1006E0004D030E945103DD0FCF5FC83098F30E9485
:1006F0005803DF91CF910895CF93DF93EC010097DA
:1007000019F0019731F00EC080910E01882341F05D
:1007100009C080910E01882329F0C0E0D0E002C01A
:10072000C1E0D0E0209721F0C130D105C1F01AC05E
:1007300080910D01823049F0833061F0813091F475
:10074000809133010E9465030DC0809171010E9468
:10075000650308C080912E010E94650303C080E0FC
:100760000E946503CE01DF91CF91089580E005C01E
:10077000E0E0F0E03197F1F78F5F8233C8F308953E
:1007800085B1877F85B90E94510385B1886085B99D
:100790000E9451030895EF92FF921F93CF93DF932E
:1007A00010E045C0C12FD0E0FE01EE0FFF1FEE5F4D
:1007B000FE4FE080F180D70115964D915D916D91CE
:1007C0007C91189711968D919D910D90BC91A02DC3
:1007D000481759076A077B07C0F0D7011996ED91B2
:1007E000FC911A978C91082E000C990B0995F70132
:1007F0008083FE01EE0FFF1FEE5FFE4F0190F08140
:10080000E02D1582168217821086CC0FDD1FCE5F79
:10081000DE4FE881F98185819681A781B085C296F6
:10082000A11DB11D85839683A783B0871F5F1530F7
:1008300008F4B8CFDF91CF911F91FF90EF9008950A
:100840001F920F920FB60F9211240BB60F922F9397
:100850003F934F935F936F937F938F939F93AF9348
:10086000BF93EF93FF938091260190912701A09170
:100870002801B09129010197A109B10980932601AE
:1008800090932701A0932801B0932901892B8A2BEB
:100890008B2B91F40E94CB03809110019091110158
:1008A000A0911201B091130180932601909327012A
:1008B000A0932801B0932901FF91EF91BF91AF91CF
:1008C0009F918F917F916F915F914F913F912F9168
:1008D0000F900BBE0F900FBE0F901F90189511B880
:1008E0008FEF82B962E370E080E090E00E949102B5
:1008F0000E946A020E944203E1E4F1E0108282E376
:1009000090E0A0E0B0E081839283A383B4838583E9
:100910009683A783B0872FE730E032872187E0E511
:10092000F1E0108281839283A383B48385839683CD
:10093000A783B0872CE733E032872187E6E3F1E035
:10094000108281839283A383B48385839683A78354
:10095000B08726EF30E032872187EBE5F1E01082A7
:1009600081839283A383B48385839683A783B0878F
:1009700029E231E032872187E6E6F1E021E02083B9
:1009800081839283A383B48385839683A783B0876F
:100990008CE591E092878187FFCFA1E21A2EAA1BF6
:1009A000BB1BFD010DC0AA1FBB1FEE1FFF1FA2171F
:1009B000B307E407F50720F0A21BB30BE40BF50B1C
:1009C000661F771F881F991F1A9469F760957095A5
:1009D000809590959B01AC01BD01CF010895EE0F6C
:1009E000FF1F0024001C0BBE0790F691E02D099418
:0409F000F894FFCFA9
:1009F400800136015B016601410150010A01FF01DA
:100A04000100000000000002000000006E00000071
:060A1400000032000000AA
:00000001FF
