:100000000C9446000C9465000C9465000C946500FB
:100010000C9465000C9465000C9465000C946500CC
:100020000C9465000C9465000C9465000C946500BC
:100030000C9465000C9444020C9465000C946500CB
:100040000C9465000C9465000C9465000C9465009C
:100050000C9465000C9465000C9465000C9465008C
:100060000C9465000C9465000C9465000C9465007C
:100070000C9465000C9465000C9465000C9465006C
:100080000C9465000C9465000C94650011241FBE4F
:10009000CFEFD0E4DEBFCDBF11E0A0E0B1E0E4EEF1
:1000A000F5E000E00BBF02C007900D92A831B10748
:1000B000D9F721E0A8E1B1E001C01D92AA33B2074F
:1000C000E1F70E9493020C94F0020C940000CF938D
:1000D000C82F8A3019F48DE00E9467008091C0001B
:1000E00085FFFCCFC093C60080E090E0CF910895DB
:1000F000892B19F481E090E002C080E090E0009745
:1001000021F08130910551F00895209118012111BD
:10011000109219012091190122B908952091180116
:10012000222319F021E0209319012091190122B90D
:100130000895813081F0E1ECF0E080818861808376
:10014000E2ECF0E080818660808383E38093C400EA
:100150001092C5000895E9ECF0E080818861808309
:10016000EAECF0E080818660808383E38093CC00BA
:100170001092CD000895813021F08091C0008072EE
:1001800008958091C80080720895813021F0809197
:10019000C000807408958091C800807408958130F3
:1001A00021F08091C000807808958091C800807807
:1001B0000895813019F409C08091C6008091C00073
:1001C0008823D4F308958091CE008091C8008823BD
:1001D000D4F30895613039F09091C00095FFFCCFC1
:1001E0008093C60008959091C80095FFFCCF80933E
:1001F000CE000895813039F08091C0008823E4F763
:100200008091C60008958091C8008823E4F780910A
:10021000CE000895CF93DF93EC01892B09F073C0D2
:1002200080911801882391F181E088B984EF91E0F1
:10023000A0E0B0E080932E0190932F01A0933001B5
:10024000B093310188EE93E0A0E0B0E0809321010B
:1002500090932201A0932301B093240110921F01D7
:1002600081E00E94BB00882329F061E080911901A0
:100270000E94EA0080E00E94CF00811110921801D4
:1002800080911F018F5F80931F013DC018B889E1E5
:1002900090E0A0E0B0E080932E0190932F01A09316
:1002A0003001B09331018093210190932201A093FA
:1002B0002301B093240180E00E94CF00882391F0B5
:1002C00080E00E94FA008093190181E00E94BB0047
:1002D000882329F061E0809119010E94EA001092C0
:1002E0001F010AC080E00E94CF00811105C08091EB
:1002F0001F018F5F80931F0180911F01883718F0C5
:1003000081E080931801CE01DF91CF9108958BE0B9
:10031000809381008DE790E090938900809388001E
:1003200082E080936F00109285001092840080918B
:10033000050190910601A0910701B09108018093F9
:100340001A0190931B01A0931C01B0931D018FB75C
:1003500080688FBF08951092810008956093050111
:1003600070930601809307019093080160931A012E
:1003700070931B0180931C0190931D0108950F93AE
:100380001F93CF93DF93B62FA72FF82FE92F022FBC
:10039000132FD42FC52F04C0062F172FD82FC92FE6
:1003A0006B2F7A2F8F2F9E2F202F312F4D2F5C2FC9
:1003B0000E94CE02B02FA12FFD2FEC2F61157105E9
:1003C0008105910549F7602F712F8D2F9C2FDF91AB
:1003D000CF911F910F910895EF92FF921F93CF93AA
:1003E000DF9310E048C0C12FD0E0FE01EE0FFF1FE9
:1003F000E050FF4FE080F180D70115964D915D915F
:100400006D917C91189711968D919D910D90BC9155
:10041000A02D481759076A077B07C0F0D701199626
:10042000ED91FC911A978C91082E000C990B09956F
:10043000F7018083FE01EE0FFF1FE050FF4F019098
:10044000F081E02D1582168217821086CC0FDD1FF9
:10045000C050DF4FE881F9812091040185819681A8
:10046000A781B085820F911DA11DB11D8583968343
:10047000A783B0871F5F123008F4B5CFDF91CF910B
:100480001F91FF90EF9008951F920F920FB60F9259
:1004900011240BB60F922F933F934F935F936F935B
:1004A0007F938F939F93AF93BF93EF93FF9380912D
:1004B0001A0190911B01A0911C01B0911D0101979F
:1004C000A109B10980931A0190931B01A0931C010B
:1004D000B0931D01892B8A2B8B2B91F40E94EC0188
:1004E0008091050190910601A0910701B09108014A
:1004F00080931A0190931B01A0931C01B0931D01DE
:10050000FF91EF91BF91AF919F918F917F916F91EB
:100510005F914F913F912F910F900BBE0F900FBEA7
:100520000F901F9018958FEF81B912B814B885B944
:1005300087B918B88AB91BB86091040170E080E0EF
:1005400090E00E94AE010E94870180E00E94990025
:1005500081E00E949900EDE2F1E0108289E190E0F3
:10056000A0E0B0E081839283A383B48385839683E4
:10057000A783B0872AE031E032872187E0E2F1E00B
:10058000108281839283A383B48385839683A78318
:10059000B08788E790E092878187FFCFA1E21A2E8B
:1005A000AA1BBB1BFD010DC0AA1FBB1FEE1FFF1F17
:1005B000A217B307E407F50720F0A21BB30BE40B67
:1005C000F50B661F771F881F991F1A9469F76095AE
:1005D0007095809590959B01AC01BD01CF01089568
:0405E000F894FFCFBD
:1005E4002D0120011901000000000000020000009C
:0805F400006700000000000098
:00000001FF
