:100000000C9446000C9465000C9465000C946500FB
:100010000C9465000C9465000C9465000C946500CC
:100020000C9465000C9465000C9465000C946500BC
:100030000C9465000C94EE000C9465000C94650023
:100040000C9465000C9465000C9465000C9465009C
:100050000C9465000C9465000C9465000C9465008C
:100060000C9465000C9465000C9465000C9465007C
:100070000C9465000C9465000C9465000C9465006C
:100080000C9465000C9465000C94650011241FBE4F
:10009000CFEFD0E4DEBFCDBF11E0A0E0B1E0E2E4FD
:1000A000F5E000E00BBF02C007900D92AA31B10746
:1000B000D9F721E0AAE1B1E001C01D92A632B20752
:1000C000E1F70E947A020C949F020C940000CF93F7
:1000D000C82F8A3019F48DE00E9467008091C0001B
:1000E00085FFFCCFC093C60080E090E0CF910895DB
:1000F00084B18F6084B985B1886085B9089585B170
:10010000816085B9089585B18E7F85B9089585B1DF
:10011000826085B985B18D7F85B9089585B1846088
:1001200085B981E0982F9A95F1F795B19B7F95B9A4
:100130008A95F1F70895CF93DF93D82FC0E00BC0D5
:10014000DD231CF40E947F0002C00E9483000E94F5
:100150008700DD0FCF5FC83098F30E948E00DF91DB
:10016000CF91089580E005C0E0E0F0E03197F1F72D
:100170008F5F8233C8F3089585B1877F85B985B1D4
:10018000886085B9089581E080931E0108958BE011
:10019000809381008DE790E09093890080938800A0
:1001A00082E080936F00109285001092840080910D
:1001B000000190910101A0910201B091030180938F
:1001C0001A0190931B01A0931C01B0931D018FB7DE
:1001D00080688FBF08951092810008951F920F923A
:1001E0000FB60F9211240BB60F922F933F934F939C
:1001F0005F936F937F938F939F93AF93BF93EF938F
:10020000FF9380911A0190911B01A0911C01B09164
:100210001D010197A109B10980931A0190931B0157
:10022000A0931C01B0931D01892B8A2B8B2B91F479
:100230000E94C3008091000190910101A0910201F0
:10024000B091030180931A0190931B01A0931C01AC
:10025000B0931D01FF91EF91BF91AF919F918F914D
:100260007F916F915F914F913F912F910F900BBEB6
:100270000F900FBE0F901F90189560930001709320
:100280000101809302019093030160931A0170931E
:100290001B0180931C0190931D01089580911F0103
:1002A000909120018130910509F447C040F08230DF
:1002B000910509F468C0039709F48BC099C0009BAD
:1002C00007C0019B05C01092200110921F0190C031
:1002D000009915C0019B13C085E090E0A0E0B0E05C
:1002E0008093210190932201A0932301B0932401D4
:1002F00081E090E09093200180931F0179C00199E3
:1003000015C0009B13C085E090E0A0E0B0E08093B2
:10031000210190932201A0932301B093240182E054
:1003200090E09093200180931F0162C083E090E0F1
:100330009093200180931F015BC0009909C0019B2D
:1003400007C081E090E09093200180931F0150C08E
:10035000019909C0009B07C082E090E090932001C2
:1003600080931F0145C0009B07C0019B05C01092F0
:10037000200110921F013CC083E090E09093200187
:1003800080931F0135C0019909C0009B07C082E01E
:1003900090E09093200180931F012AC0019B09C027
:1003A000009907C081E090E09093200180931F01A5
:1003B0001FC0009B07C0019B05C010922001109236
:1003C0001F0116C083E090E09093200180931F01ED
:1003D0000FC0009B02C0019907C083E090E090939A
:1003E000200180931F0104C01092200110921F0170
:1003F00080911F01909120018130910591F040F092
:100400008230910509F441C0039709F470C0089542
:1004100010922101109222011092230110922401C6
:1004200008958091210190912201A0912301B09122
:10043000240185309105A105B10580F020912501A9
:100440002F3F61F01092210110922201109223019E
:10045000109224012F5F2093250108958530910586
:10046000A105B10508F045C0209125012F3F09F4F1
:1004700040C00196A11DB11D8093210190932201DE
:10048000A0932301B09324010895809121019091BC
:100490002201A0912301B091240185309105A1058D
:1004A000B10580F020912501222361F010922101F5
:1004B00010922201109223011092240121502093C6
:1004C0002501089585309105A105B10590F420918D
:1004D0002501222371F00196A11DB11D80932101F8
:1004E00090932201A0932301B093240108951092C8
:1004F0002501089511B88FEF82B964E670E080E0BD
:1005000090E00E943D010E94C7000E947800109276
:10051000210110922201109223011092240189EFEF
:10052000809325010E944E01809125010E949B002D
:1005300080911E018823E1F310921E01F3CFF894FD
:02054000FFCFEB
:10054200010000000000000200000000670000003F
:0A0552000000050000006400000036
:00000001FF
